:0400000026EF00F0F7
:100008005182FACF01F0FBCF02F0F2AC0EEF00F014
:1000180010EF00F020EF00F0F2AA15EF00F017EF54
:1000280000F020EF00F0F2A41CEF00F01EEF00F04B
:1000380020EF00F006EC04F002C0FBFF01C0FAFF5D
:10004800519211009CEF04F0E0EC04F0F296000EDF
:10005800046E000E036E36EC05F0F294F2A437EF4E
:1000680000F039EF00F032EF00F0600E036E0A0E78
:10007800046E3BEC05F0F28EF28CD70E236E7F0EE9
:10008800246EC2EC04F0710E236E7F0E246EC2EC57
:1000980004F0E20E236E7F0E246EC2EC04F0FC0E18
:1000A800236E7F0E246EC2EC04F016EC05F00009F6
:1000B800D8B461EF00F063EF00F059EF00F0A1EC65
:1000C80003F0396E29EF01F0110E236E7F0E246EB6
:1000D800C2EC04F0C80E236E7F0E246EC2EC04F04E
:1000E800EB0E236E7F0E246EC2EC04F0A20E236E7C
:1000F8007F0E246EC2EC04F08A0E236E7F0E246EEF
:10010800C2EC04F0320E236E7F0E246E000E266EB3
:10011800100E256EC2EC04F0EC0E236E7E0E246EDB
:10012800C2EC04F0110E236E7F0E246EC2EC04F0B4
:1001380059EF00F0F20E236E7F0E246EC2EC04F02D
:1001480059EF00F03A6A300E236E7F0E246EC2EC2F
:1001580004F03A2A270E3A64B4EF00F0B6EF00F044
:10016800A7EF00F0FF0059EF00F03A6AF50E236E92
:100178007F0E246EC2EC04F03A2A270E3A64C7EFC9
:1001880000F0C9EF00F0BAEF00F059EF00F03A6A5A
:100198004E50D8B4D2EF00F0D4EF00F0CCEF00F01E
:1001A8004E6A3A50290FD96EDA6AC4CFDFFF3A2A6D
:1001B8000F0E3A64E2EF00F0E4EF00F0CCEF00F04D
:1001C800B90E236E7E0E246E000E266E100E256E5E
:1001D800C2EC04F03A6AF80E236E7F0E246E3A5091
:1001E800290FD96EDA6ADF50286E2850256E266AE4
:1001F800C2EC04F03A2A0F0E3A6405EF01F007EF5B
:1002080001F0EFEF00F02F0E236E7F0E246EC2EC8C
:1002180004F059EF00F03950D00F0BEC05F0520EF6
:10022800236E7F0E246E39C025F0266AC2EC04F0D6
:1002380059EF00F0B70E236E7F0E246E39C025F0FB
:10024800266AC2EC04F059EF00F03950300AD8B4ED
:100258000FEF01F0010AD8B40FEF01F0030AD8B488
:100268000FEF01F0010AD8B40FEF01F0070AD8B474
:100278000FEF01F0010AD8B40FEF01F0030AD8B468
:100288000FEF01F0010AD8B40FEF01F00F0AD8B44C
:100298000FEF01F0010AD8B40FEF01F0060AD8B445
:1002A80068EF00F0650AD8B4A6EF00F0350AD8B4B4
:1002B8009EEF00F01C0AD8B4CBEF00F0090AD8B4BE
:1002C800B9EF00F01EEF01F026EF00F01050D96EE4
:1002D800DA6ADECFF6FFDDCFF7FF0800F550250A12
:1002E800D8A479EF01F07BEF01F070EF02F0105025
:1002F800D96EDA6ADE2A000EDD22000E3C6E000E90
:100308003B6E3BC04DF03D683E681050D96EDA6ACE
:10031800DECFF6FFDDCFF7FF0800F550630AD8A45B
:1003280098EF01F09AEF01F0B5EF01F01050D96E97
:10033800DA6ADE2A000EDD221150D96EDA6ADF5041
:10034800DF2ADF2AD96EDA6ADF501B6E1BC005F080
:10035800066A0EC007F00FC008F084EC02F083EFC5
:1003680002F01050D96EDA6ADECF15F0DDCF16F044
:1003780015C0F6FF16C0F7FF0800F550640AD8B498
:10038800C8EF01F0CAEF01F0D8EF01F015C0F6FF91
:1003980016C0F7FF0800F550690AD8A4D6EF01F097
:1003A800D8EF01F068EF02F01150D96EDA6A020E48
:1003B800DF26DF5CD96EDA6ADECF17F0DECF18F001
:1003C800010E1524126E000E1620136E1050D96EF1
:1003D800DA6A12C0DEFF13C0DDFF200E1B6E18BEE6
:1003E800F8EF01F0FBEF01F0010EFCEF01F0000E59
:1003F800146E1B061B50600FD96EDA6A17C003F023
:1004080018C004F0000E066E0A0E056E4AEC03F0E2
:1004180003C009F004C00AF03DEC04F00950300FA5
:10042800DF6E17C003F018C004F0000E066E0A0E47
:10043800056EE9EC02F003C017F004C018F017507D
:100448001810D8B42AEF02F02CEF02F034EF02F0C3
:100458001B50D8A432EF02F034EF02F0FDEF01F0A8
:100468001B50D8B43AEF02F03CEF02F05DEF02F017
:100478001450D8B442EF02F044EF02F05DEF02F0FE
:100488001B061B50600FD96EDA6A2D0EDF6E5DEF0A
:1004980002F01B50600FD96EDA6ADF50126E1250EC
:1004A800056E066A0EC007F00FC008F084EC02F073
:1004B8001B2A200E1B18D8A464EF02F066EF02F086
:1004C8004DEF02F083EF02F01050D96EDA6ADE2A9F
:1004D800000EDD2283EF02F01050D96EDA6ADECF0B
:1004E800F6FFDDCFF7FF0800F550056E066A0EC06F
:1004F80007F00FC008F084EC02F068EF02F0120079
:1005080007500810D8B48BEF02F08DEF02F096EF89
:1005180002F007500810D8A494EF02F096EF02F00A
:100528009BEF02F00550D1EC04F0E8EF02F020EE6A
:1005380009F00750D9260850DA22DE50DE10D8B468
:10054800A8EF02F0AAEF02F0C5EF02F020EE09F0E2
:100558000750D9260850DA2210EE02F00750E1269B
:100568000850E222DE50E65CE650800A0D6EDE504E
:10057800800A0D58D8B0C3EF02F0C5EF02F0E8EFDB
:1005880002F020EE02F00750D9260850DA22DECF1A
:1005980009F0DDCF0AF007C0D9FF08C0DAFFDECFC7
:1005A8000BF0DDCF0CF009500B24D96E0A500C204B
:1005B800DA6E05C0DFFF20EE02F00750D92608509A
:1005C800DA22DE2A000EDD221200086A06BEF1EFEA
:1005D80002F0EFEF02F0F7EF02F0056C061ED8B05C
:1005E800062A010E086E04BEFEEF02F0FCEF02F0D0
:1005F80004EF03F0036C041ED8B0042A010E081A95
:10060800000E0A6E000E096E05500610D8B40FEFE2
:1006180003F011EF03F039EF03F0010E076E19EF45
:1006280003F0D89005360636072A06AE1EEF03F00B
:1006380020EF03F015EF03F0D89009360A3605507D
:10064800035C06500458D8A02CEF03F02EEF03F0FB
:1006580033EF03F00550035E0650045A0980D89022
:1006680006320532072E20EF03F00850D8B43FEFCA
:1006780003F041EF03F045EF03F0096C0A1ED8B010
:100688000A2A09C003F00AC004F01200086A04BE6E
:1006980052EF03F050EF03F058EF03F0036C041E21
:1006A800D8B0042A010E086E06BE5FEF03F05DEFB6
:1006B80003F063EF03F0056C061ED8B0062A055058
:1006C8000610D8B46AEF03F06CEF03F090EF03F074
:1006D800010E076E74EF03F0D89005360636072A28
:1006E80006AE79EF03F07BEF03F070EF03F00550EF
:1006F800035C06500458D8A084EF03F086EF03F09B
:100708008AEF03F00550035E0650045AD89006326B
:100718000532072E7BEF03F00850D8B496EF03F0AC
:1007280098EF03F09CEF03F0036C041ED8B0042A82
:1007380003C003F004C004F01200000E446E000E63
:10074800436EABA2AAEF03F0ACEF03F0C3EF03F0E4
:1007580043843F504010D8B4B4EF03F0B6EF03F031
:10076800C3EF03F002D8C3EF03F00500FA6E3F5061
:10077800FD6E4050FE6EF850FF6EFA501200ABA4AA
:10078800C8EF03F0CAEF03F0E1EF03F043824150F2
:100798004210D8B4D2EF03F0D4EF03F0E1EF03F046
:1007A80002D8E1EF03F00500FA6E4150FD6E4250A9
:1007B800FE6EF850FF6EFA501200AE5012001EC0C6
:1007C80021F01FC022F0F3EF03F01CC00EF01DC093
:1007D8000FF0210E106E20C011F06AEC01F021C05C
:1007E800F6FF22C0F7FF0800F5500009D8A4FFEF74
:1007F80003F001EF04F0E9EF03F0000E1D6E000EA8
:100808001C6E12004650D76E45C0D6FF4F50501090
:10081800D8B411EF04F013EF04F020EF04F002D87D
:1008280020EF04F00500FA6E4F50FD6E5050FE6E3A
:10083800F850FF6EFA501200F2941200480EB86E8B
:10084800900EAB6E260EAC6E820EAF6E060EB06EBC
:10085800B40E036E0A0E046EFDEC04F0AE0E036EC9
:100868000A0E046EEFEC04F0000E446E000E436EA8
:1008780012000ABE42EF04F044EF04F04AEF04F01D
:1008880009C009F00AC00AF056EF04F009C00BF0DD
:100898000AC00CF00B1E0C1E0B4A0C2A0BC009F0E8
:1008A8000CC00AF01200D09EF292F18C000E036E7A
:1008B800000E046E4AEC05F0F090F18A000E036E0B
:1008C800000E046E45EC05F0F092F188000E036E00
:1008D800000E046E40EC05F01200896A8A6A400E28
:1008E8008B6EBF0E926E9368BF0E946E800E966EDE
:1008F8002F0E0F01386F3F0E396F3C0E3A6F61684B
:10090800F00E626EF2861200D59CF90ED76EC00EFC
:10091800D66EF90E466EC00E456EB60E036E0A0E02
:10092800046E3BEC05F0F294F28A9F0ED56E12002D
:1009380000EE60F0200EEE6AE806FDE100EE3BF006
:10094800140EEE6AE806FDE151905192000EF86E21
:10095800000128EF00F0036A9EA8B5EF04F0B7EF96
:1009680004F0C0EF04F0ACAABCEF04F0BEEF04F052
:10097800C0EF04F0010E036E03501200250E276E1F
:10098800000E1C6E000E1D6E23C01EF024C01FF04A
:10099800270E206EE3EC03F01200046EAFEC04F0B7
:1009A8000009D8B4DAEF04F0DCEF04F0D2EF04F079
:1009B80004504FEC05F0120029EC05F071EC04F03E
:1009C80053EC05F088EC04F020EC05F022EC04F080
:1009D80057EC04F0120003500410D8B4F6EF04F0FA
:1009E800F8EF04F0FCEF04F003C03FF004C040F05F
:1009F800120003500410D8B404EF05F006EF05F018
:100A08000AEF05F003C041F004C042F01200046E82
:100A180004C003F003460346C2500318830B0318AF
:100A2800C26E12009EBA1BEF05F01EEF05F0010E14
:100A38001FEF05F0000E1200C16A260EC06EC36AD1
:100A4800C46A130EC26E9E9C1200700ED36E040E02
:100A5800D26E400E9B6E1200898CC282010E4E6EC1
:100A6800899C12000450D76E03C0D6FF120003C041
:100A78004FF004C050F0120003C047F004C048F023
:100A8800120003C049F004C04AF0120003C04BF042
:100A980004C04CF01200036E03C0ADFF12000F013A
:100AA800546B556B1200AB98AB8812001200120001
:107E8800004408000042079E0A2C0A5E0900000010
:107E980000000000000000000000000000000000DA
:107EA800000000000000000000FA09DE09000000E0
:107EB80000546865206C6173742025642041444334
:107EC8002073616D706C65732066726F6D207468C5
:107ED80065206D6963726F70686F6E652061726589
:107EE8003A0D0A00302D393A207377697463682097
:107EF80073616D706C6564206368616E6E656C207B
:107F0800746F20414E780D0A002D2D2D2D2D2D2D0D
:107F18002D2D2D2D2D2D2D2D2D2D2D2D2D2D2D2D89
:107F28002D2D2D2D2D2D2D0D0A00733A20676174EE
:107F38006865722025642073616D706C65732066B6
:107F4800726F6D204144430D0A0054686520414416
:107F580043206973206E6F772073616D706C696E52
:107F68006720414E25630D0A004D6963726F706882
:107F78006F6E65206578706572696D656E74730DD6
:107F88000A007A3A20436C6561722074686520742F
:107F980065726D696E616C0D0A005A3A20526573FC
:107FA80065742070726F636573736F720D0A005584
:107FB8006E6B6E6F776E206B65792025630D0A00F6
:107FC8003F3A2048656C70206D656E750D0A006932
:107FD8006E4C61622030380D0A00446576273231D4
:107FE8000D0A006F3A206B0D0A00206B0D0A3E0047
:087FF800256420003E2000007A
:020000040030CA
:0E000000FF281F3CFFBF85FF0FC00FE00F4021
:00000001FF
