:0400000026EF00F0F7
:100008005182FACF0DF0FBCF0EF0F2AC0EEF00F0FC
:1000180010EF00F020EF00F0F2AA15EF00F017EF54
:1000280000F020EF00F0F2A41CEF00F01EEF00F04B
:1000380020EF00F09AEC0BF00EC0FBFF0DC0FAFFAA
:100048005192110011EF0BF0000E0001A36F000E8A
:10005800A46F000EA56F000EA66F300E9F6F3AECCE
:100068000CF08A88000E106E000E0F6E6CEC0CF00F
:10007800F294F2A442EF00F044EF00F03DEF00F0FC
:10008800E40E0F6E150E106E71EC0CF0F28EF28C01
:10009800C60E00018D6F7F0E8E6FF0EC0BF0740EA4
:1000A80000018D6F7F0E8E6FF0EC0BF0D10E00010A
:1000B8008D6F7F0E8E6FF0EC0BF091EC0CF0010E53
:1000C80026EC0AF054EC0CF00009D8B46EEF00F0FE
:1000D80070EF00F066EF00F06AEC0AF00001A06F24
:1000E80033EF03F01E0E8D6F7C0E8E6FF0EC0BF06D
:1000F800610E00018D6F7F0E8E6FF0EC0BF0EF0E2E
:1001080000018D6F7F0E8E6FA5C08FF0A6C090F096
:10011800916B926BF0EC0BF0FD0E00018D6F7F0E72
:100128008E6FF0EC0BF0EF0E00018D6F7F0E8E6F6F
:10013800FF0EA3158F6FFF0EA415906F000EA51567
:10014800916F000EA615926FF0EC0BF0B40E000143
:100158008D6F7F0E8E6FF0EC0BF0200E00018D6F0F
:100168007C0E8E6FF0EC0BF0B70E00018D6F7F0EDA
:100178008E6FF0EC0BF0E20E00018D6F7F0E8E6F2C
:10018800F0EC0BF0240E00018D6F7F0E8E6FF0ECFB
:100198000BF0F50E00018D6F7E0E8E6FF0EC0BF0FC
:1001A800540E00018D6F7C0E8E6FF0EC0BF0D90EA3
:1001B80000018D6F7D0E8E6FF0EC0BF0880E000144
:1001C8008D6F7C0E8E6FF0EC0BF0DD0E00018D6FE5
:1001D8007E0E8E6FF0EC0BF0B40E00018D6F7D0E6D
:1001E8008E6FF0EC0BF0130E00018D6F7D0E8E6F8D
:1001F800020E906F000E8F6FF0EC0BF03E0E0001B8
:100208008D6F7D0E8E6F020E906F000E8F6FF0EC6B
:100218000BF0E20E00018D6F7B0E8E6FF0EC0BF091
:10022800A00E00018D6F7B0E8E6FF0EC0BF0200E90
:1002380000018D6F7C0E8E6FF0EC0BF066EF00F016
:10024800DA0E8D6F7F0E8E6FF0EC0BF066EF00F01C
:10025800000EA26F000EA16FF60E8D6F7F0E8E6FCF
:10026800F0EC0BF00001A14BA22BA25109E1280EE2
:10027800A15DD8A042EF01F044EF01F030EF01F0AA
:10028800FF0066EF00F0000EA26F000EA16FF60EE1
:100298008D6F7F0E8E6FF0EC0BF00001A14BA22B3F
:1002A800A25109E1280EA15DD8A05DEF01F05FEF32
:1002B80001F04BEF01F066EF00F0FA0E8D6F7A0E49
:1002C8008E6FF0EC0BF04D0E00018D6F7B0E8E6F74
:1002D800F0EC0BF0A80E00018D6F7E0E8E6FF0EC27
:1002E8000BF0BC0E00018D6F7C0E8E6FF0EC0BF0E6
:1002F800380E00018D6F7E0E8E6FF0EC0BF054EC13
:100308000CF00009D8A48BEF01F08DEF01F083EF1A
:1003180001F054EC0CF00009D8B495EF01F097EF18
:1003280001F08DEF01F06AEC0AF01B0E00018D6FF1
:100338007E0E8E6F9FC08FF0906B9F5147EC0CF034
:1003480000019D6F9D51916F926BF0EC0BF00001D5
:100358009F2B66EF00F091EC0CF0010E26EC0AF0F2
:10036800010E83EC05F066EF00F0610EA019D8A429
:10037800C0EF01F0C2EF01F0ECEF01F0000EA35F57
:10038800020EA45B000EA55B000EA65B040EA65D24
:10039800D8A0D1EF01F0D3EF01F0E4EF01F0FD0EAA
:1003A8008D6F7D0E8E6FF0EC0BF0000E0001A36FC9
:1003B800FE0EA46FFF0EA56F030EA66F14EF02F0DA
:1003C800390E8D6F7F0E8E6FF0EC0BF014EF02F08C
:1003D800000EA327020EA423000EA523000EA623B9
:1003E800040EA65DD8A0FBEF01F0FDEF01F00EEFC3
:1003F80002F0710E8D6F7E0E8E6FF0EC0BF0000E1A
:100408000001A36F000EA46F000EA56F000EA66F6B
:1004180014EF02F04D0E8D6F7F0E8E6FF0EC0BF027
:10042800610E00018D6F7F0E8E6FF0EC0BF0EF0EFA
:1004380000018D6F7F0E8E6FA5C08FF0A6C090F063
:10044800916B926BF0EC0BF0FD0E00018D6F7F0E3F
:100458008E6FF0EC0BF0EF0E00018D6F7F0E8E6F3C
:10046800FF0EA3158F6FFF0EA415906F000EA51534
:10047800916F000EA615926FF0EC0BF0B40E000110
:100488008D6F7F0E8E6FF0EC0BF066EF00F0680E4C
:100498008D6F7D0E8E6FF0EC0BF0000E0001A26FD9
:1004A800000EA16FA90EA125D96E000EA221DA6E49
:1004B800A151FF0ADF6EA14BA22B020EA25DD8A0AC
:1004C80068EF02F06AEF02F056EF02F08B88A3C0E3
:1004D80010F0A4C011F0A5C012F0A6C013F0A90E28
:1004E800146E000E156EDFEC09F04AEC0BF00001FB
:1004F8009E6F9E29D8B483EF02F085EF02F079EF62
:1005080002F08B98E80E8D6F7C0E8E6FF0EC0BF07E
:10051800970E00018D6F7F0E8E6FF0EC0BF0EF0ED3
:1005280000018D6F7F0E8E6FA5C08FF0A6C090F072
:10053800916B926BF0EC0BF0FD0E00018D6F7F0E4E
:100548008E6FF0EC0BF0EF0E00018D6F7F0E8E6F4B
:10055800FF0EA3158F6FFF0EA415906F000EA51543
:10056800916F000EA615926FF0EC0BF0B40E00011F
:100578008D6F7F0E8E6FF0EC0BF00D0E00018D6FFE
:100588007F0E8E6F9EC08FF0906BF0EC0BF066EFD5
:1005980000F08E0E8D6F7D0E8E6FF0EC0BF08B8A57
:1005A800A3C010F0A4C011F0A5C012F0A6C013F0AB
:1005B800A90E146E000E156E47EC09F08B9AA80E62
:1005C80000018D6F7F0E8E6FF0EC0BF0970E00011F
:1005D8008D6F7F0E8E6FF0EC0BF0EF0E00018D6FBC
:1005E8007F0E8E6FA5C08FF0A6C090F0916B926BB6
:1005F800F0EC0BF0FD0E00018D6F7F0E8E6FF0ECAE
:100608000BF0EF0E00018D6F7F0E8E6FFF0EA3159E
:100618008F6FFF0EA415906F000EA515916F000E39
:10062800A615926FF0EC0BF0B40E00018D6F7F0EE3
:100638008E6FF0EC0BF0A90E0001936F000E946F13
:100648008DEC04F066EF00F0860E8D6F7F0E8E6FD6
:10065800A0C08FF0906BF0EC0BF066EF00F0A051AB
:100668003F0AD8B476EF00F07E0AD8B4B9EF01F0AB
:100678001B0AD8B42CEF01F03B0AD8B4B9EF01F04B
:10068800080AD8B4AFEF01F0060AD8B424EF01F095
:100698001D0AD8B4CDEF02F0060AD8B461EF01F014
:1006A800030AD8B44BEF02F00D0AD8B447EF01F0B3
:1006B80028EF03F026EF00F03750D96EDA6ADECF64
:1006C800F6FFDDCFF7FF0800F550250AD8A46FEF35
:1006D80003F071EF03F079EF04F03750D96EDA6A5E
:1006E800DE2A000EDD22000E456E000E446E44C068
:1006F80050F00001606961693C6A9FEF03F0508225
:100708003750D96EDA6ADE2A000EDD229FEF03F039
:10071800010E3C6E9FEF03F03750D96EDA6ADECFD8
:10072800F6FFDDCFF7FF0800F550300AD8B483EFA5
:1007380003F08CEF03F03C50D8B4A5EF03F0A7EF1B
:1007480003F090EF03F037C00FF038C010F0F1EC71
:1007580008F00FC044F010C045F045BEB8EF03F0F4
:10076800B6EF03F0BDEF03F05080446C451ED8B0DF
:10077800452A3750D96EDA6ADECFF6FFDDCFF7FFAC
:100788000800F550630AD8A4CCEF03F0CEEF03F0CD
:10079800E8EF03F03750D96EDA6ADE2A000EDD2260
:1007A8003850D96EDA6ADF50DF2ADF2AD96EDA6A62
:1007B800DF503B6E35C01AF036C01BF03BC01CF052
:1007C800D5EC07F08CEF04F03750D96EDA6ADECF3B
:1007D80041F0DDCF42F041C0F6FF42C0F7FF08000C
:1007E800F550640AD8B4FBEF03F0FDEF03F00BEF0C
:1007F80004F041C0F6FF42C0F7FF0800F550690A4F
:10080800D8A409EF04F00BEF04F030EF04F03850EF
:10081800D96EDA6A020EDF26DF5CD96EDA6ADECFBD
:100828003DF0DECF3EF0010E4124396E000E42202D
:100838003A6E3750D96EDA6A39C0DEFF3AC0DDFF4A
:1008480035C028F036C029F03DC02AF03EC02BF054
:100858003FEC06F08CEF04F041C0F6FF42C0F7FF12
:100868000800F550780AD8A43CEF04F03EEF04F0F5
:1008780071EF04F03850D96EDA6A020EDF26DF5CB9
:10088800D96EDA6ADECF3DF0DECF3EF0010E4124AC
:10089800396E000E42203A6E3750D96EDA6A39C086
:1008A800DEFF3AC0DDFF65EF04F035C028F036C042
:1008B80029F03DC02AF03EC02BF0F3EC06F08CEF97
:1008C80004F041C0F6FF42C0F7FF0800F550780A6F
:1008D800D8B459EF04F071EF04F03750D96EDA6AE2
:1008E800DE2A000EDD228CEF04F03750D96EDA6A6A
:1008F800DECFF6FFDDCFF7FF0800F550116E126A64
:1009080035C013F036C014F070EC07F071EF04F046
:100918001200F40E00018D6F7F0E8E6FF0EC0BF05D
:10092800000E00019C6F000E9B6F9B519C11D8B468
:10093800A0EF04F0A2EF04F0B7EF04F0070E9B1548
:10094800956F000E9C15966F95519611D8A4AFEF30
:1009580004F0B1EF04F0B7EF04F0A60E8D6F7F0E30
:100968008E6FF0EC0BF000019B519C11D8B4BFEFD7
:1009780004F0C1EF04F01AEF05F00F0E9B15956F08
:10098800000E9C15966F95519611D8A4CEEF04F0E1
:10099800D0EF04F01AEF05F0A50E8D6F7F0E8E6F65
:1009A800F0EC0BF0F00E00019B25976FFF0E9C21D9
:1009B800986F09EF05F097519325D96E98519421B6
:1009C800DA6E200EDF60EBEF04F0EDEF04F0F5EFE8
:1009D80004F0FB0E8D6F7F0E8E6FF0EC0BF006EFC0
:1009E80005F0F80E8D6F7F0E8E6F97519325D96E97
:1009F80098519421DA6EDF50956F95518F6F906BF7
:100A0800F0EC0BF00001974B982B9B51975D9C5194
:100A18009859D8A012EF05F014EF05F0DFEF04F0B5
:100A2800B40E8D6F7F0E8E6FF0EC0BF0E90E0001A7
:100A38008D6F7F0E8E6F9B519325D96E9C5194219B
:100A4800DA6EDF50956F95518F6F906BF0EC0BF06D
:100A580000019B4B9C2B020E9C5DD8A036EF05F045
:100A680038EF05F099EF04F0A40E8D6F7F0E8E6FAE
:100A7800F0EC0BF0F00E00019B25996FFF0E9C2106
:100A88009A6F71EF05F099519325D96E9A51942177
:100A9800DA6E200EDF6053EF05F055EF05F05DEFDD
:100AA80005F0FB0E8D6F7F0E8E6FF0EC0BF06EEF86
:100AB80005F0F80E8D6F7F0E8E6F99519325D96EC4
:100AC8009A519421DA6EDF50956F95518F6F906B24
:100AD800F0EC0BF00001994B9A2B9B51995D9C51BE
:100AE8009A59D8A07AEF05F07CEF05F047EF05F0AA
:100AF800B40E8D6F7F0E8E6FF0EC0BF012000001BC
:100B0800956F000E0001946F000E936FFF0E47EC77
:100B18000CF00001934B942B94BF9CEF05F094517B
:100B280009E10A0E935DD8A09CEF05F09EEF05F051
:100B38008AEF05F08A98FF0E47EC0CF0400E47EC60
:100B48000CF0000E47EC0CF0000E47EC0CF0000E19
:100B580047EC0CF0000E47EC0CF0950E47EC0CF04F
:100B6800FF0E47EC0CF0FF0E47EC0CF00001966FFF
:100B78008A889505D8A4C3EF05F0C5EF05F0CEEF38
:100B880005F08D0E8D6F7E0E8E6F96C08FF0906B78
:100B9800F0EC0BF08A98FF0E47EC0CF0410E47EC96
:100BA8000CF0000E47EC0CF0000E47EC0CF0000EB9
:100BB80047EC0CF0000E47EC0CF0FF0E47EC0CF085
:100BC800FF0E47EC0CF0FF0E47EC0CF00001966F9F
:100BD8008A889651D8A4F3EF05F0F5EF05F0CEEF2B
:100BE80005F09505D8A4FBEF05F0FDEF05F006EF3D
:100BF80006F0C30E8D6F7E0E8E6F96C08FF0906BD1
:100C0800F0EC0BF08A98FF0E47EC0CF0500E47EC16
:100C18000CF0000E47EC0CF0000E47EC0CF0020E46
:100C280047EC0CF0000E47EC0CF0FF0E47EC0CF014
:100C3800FF0E47EC0CF0FF0E47EC0CF00001966F2E
:100C48008A889629D8B42BEF06F02DEF06F006EF28
:100C580006F09505D8A433EF06F035EF06F03EEF21
:100C680006F0550E8D6F7E0E8E6F96C08FF0906BCE
:100C7800F0EC0BF01200010E2E6E2BBE46EF06F0C4
:100C880049EF06F0010E4AEF06F0000E316E44C03F
:100C98002FF045C030F03150D8B455EF06F057EF7B
:100CA80006F06EEF06F02F06D8A030063150D8A413
:100CB80060EF06F062EF06F068EF06F0000E2D6EAA
:100CC8002B0E2C6E6CEF06F0000E2D6E2D0E2C6E7A
:100CD8002CC031F0000E336E1F0E326E0001856B92
:100CE800A2EF06F03206D8A033063250660FD96E4E
:100CF800DA6A2AC00FF02BC010F0000E126E0A0E2E
:100D0800116E9AEC08F00FC015F010C016F080ECC8
:100D18000BF01550300FDF6E2E6A2F06D8A0300664
:100D28002AC00FF02BC010F0000E126E0A0E116EC2
:100D380039EC08F00FC02AF010C02BF033BEADEF2D
:100D480006F0335008E13204D8A0ADEF06F0AFEF5B
:100D580006F0D4EF06F02A502B10D8A4B6EF06F010
:100D6800B8EF06F076EF06F02E50D8A4BEEF06F0E6
:100D7800C0EF06F076EF06F030BECBEF06F030504D
:100D880008E12F04D8A0CBEF06F0CDEF06F0D4EFA2
:100D980006F050B2D2EF06F0D4EF06F076EF06F088
:100DA8003150D8B4DAEF06F0DCEF06F0E5EF06F0E4
:100DB8003206D8A033063250660FD96EDA6A31C0CF
:100DC800DFFF28C020F029C021F03250660F226EC4
:100DD8002FC023F030C024F094EC09F01200010E6B
:100DE8002F6E44C030F045C031F0000E346E1F0E37
:100DF800336E0001856B2FEF07F03306D8A0340659
:100E08002A500F0B326E0A0E32600DEF07F00FEF0B
:100E180007F013EF07F0300E322615EF07F0570EE4
:100E280032263350660FD96EDA6A32C0DFFF2F6A76
:100E38003006D8A031062AC02CF02BC02DF0040EA5
:100E48002E6ED8902D322C322E2E25EF07F02CC086
:100E58002AF02DC02BF034BE3BEF07F0345009E1E7
:100E6800020E335CD8A03BEF07F03DEF07F062EFCE
:100E780007F02A502B10D8A444EF07F046EF07F0EC
:100E880001EF07F02F50D8A44CEF07F04EEF07F012
:100E980001EF07F031BE59EF07F0315008E1300497
:100EA800D8A059EF07F05BEF07F062EF07F050B2F8
:100EB80060EF07F062EF07F001EF07F028C020F0BD
:100EC80029C021F03350660F226E30C023F031C0A4
:100ED80024F094EC09F0120013501410D8B477EFF2
:100EE80007F079EF07F082EF07F013501410D8A439
:100EF80080EF07F082EF07F087EF07F0115000EC62
:100F08000CF0D4EF07F020EE09F01350D926145056
:100F1800DA22DE50DE10D8B494EF07F096EF07F02F
:100F2800B1EF07F020EE09F01350D9261450DA2259
:100F380010EE02F01350E1261450E222DE50E65C77
:100F4800E650800A196EDE50800A1958D8B0AFEF03
:100F580007F0B1EF07F0D4EF07F020EE02F01350DE
:100F6800D9261450DA22DECF15F0DDCF16F013C0E3
:100F7800D9FF14C0DAFFDECF17F0DDCF18F0155017
:100F88001724D96E16501820DA6E11C0DFFF20EE34
:100F980002F01350D9261450DA22DE2A000EDD2280
:100FA800120044504510D8A4DCEF07F0DEEF07F03C
:100FB800E4EF07F044C020F045C021F0EAEF07F065
:100FC800FF0E4424206EFF0E4520216E50A0EFEF47
:100FD80007F0F1EF07F0FAEF07F01CC011F0126A02
:100FE8001AC013F01BC014F070EC07F021BEFFEF1D
:100FF80007F001EF08F003EF08F007EF08F0000E24
:10100800216E000E206E000E1F6E000E1E6E19EF70
:1010180008F0000E126E200E116E1AC013F01BC0DD
:1010280014F070EC07F01E4A1F2A20501E5C1F5057
:10103800800A1D6E2150800A1D58D8A026EF08F09E
:1010480028EF08F00DEF08F050B02DEF08F02FEF63
:1010580008F038EF08F01CC011F0126A1AC013F03B
:101068001BC014F070EC07F01200146A12BE41EFB6
:1010780008F03FEF08F047EF08F0116C121ED8B0E7
:10108800122A010E146E10BE4EEF08F04CEF08F055
:1010980054EF08F00F6C101ED8B0102A010E141A65
:1010A800000E166E000E156E11501210D8B45FEFB8
:1010B80008F061EF08F089EF08F0010E136E69EF90
:1010C80008F0D89011361236132A12AE6EEF08F0D7
:1010D80070EF08F065EF08F0D89015361636115005
:1010E8000F5C12501058D8A07CEF08F07EEF08F083
:1010F80083EF08F011500F5E1250105A1580D890E7
:1011080012321132132E70EF08F01450D8B48FEF4A
:1011180008F091EF08F095EF08F0156C161ED8B09E
:10112800162A15C00FF016C010F01200146A10BE6F
:10113800A2EF08F0A0EF08F0A8EF08F00F6C101E5F
:10114800D8B0102A010E146E12BEAFEF08F0ADEF42
:1011580008F0B3EF08F0116C121ED8B0122A115023
:101168001210D8B4BAEF08F0BCEF08F0E0EF08F0BE
:10117800010E136EC4EF08F0D89011361236132AF8
:1011880012AEC9EF08F0CBEF08F0C0EF08F011502D
:101198000F5C12501058D8A0D4EF08F0D6EF08F022
:1011A800DAEF08F011500F5E1250105AD890123230
:1011B8001132132ECBEF08F01450D8B4E6EF08F034
:1011C800E8EF08F0ECEF08F00F6C101ED8B0102A0A
:1011D8000FC00FF010C010F01200000E156E000EB8
:1011E800146E0F50D96EDA6ADECFF6FFDDCFF7FF47
:1011F8000800F5502A0AD8A404EF09F006EF09F010
:101208002FEF09F00F50D96EDA6ADE2A000EDD22C0
:101218001050D96EDA6A020EDF26DF5CD96EDA6A00
:10122800DECF14F0DECF15F042EF09F00A0E1402FB
:10123800F3CF11F0F4CF12F01502F3501226135029
:101248001124146E000E1220156E0F50D96EDA6A32
:10125800DE2A000EDD220F50D96EDA6ADECFF6FFE5
:10126800DDCFF7FF0800F550D00F136E090E136499
:1012780040EF09F042EF09F01AEF09F014C00FF03F
:1012880015C010F012008A98FF0E47EC0CF0510EB2
:1012980047EC0CF0135047EC0CF0125047EC0CF0F4
:1012A800115047EC0CF0105047EC0CF0FF0E47ECD7
:1012B8000CF0FF0E47EC0CF0FF0AD8B466EF09F00B
:1012C80068EF09F05DEF09F0FF0E47EC0CF0FF0A3C
:1012D800D8B471EF09F073EF09F068EF09F0000E68
:1012E800176E000E166E16501424D96E175015205E
:1012F800DA6EFF0E47EC0CF0DF6E164A172A020E64
:10130800175CD8A08AEF09F08CEF09F077EF09F0A5
:10131800FF0E47EC0CF0FF0E47EC0CF08A88120029
:1013280050A099EF09F09BEF09F0A3EF09F022C054
:101338001AF020C01BF021C01CF0D2EC0AF024BE29
:10134800AAEF09F0A8EF09F0AEEF09F0000E246E3D
:10135800000E236E000E276E000E266EC0EF09F0F9
:10136800000E126E200E116E20C013F021C014F072
:1013780070EC07F0264A272A2350265C2750800A5B
:10138800256E2450800A2558D8A0CDEF09F0CFEF5C
:1013980009F0B4EF09F050B0D4EF09F0D6EF09F036
:1013A800DEEF09F022C01AF020C01BF021C01CF0AB
:1013B800D2EC0AF012008A98FF0E47EC0CF0580E97
:1013C80047EC0CF0135047EC0CF0125047EC0CF0C3
:1013D800115047EC0CF0105047EC0CF0FF0E47ECA6
:1013E8000CF0FF0E47EC0CF0FF0AD8B4FEEF09F042
:1013F80000EF0AF0F5EF09F0FF0E47EC0CF0FF0ED6
:1014080047EC0CF0FF0E47EC0CF0FE0E47EC0CF02E
:10141800000E176E000E166E16501424D96E175053
:101428001520DA6EDF5047EC0CF0164A172A020E28
:10143800175CD8A022EF0AF024EF0AF010EF0AF0A8
:101448008A8812000F6E6CBA2CEF0AF02EEF0AF0A1
:1014580069EF0AF00F50050DEB0EF324F66E7A0EC5
:10146800F420F76E0800F5CF6DFF0F50050D010E43
:10147800F326000EF422EB0EF324F66E7A0EF42017
:10148800F76E0800F5CF6CFF0F50050D020EF3261E
:10149800000EF422EB0EF324F66E7A0EF420F76EAB
:1014A8000800F5CF69FF0F50050D030EF326000E57
:1014B800F422EB0EF324F66E7A0EF420F76E080091
:1014C800F5CF6EFF6C8A69EF0AF01200000E00017A
:1014D800656F000E646FABA274EF0AF076EF0AF046
:1014E8008DEF0AF0648562516311D8B47EEF0AF07B
:1014F80080EF0AF08DEF0AF002D88DEF0AF00500B0
:10150800FA6E6251FD6E6351FE6EF850FF6EFA502E
:101518001200ABA492EF0AF094EF0AF0ACEF0AF0D5
:101528000001648346504710D8B49DEF0AF09FEF3E
:101538000AF0ACEF0AF002D8ACEF0AF00500FA6E38
:101548004650FD6E4750FE6EF850FF6EFA5012007E
:10155800AE50120088C08BF089C08CF0BEEF0AF044
:1015680086C035F087C036F08B0E376E8AC038F0EB
:1015780060EC03F08BC0F6FF8CC0F7FF0800F55055
:101588000009D8A4CAEF0AF0CCEF0AF0B4EF0AF0C9
:10159800000E0001876F000E866F1200000E1F6E8E
:1015A800000E1E6EE3EF0AF01DC011F0126A1BC098
:1015B80013F01CC014F070EC07F01E4A1F2A1A50D2
:1015C8001E24D96EDA6ADF501D6E1D50D8A4EFEFC5
:1015D8000AF0F1EF0AF0D8EF0AF01200898C000E39
:1015E8000C6E000E0B6E0B4A0C2A0C5009E1280EEB
:1015F8000B5CD8A002EF0BF004EF0BF0F7EF0AF04A
:101608000FEC0CF0C00E0124096EF90E02200A6ED0
:1016180085EC0CF0F294899C120000EEA9F012EE11
:1016280000F0EE6AE550E150FCE1E250FAE100EE2C
:1016380060F0260EEE6AE806FDE100EE44F00D0EBD
:10164800EE6AE806FDE151905192000EF86E000135
:1016580028EF00F0480EB86E900EAB6E260EAC6EFA
:10166800820EAF6E060EB06E260E0F6E190E106E3D
:101678002CEC0CF01C0E0F6E190E106E1EEC0CF0FC
:10168800000E0001656F000E646F12008A980D0E3F
:1016980047EC0CF0106E8A881028D8A456EF0BF08F
:1016A80058EF0BF05BEF0BF0FF0E65EF0BF0FF0E42
:1016B80047EC0CF0FF0E47EC0CF0FF0E47EC0CF07B
:1016C80010501200D09EF292F18C000E0F6E000E98
:1016D800106E80EC0CF0F090F18A000E0F6E000E88
:1016E800106E7BEC0CF0F092F188000E0F6E000E7D
:1016F800106E76EC0CF0120016BE85EF0BF087EF3B
:101708000BF08DEF0BF015C015F016C016F099EF21
:101718000BF015C017F016C018F0171E181E174A40
:10172800182A17C015F018C016F012000001A751AA
:10173800A811D8B4A2EF0BF0A4EF0BF0B1EF0BF0A7
:1017480002D8B1EF0BF00500FA6EA751FD6EA85153
:10175800FE6EF850FF6EFA501200F2941200896A79
:101768008A6A400E8B6EBF0E926EE50E936E8F0ED8
:10177800946E800E966E2F0E0F01386F210E396F02
:101788000C0E3A6F6168F00E626EF28612000F6AF4
:101798009EA8D1EF0BF0D3EF0BF0DCEF0BF0ACAA67
:1017A800D8EF0BF0DAEF0BF0DCEF0BF0010E0F6E59
:1017B8000F501200D59CD76AD66A000E496E000EEB
:1017C800486E280E0F6E190E106E71EC0CF0F29424
:1017D800F28A9F0ED56E12008F0E436E000E000126
:1017E800866F000E876F8DC088F08EC089F0430E1B
:1017F8008A6FAEEC0AF01200106ECBEC0BF0000909
:10180800D8B409EF0CF00BEF0CF001EF0CF010500E
:101818008AEC0CF01200D6CF07F0D7CF08F00850AA
:10182800036E0750056E03C006F005C001F006C040
:1018380002F012000F501010D8B425EF0CF027EF6B
:101848000CF02BEF0CF00FC062F010C063F0120028
:101858000F501010D8B433EF0CF035EF0CF039EF0F
:101868000CF00FC046F010C047F0120065EC0CF009
:10187800B3EC0BF0DEEC0BF02EEC0BF05EEC0CF0A6
:1018880066EC0BF012000F6E0FC06FFFA4AE4FEFA7
:101898000CF051EF0CF04AEF0CF0A49E6F501200C0
:1018A8009EBA59EF0CF05CEF0CF0010E5DEF0CF0F6
:1018B800000E1200A39EA49E6D6A6C6A696A6E6A25
:1018C8001200700ED36E040ED26E400E9B6E120084
:1018D8001050D76E0FC0D6FF12000FC0A7F010C06F
:1018E800A8F012000FC04AF010C04BF012000FC051
:1018F8004CF010C04DF012000FC04EF010C04FF069
:1019080012000A50D76E09C0D6FF12000F6E0FC022
:10191800ADFF1200AB98AB8812006C9A120012004F
:021928001200AB
:107A9E00005C160000D4141419A8189617000000E4
:107AAE0000000000000000000000000000000000C8
:107ABE0000000000000000000058183C18000000F4
:107ACE0000BC1800004C1422190000000000008EAB
:107ADE0018000000000000000000000000000A1066
:107AEE007F004001100300640010010020202020C0
:107AFE00436F6E6E656374206F7363696C6C6F7326
:107B0E00636F7065206368616E6E656C20312074E2
:107B1E006F20504943206865616465722070696EFC
:107B2E00205242312028766572746963616C20732D
:107B3E0063616C652032762F646976290D0A002008
:107B4E00202020436F6E6E656374206F7363696CC3
:107B5E006C6F73636F7065206368616E6E656C2009
:107B6E003220746F2050494320686561646572202D
:107B7E0070696E2052423320287665727469636193
:107B8E006C207363616C652032762F646976290DE3
:107B9E000A00303A2046696C6C206561636820707B
:107BAE006167652077697468206964656E746963BE
:107BBE00616C2076616C75652C20696E6372656DE3
:107BCE00656E74206F6E206E6578742070616765C7
:107BDE002E0D0A002D2D2D2D2D2D2D2D2D2D2D2D36
:107BEE002D2D2D20575249544520434F4E5345437A
:107BFE0054555449564520424C4F434B53202D2D3E
:107C0E002D2D2D2D2D2D2D2D2D2D2D2D2D0D0A0006
:107C1E000D0A2D2D2D2D2D2D2D2D2D2D2D2D2D2DC9
:107C2E002D2D2D2D2D2D2D2D2D2D2D2D2D2D2D2D76
:107C3E002D2D2D2D2D2D2D2D2D2D2D2D2D2D2D2D66
:107C4E002D2D2D0D0A002D2D2D2D2D2D2D2D2D2DC6
:107C5E002D2D2D2D2D2D53504920544553542D2D62
:107C6E002D2D2D2D2D2D2D2D2D2D2D2D2D2D2D2D36
:107C7E002D2D2D2D2D2D2D0D0A002D2D2D2D2D2D96
:107C8E002D2D2D2D2D2D2D2D53442043415244208D
:107C9E0054455354532D2D2D2D2D2D2D2D2D2D2D54
:107CAE002D2D2D2D2D2D2D2D2D2D2D0D0A00202080
:107CBE0020205365742074686520686F72697A6F2E
:107CCE006E74616C207363616C6520746F20353047
:107CDE00306E732F6469760D0A00577269746520D1
:107CEE00626C6F636B206F662064656372656D6591
:107CFE006E74656420382D6269742076616C7565CA
:107D0E00733A0D0A00723A20726561642061206236
:107D1E006C6F636B206F66202564206279746573C7
:107D2E002066726F6D20534420636172640D0A00E9
:107D3E00773A207772697465206120626C6F636B8D
:107D4E00206F6620256420627974657320746F201D
:107D5E00534420636172640D0A0050726F62652095
:107D6E0052433420746F2064657465726D696E655C
:107D7E0020777269746520706572696F640D0A00F0
:107D8E0050726F62652052433520746F20646574A3
:107D9E0065726D696E6520777269746520706572A3
:107DAE00696F640D0A00612F41206465637265611D
:107DBE0073652F696E6372656173652072656164A8
:107DCE0020616464726573730D0A00743A207365E2
:107DDE006E64206120546573742063686172616300
:107DEE00746572206F766572205350490D0A0055E6
:107DFE006E646572666C6F77656420746F20686957
:107E0E00676820616464726573730D0A0073656E32
:107E1E00743A202530327820207265636569766564
:107E2E00643A20253032780D0A002020202048693F
:107E3E007420616E79206B6579207768656E20728B
:107E4E00656164790D0A00426C6F636B204C656E40
:107E5E0067746820526573706F6E73653A2025786B
:107E6E000D0A004F766572666C6F77656420746FCD
:107E7E00206C6F7720616464726573730D0A004322
:107E8E004D44302C20526573657420526573706FAB
:107E9E006E73653A2025780D0A002020202054723A
:107EAE006967676572206F6E206368616E6E656CC0
:107EBE0020310D0A00434D44312C20496E69742047
:107ECE00526573706F6E73653A2025780D0A0069DE
:107EDE003A20496E697469616C697A652053442051
:107EEE00636172640D0A007A3A20436C65617220F8
:107EFE00746865207465726D696E616C0D0A002080
:107F0E002020205374617475733A20202020202580
:107F1E003032780D0A005A3A20526573657420701B
:107F2E00726F636573736F720D0A004465637265D9
:107F3E006173656420616464726573730D0A004930
:107F4E006E637265617365642061646472657373D8
:107F5E000D0A00534420636172642061646472658B
:107F6E0073733A2020005344206361726420746559
:107F7E007374696E670D0A00556E6B6E6F776E20A7
:107F8E006B65792025630D0A002020202041646452
:107F9E00726573733A20202020005265616420625E
:107FAE006C6F636B3A200D0A003F3A2068656C7067
:107FBE00206D656E750D0A00696E4C616220303958
:107FCE000D0A004465762732310D0A006F3A096FAB
:107FDE006B0D0A006F3A206B0D0A002530327820A7
:107FEE000025303478000D0A0A002563002E003A71
:027FFE00000081
:020000040030CA
:0E000000FF281F3CFFBF85FF0FC00FE00F4021
:00000001FF
