:0400000036EF00F0E7
:100008000182FACF06F0FBCF07F0D9CF08F0DACF9C
:1000180009F0F3CF0AF0F4CF0BF0F2AC16EF00F0D2
:1000280018EF00F028EF00F0F2AA1DEF00F01FEF24
:1000380000F028EF00F0F2A424EF00F026EF00F023
:1000480028EF00F0C3EC05F00BC0F4FF0AC0F3FF83
:1000580009C0DAFF08C0D9FF07C0FBFF06C0FAFFD6
:1000680001921100A4EF04F00001D16B870ED06F4C
:10007800D36B870ED26FD56B870ED46FF80EC96F0E
:10008800300EC86F070ECC6FD00ECB6FF60ECE6F4A
:10009800000ECD6F3CEC06F02C0E0C6E080E0D6EAB
:1000A800E3EC06F0F28EF28CEE0E2C6E7F0E2D6EC7
:1000B80072EC06F0E10E2C6E7F0E2D6E72EC06F0DF
:1000C800890E2C6E7E0E2D6E72EC06F0B40E2C6E20
:1000D8007F0E2D6E72EC06F0F90E2C6E7F0E2D6ED3
:1000E80072EC06F0CDEC06F00009D8B47EEF00F013
:1000F80080EF00F076EF00F065EC04F00001CA6FC5
:1001080081EF02F08A0E2C6E7D0E2D6E72EC06F0D9
:100118006D0E2C6E7F0E2D6ED0C02EF0D1C02FF03C
:1001280072EC06F0910E2C6E7F0E2D6ED2C02EF062
:10013800D3C02FF072EC06F07F0E2C6E7F0E2D6E62
:10014800D4C02EF0D5C02FF072EC06F08A0E2C6EBB
:100158007D0E2D6E72EC06F0C40E2C6E7F0E2D6E89
:1001680072EC06F00B0E2C6E7F0E2D6E72EC06F004
:10017800150E2C6E7E0E2D6E72EC06F0630E2C6E34
:100188007D0E2D6E72EC06F0120E2C6E7D0E2D6E0D
:1001980072EC06F03B0E2C6E7D0E2D6E72EC06F0A6
:1001A800AB0E2C6E7D0E2D6E72EC06F05B0E2C6E77
:1001B8007F0E2D6E72EC06F0E30E2C6E7C0E2D6E0B
:1001C80072EC06F08A0E2C6E7D0E2D6E72EC06F027
:1001D80076EF00F0CF6BFB0E2C6E7D0E2D6E72EC61
:1001E80006F00001CF2B270ECF65FDEF00F0FFEFE3
:1001F80000F0EFEF00F0FF0076EF00F0CF6BFB0EA2
:100208002C6E7D0E2D6E72EC06F00001CF2B270EA2
:10021800CF6511EF01F013EF01F003EF01F076EF76
:1002280000F0F10ED025FF0ED121800BD8B41FEFBE
:1002380001F021EF01F029EF01F0E10E2C6E7E0EA6
:100248002D6E72EC06F076EF00F0F10ED027FF0E5F
:10025800D123B50E2C6E7E0E2D6E72EC06F0D0C03A
:100268000CF0D1C00DF06FEC05F076EF00F00F0E3A
:10027800D025316E000ED121326E32BE4AEF01F028
:100288003204D8A04AEF01F04CEF01F054EF01F02E
:10029800450E2C6E7E0E2D6E72EC06F076EF00F099
:1002A8000F0ED027000ED123200E2C6E7F0E2D6E40
:1002B80072EC06F033EF01F0F10ED225FF0ED321D8
:1002C800800BD8B46AEF01F06CEF01F074EF01F025
:1002D8005C0E2C6E7E0E2D6E72EC06F076EF00F042
:1002E800F10ED227FF0ED3232D0E2C6E7E0E2D6E0F
:1002F80072EC06F0D2C00CF0D3C00DF053EC05F050
:1003080076EF00F00F0ED225316E000ED321326E3B
:1003180032BE95EF01F03204D8A095EF01F097EFC7
:1003280001F09FEF01F0450E2C6E7E0E2D6E72ECE3
:1003380006F076EF00F00F0ED227000ED3239F0EA3
:100348002C6E7E0E2D6E72EC06F07EEF01F0F10E33
:10035800D425FF0ED521800BD8B4B5EF01F0B7EF47
:1003680001F0BFEF01F0730E2C6E7E0E2D6E72EC55
:1003780006F076EF00F0F10ED427FF0ED523D4C097
:100388000CF0D5C00DF019EC05F076EF00F00F0E6B
:10039800D425316E000ED521326E32BEDAEF01F06F
:1003A8003204D8A0DAEF01F0DCEF01F0E4EF01F05D
:1003B800450E2C6E7E0E2D6E72EC06F076EF00F078
:1003C8000F0ED427000ED523F60E2C6E7E0E2D6E42
:1003D80072EC06F0C3EF01F0CB0E2C6E7E0E2D6E84
:1003E80072EC06F0010E4C6E76EF00F0340E2C6EB7
:1003F8007F0E2D6E72EC06F04C6A76EF00F0D30E8D
:100408002C6E7F0E2D6E72EC06F00001CB51CD5D87
:10041800316ECC51CE59326E200E315C4E0E3258B0
:10042800D8B019EF02F01BEF02F023EF02F0FD0E37
:100438002C6E7D0E2D6E72EC06F076EF00F0CB512F
:10044800CD5FCC51CE5BCDC00CF0CEC00DF0DEEC54
:1004580006F076EF00F0480E2C6E7F0E2D6E72ECD3
:1004680006F00001CB51CD25316ECC51CE21326E34
:100478003150C85D3250C959D8B045EF02F047EF46
:1004880002F04FEF02F0E50E2C6E7D0E2D6E72EC31
:1004980006F076EF00F0CB51CD27CC51CE2327EFD5
:1004A80002F0C90E2C6E7D0E2D6E72EC06F0000E59
:1004B8000001D16FD069000ED36FD269000ED56FDD
:1004C800D469000E0D6E0C686FEC05F0000E0D6E11
:1004D8000C6853EC05F0000E0D6E0C6819EC05F075
:1004E80076EF00F0A30E2C6E7F0E2D6ECAC02EF094
:1004F8002F6A72EC06F076EF00F0CA512B0AD8B4D6
:1005080003EF02F0060AD8B42FEF02F0120AD8B4AB
:1005180086EF00F07D0AD8B4ABEF01F0010AD8B439
:10052800F0EF01F0040AD8B460EF01F0150AD8B46E
:1005380015EF01F0080AD8B4EEEF00F03B0AD8B482
:1005480055EF02F0030AD8B4CBEF01F0010AD8B492
:10055800FAEF01F0040AD8B486EF01F0150AD8B40E
:100568003BEF01F0080AD8B402EF01F076EF02F091
:1005780036EF00F01950D96EDA6ADECFF6FFDDCF1C
:10058800F7FF0800F550250AD8A4CDEF02F0CFEF09
:1005980002F09DEF03F01950D96EDA6ADE2A000ED8
:1005A800DD22346A000E336E33C049F03568366890
:1005B8001950D96EDA6ADECFF6FFDDCFF7FF0800F3
:1005C800F550630AD8A4EBEF02F0EDEF02F008EF64
:1005D80003F01950D96EDA6ADE2A000EDD221A50AD
:1005E800D96EDA6ADF50DF2ADF2AD96EDA6ADF507D
:1005F800246E24C00EF00F6A17C010F018C011F056
:10060800B1EC03F0B0EF03F01950D96EDA6ADECF1F
:1006180022F0DDCF23F022C0F6FF23C0F7FF080049
:10062800F550780AD8A41BEF03F01DEF03F095EFFF
:1006380003F01A50D96EDA6A020EDF26DF5CD96E33
:10064800DA6ADECF1DF0DECF1EF0010E22241B6E0B
:10065800000E23201C6E1950D96EDA6A1BC0DEFF0B
:100668001CC0DDFF89EF03F0200E246E1D500F0B18
:10067800216E0A0E216043EF03F045EF03F049EFC6
:1006880003F0300E21264BEF03F0570E21262406E7
:100698002450A80FD96EDA6A21C0DFFF1D3A1E3A2E
:1006A8000F0E1D161E50F00B1D120F0E1E161D509C
:1006B8001E10D8B462EF03F064EF03F07EEF03F08E
:1006C8002450D8A46AEF03F06CEF03F03AEF03F07C
:1006D8007EEF03F02450A80FD96EDA6ADF501B6E44
:1006E8001B500E6E0F6A17C010F018C011F0B1EC55
:1006F80003F0242A200E2418D8A485EF03F087EFEE
:1007080003F06EEF03F0B0EF03F022C0F6FF23C052
:10071800F7FF0800F550780AD8B438EF03F095EFE2
:1007280003F01950D96EDA6ADE2A000EDD22B0EF26
:1007380003F01950D96EDA6ADECFF6FFDDCFF7FF86
:100748000800F5500E6E0F6A17C010F018C011F0AF
:10075800B1EC03F095EF03F0120010501110D8B46B
:10076800B8EF03F0BAEF03F0C3EF03F01050111025
:10077800D8A4C1EF03F0C3EF03F0C8EF03F00E50A5
:1007880062EC06F015EF04F020EE09F01050D926BF
:100798001150DA22DE50DE10D8B4D5EF03F0D7EFCF
:1007A80003F0F2EF03F020EE09F01050D9261150B3
:1007B800DA2210EE02F01050E1261150E222DE504B
:1007C800E65CE650800A166EDE50800A1658D8B0ED
:1007D800F0EF03F0F2EF03F015EF04F020EE02F073
:1007E8001050D9261150DA22DECF12F0DDCF13F0E7
:1007F80010C0D9FF11C0DAFFDECF14F0DDCF15F03D
:1008080012501424D96E13501520DA6E0EC0DFFF73
:1008180020EE02F01050D9261150DA22DE2A000EFE
:10082800DD2212004C04D8A41CEF04F01EEF04F0E3
:1008380064EF04F039C002F03AC003F0A7EC05F009
:1008480037C002F038C003F08BEC05F04FC002F05F
:1008580050C003F036EC05F04B50020DF3509C0FDE
:10086800D96EDA6ADE503926DD503A224B50020D35
:10087800F350900FD96EDA6ADE503726DD503822F1
:100888004B50020DF350840FD96EDA6ADE504F26B2
:10089800DD5050224A2A4A28D8A455EF04F057EFD1
:1008A80004F064EF04F04A6A040E4B645EEF04F04F
:1008B80060EF04F063EF04F04B6A64EF04F04B2A36
:1008C8001200406A000E3F6EABA26DEF04F06FEFAE
:1008D80004F085EF04F03F843B503C10D8B477EF28
:1008E80004F079EF04F085EF04F002D885EF04F006
:1008F8000500FA6E3B50FD6E3C50FE6EFF6AFA50E2
:100908001200ABA48AEF04F08CEF04F0A2EF04F01D
:100918003F823D503E10D8B494EF04F096EF04F0B7
:10092800A2EF04F002D8A2EF04F00500FA6E3D50E1
:10093800FD6E3E50FE6EFF6AFA501200AE50120075
:10094800A60EF66E090EF76E000EF86E00EE60F059
:1009580010EE48F00900F5CFEEFFE550E150FAE15E
:10096800FA0EF66E0D0EF76E000EF86E0900F5CF52
:100978004FF00900F5CF50F000EEA8F0200EEE6A17
:10098800E806FDE100EE33F01A0EEE6AE806FDE136
:1009980001900192000EF86E000138EF00F0FFFFA1
:1009A800FFFF000000000000FFFF0000FFFFFFFF47
:1009B800FFFF00000000000000000000FFFFFFFF35
:1009C800FFFF0000FFFF0000000001000000010021
:1009D80000000000FFFF0000000000000000010010
:1009E80000000000FFFF27C02AF028C02BF007EF07
:1009F80005F025C017F026C018F02A0E196E29C078
:100A08001AF0BEEC02F02AC0F6FF2BC0F7FF080070
:100A1800F5500009D8A413EF05F015EF05F0FDEF28
:100A280004F0266A000E256E1200FF0E0C16030E47
:100A38000D160CC00EF00DC00FF0D8900F320E320C
:100A4800D8900F320E320E500F015E6F0CC00EF0B0
:100A5800030E0E160E3AF00E0E165D51CF0B0E1049
:100A68005D6F1200FF0E0216030E031602C004F09B
:100A780003C005F0D89005320432D890053204320C
:100A880004500F015E6F02C004F0030E0416043A0E
:100A9800F00E04165D51CF0B04105D6F1200FF0EAF
:100AA8000C16030E0D160CC00EF00DC00FF0D890EA
:100AB8000F320E32D8900F320E320E50676E0CC0C5
:100AC8000EF0030E0E160E3AF00E0E166650CF0BF1
:100AD8000E10666E1200FF0E0C16030E0D160CC0DB
:100AE8000EF00DC00FF0D8900F320E32D8900F32A2
:100AF8000E320E50BE6E0CC00EF0030E0E160E3ADD
:100B0800F00E0E16BD50CF0B0E10BD6E1200FF0E6C
:100B18000216030E031602C004F003C005F0D890B5
:100B280005320432D890053204320450676E02C090
:100B380004F0030E0416043AF00E04166650CF0BA8
:100B48000410666E1200FF0E0216030E031602C092
:100B580004F003C005F0D89005320432D89005326D
:100B680004320450BE6E02C004F0030E0416043AA8
:100B7800F00E0416BD50CF0B0410BD6E120042508B
:100B8800D76E41C0D6FF4D504E10D8B4CEEF05F009
:100B9800D0EF05F0DCEF05F002D8DCEF05F005003A
:100BA800FA6E4D50FD6E4E50FE6EFF6AFA501200FE
:100BB800F2941200D09EF292F18C000E0C6E000E90
:100BC8000D6EF2EC06F0F090F18A000E0C6E000E3D
:100BD8000D6EEDEC06F0F092F188000E0C6E000E32
:100BE8000D6EE8EC06F01200480EB86E900EAB6E73
:100BF800260EAC6E820EAF6E060EB06EFC0E0C6E3C
:100C08000D0E0D6E8FEC06F0F40E0C6E0D0E0D6EC3
:100C180081EC06F0406A000E3F6E1200896A8A6A0B
:100C2800400E8B6E9268DF0E936EB90E946E800E36
:100C3800966E2F0E0F01386F3F0E396F3C0E3A6FCC
:100C48006168F00E626EF28612000C6A9EA82FEFA1
:100C580006F031EF06F03AEF06F0ACAA36EF06F0F0
:100C680038EF06F03AEF06F0010E0C6E0C50120049
:100C7800D7EC06F012EC06F04FEC06F09DEC06F00F
:100C8800C1EC06F0B5EC06F0A9EC06F0F8EC05F0BE
:100C9800DEEC05F01200D59CF60ED76ED66AF60E7D
:100CA800426E000E416EFE0E0C6E0D0E0D6EE3ECE4
:100CB80006F0F294F28A930ED56E12000D6E29ECAE
:100CC80006F00009D8B46BEF06F06DEF06F063EF9D
:100CD80006F00DC00CF0F7EC06F012002E0E306E88
:100CE800000E256E000E266E2CC027F02DC028F0B1
:100CF800300E296EF7EC04F012000C500D10D8B429
:100D080088EF06F08AEF06F08EEF06F00CC03BF095
:100D18000DC03CF012000C500D10D8B496EF06F040
:100D280098EF06F09CEF06F00CC03DF00DC03EF0C9
:100D380012003F0EBB6EBC6A000E0001D66F000E9B
:100D4800D76F9E92060EBA6E12000C0E0F015D6FE1
:100D58005B6B5C6B010E5A6F5F6B5E6B3F0E4917E6
:100D680012000C0E666E646A656A010E636E686A2C
:100D7800676AE70E0F01491712000C0EBD6EB66ABE
:100D8800B76A010EB96EBF6ABE6AFC0E0F01491739
:100D980012009EBAD2EF06F0D5EF06F0010ED6EF9C
:100DA80006F0000E1200700ED36E040ED26E400EC6
:100DB8009B6E12000CC041F00DC042F012000CC036
:100DC8004DF00DC04EF012000CC043F00DC044F0C1
:100DD80012000CC045F00DC046F012000CC047F0E0
:100DE8000DC048F012000CC0ADFF1200AB98AB88E4
:080DF8001200FF0012001200BE
:107CB20000F00B0000CA08EE0D9A0D520C000000F5
:107CC20000000000000000000000000000000000B2
:107CD2000000000000000000001E0D020D00000068
:107CE200002B2F2D3A20696E6372656173652F64D4
:107CF200656372656173652074686520636F6C6F7C
:107D02007220746F75722073706565642E0D0A009F
:107D1200472F673A20696E6372656173652F6465E8
:107D220063726561736520477265656E20696E7462
:107D3200656E736974790D0A00422F623A20696E8A
:107D42006372656173652F64656372656173652033
:107D5200426C756520696E74656E736974790D0A7B
:107D620000522F723A20696E6372656173652F64E7
:107D7200656372656173652052656420696E74651E
:107D82006E736974790D0A002D2D2D2D2D2D2D2D3B
:107D92002D2D2D2D2D2D2D2D2D2D2D2D2D2D2D2D11
:107DA2002D2D2D2D2D2D0D0A00432F633A20737496
:107DB2006172742F73746F7020636F6C6F722063C3
:107DC20079636C650D0A0053657474696E6720618E
:107DD2006C6C206368616E6E656C7320746F20300A
:107DE2000D0A0043616E277420676F20616E79204F
:107DF20066617374657221200D0A0043616E2774F7
:107E020020676F20616E7920736C6F776572212015
:107E12000D0A007A3A20436C65617220746865200D
:107E22007465726D696E616C0D0A00677265656ECC
:107E3200206974206E6F7720627269676874657258
:107E42000D0A0043616E277420676F20616E7920EE
:107E52006461726B6572210D0A00416C7265616426
:107E620079206174204D617820477265656E0D0A34
:107E720000416C7265616479206174204D617820E3
:107E8200424C55450D0A0044657627323120626F17
:107E920061726420776972696E670D0A00677265A4
:107EA200656E206974206E6F77206461726B6572F3
:107EB2000D0A00526564206974206E6F7720627229
:107EC2006967687465720D0A005374617274696E31
:107ED2006720636F6C6F7220746F75720D0A0041B8
:107EE2006C7265616479206174204D6178205265FD
:107EF200640D0A00626C7565206974206E6F7720CC
:107F02006461726B65720D0A005A3A20526573659C
:107F1200742070726F636573736F720D0A0052651D
:107F220064206974206E6F77206461726B65720DD4
:107F32000A00456E64696E6720636F6C6F7220740D
:107F42006F75720D0A005375627472616374696EA3
:107F52006720326D73200D0A00613A20416C6C205B
:107F62004C454473206F66660D0A00202020205283
:107F720065643A202020307825780D0A00202020E0
:107F820020426C7565203A20307825780D0A002051
:107F9200202020477265656E3A20307825780D0AD8
:107FA20000556E6B6E6F776E206B65792025630DC1
:107FB2000A00524332203C2D3E20526564204C453B
:107FC20044003F3A2048656C70206D656E750D0A5D
:107FD20000416464696E6720326D73200D0A0043AC
:107FE2006F6C6F7220437562650D0A00696E4C6199
:0D7FF200622030350D0A000D0A3E2000000F
:020000040030CA
:0E000000FF281F3CFFBF85FF0FC00FE00F4021
:00000001FF
