:04000000FEEF3FF0E0
:10680A0012001200719871881200AB98AB881200BE
:10681A0001C0ADFF120001C05AF002C05BF01200C5
:10682A0001C058F002C059F0120001C06EF002C057
:10683A006FF0120055D015340A1A050D820641036D
:10684A00700ED36E040ED26E400E9B6E12009EBA6C
:10685A0031EF34F034EF34F0010E35EF34F0000E3E
:10686A001200A4BA3BEF34F03EEF34F0010E3FEFD2
:10687A0034F0000E12009EB045EF34F048EF34F0C9
:10688A00010E49EF34F0000E12000C0E666E646AB7
:10689A00656A010E636E686A676AE70E0F01491737
:1068AA001200670EBB6EBC6A000E00019C6F000EE0
:1068BA009D6F9E92050EBA6E120001500210D8B456
:1068CA0069EF34F06BEF34F06FEF34F001C064F02D
:1068DA0002C065F0120001500210D8B477EF34F00C
:1068EA0079EF34F07DEF34F001C062F002C063F05A
:1068FA00120001500210D8B485EF34F087EF34F05B
:10690A008BEF34F001C06AF002C06BF01200015044
:10691A000210D8B493EF34F095EF34F099EF34F0D5
:10692A0001C068F002C069F012003E0E426E000E0D
:10693A00356E000E366E3CC037F03DC038F0420E60
:10694A00396EF5EC35F01200026ECAEC34F000092B
:10695A00D8B4B2EF34F0B4EF34F0AAEF34F002C096
:10696A0001F00DEC34F0120025EC34F0DDEC34F0DB
:10697A00F5EC34F056EC34F04AEC34F041EC35F0F6
:10698A005CEC35F00DEC35F01200016A9EA8D0EFF0
:10699A0034F0D2EF34F0DBEF34F0ACAAD7EF34F0B6
:1069AA00D9EF34F0DBEF34F0010E016E0150120022
:1069BA00896A400E8A6E400E8B6E9268B70E936E8D
:1069CA00BD0E946E800E966E2F0E0F01386F3F0E1D
:1069DA00396F3C0E3A6F6168F00E626EF2861200F1
:1069EA00CD90CF6ACE6ACF50016ECE505C6E01C098
:1069FA005DF0CC6A000E0001A06F000EA16F000EC0
:106A0A009E6F000E9F6F9E90A490050ECD6E120091
:106A1A00D09EF292F18C000E016E000E026E10EC06
:106A2A0034F0F090F18A000E016E000E026E15EC41
:106A3A0034F0F092F188000E016E000E026E1AEC2C
:106A4A0034F0120008BE2CEF35F02EEF35F034EF9B
:106A5A0035F007C007F008C008F040EF35F007C06E
:106A6A0009F008C00AF0091E0A1E094A0A2A09C0C2
:106A7A0007F00AC008F01200480EB86E900EAB6E0E
:106A8A00260EAC6E820EAF6E060EB06E0C0E016E46
:106A9A00680E026E62EC34F0140E016E680E026E1D
:106AAA0070EC34F00001676B000E666F1200480E3E
:106ABA00706E900E716E260E726E140E756E340E16
:106ACA00766E0A0E016E680E026E7EEC34F00E0EC1
:106ADA00016E680E026E8CEC34F000016D6B000ED4
:106AEA006C6F1200FF0E0116030E021601C003F0AE
:106AFA0002C004F0D89004320332D8900432033230
:106B0A000350676E01C003F0030E0316033AF00E3A
:106B1A0003166650CF0B0310666E1200116A000E40
:106B2A00106EA3EF35F00FC003F0046A0DC005F034
:106B3A000EC006F04EEC38F0104A112A0C50102400
:106B4A00D96EDA6ADF500F6E0F50D8A4AFEF35F066
:106B5A00B1EF35F098EF35F012003E0EF66E680E82
:106B6A00F76E000EF86E00EE90F010EE0CF00900D1
:106B7A00F5CFEEFFE550E150FAE100EE60F0300E9D
:106B8A00EE6AE806FDE100EE56F0090EEE6AE80646
:106B9A00FDE1000EF86E00010AEF3BF0CDA4D8EF3C
:106BAA0035F0DAEF35F0F0EF35F0CDB0DFEF35F054
:106BBA00E2EF35F0010EE3EF35F0000E036ECD90F3
:106BCA000250CF6E01C0CEFF03B002D0CD9001D0EB
:106BDA00CD80F4EF35F00250CF6E01C0CEFF120027
:106BEA0037C03AF038C03BF005EF36F035C027F031
:106BFA0036C028F03A0E296E39C02AF0DEEC39F098
:106C0A003AC0F6FF3BC0F7FF0800F5500009D8A4C8
:106C1A0011EF36F013EF36F0FBEF35F0366A000E5F
:106C2A00356E12000001676B000E666FABA220EF93
:106C3A0036F022EF36F038EF36F06685625163118E
:106C4A00D8B42AEF36F02CEF36F038EF36F002D807
:106C5A0038EF36F00500FA6E6251FD6E6351FE6E32
:106C6A00FF6AFA501200ABA43DEF36F03FEF36F060
:106C7A0056EF36F00001668364516511D8B448EFC7
:106C8A0036F04AEF36F056EF36F002D856EF36F0C5
:106C9A000500FA6E6451FD6E6551FE6EFF6AFA5088
:106CAA001200AE50120000016D6B000E6C6F71A2E3
:106CBA0061EF36F063EF36F079EF36F06C856851A4
:106CCA006911D8B46BEF36F06DEF36F079EF36F024
:106CDA0002D879EF36F00500FA6E6851FD6E6951F7
:106CEA00FE6EFF6AFA50120071A47EEF36F080EF52
:106CFA0036F097EF36F000016C836A516B11D8B405
:106D0A0089EF36F08BEF36F097EF36F002D897EF2F
:106D1A0036F00500FA6E6A51FD6E6B51FE6EFF6A1F
:106D2A00FA501200745012005EA09EEF36F0A0EFE7
:106D3A0036F0A8EF36F014C00CF012C00DF013C0F4
:106D4A000EF093EC35F016BEAFEF36F0ADEF36F03D
:106D5A00B2EF36F0166A000E156E196A000E186E3A
:106D6A00C2EF36F0046A200E036E12C005F013C09B
:106D7A0006F04EEC38F0184A192A1550185C1950CA
:106D8A00800A176E1650800A1758D8A0CFEF36F02F
:106D9A00D1EF36F0B7EF36F05EB0D6EF36F0D8EF77
:106DAA0036F0E0EF36F014C00CF012C00DF013C04C
:106DBA000EF093EC35F01200076A000E066E0150D1
:106DCA00D96EDA6ADECFF6FFDDCFF7FF0800F5509D
:106DDA002A0AD8A4F3EF36F0F5EF36F01EEF37F0B3
:106DEA000150D96EDA6ADE2A000EDD220250D96E0F
:106DFA00DA6A020EDF26DF5CD96EDA6ADECF06F0C7
:106E0A00DECF07F031EF37F00A0E0602F3CF03F0B8
:106E1A00F4CF04F00702F350042605500324066E4B
:106E2A00000E0420076E0150D96EDA6ADE2A000EBF
:106E3A00DD220150D96EDA6ADECFF6FFDDCFF7FF29
:106E4A000800F550D00F056E090E05642FEF37F0D4
:106E5A0031EF37F009EF37F006C001F007C002F052
:106E6A001200066A02BE3EEF37F03CEF37F044EFFD
:106E7A0037F0016C021ED8B0022A010E066E04BE5B
:106E8A004BEF37F049EF37F04FEF37F0036C041E42
:106E9A00D8B0042A03500410D8B456EF37F058EF8C
:106EAA0037F07CEF37F0010E056E60EF37F0D890BF
:106EBA0003360436052A04AE65EF37F067EF37F07C
:106ECA005CEF37F00350015C04500258D8A070EF11
:106EDA0037F072EF37F076EF37F00350015E045067
:106EEA00025AD89004320332052E67EF37F0065063
:106EFA00D8B482EF37F084EF37F088EF37F0016CBF
:106F0A00021ED8B0022A01C001F002C002F012002B
:106F1A00066A04BE95EF37F093EF37F09BEF37F030
:106F2A00036C041ED8B0042A010E066E02BEA2EF3C
:106F3A0037F0A0EF37F0A8EF37F0016C021ED8B097
:106F4A00022A010E061A086A000E076E0350041080
:106F5A00D8B4B2EF37F0B4EF37F0DCEF37F0010E08
:106F6A00056EBCEF37F0D89003360436052A04AE16
:106F7A00C1EF37F0C3EF37F0B8EF37F0D8900736E4
:106F8A0008360350015C04500258D8A0CFEF37F0FE
:106F9A00D1EF37F0D6EF37F00350015E0450025AB2
:106FAA000780D89004320332052EC3EF37F006501B
:106FBA00D8B4E2EF37F0E4EF37F0E8EF37F0076CD8
:106FCA00081ED8B0082A07C001F008C002F0120053
:106FDA0056505710D8A4F4EF37F0F6EF37F0FCEF1D
:106FEA0037F056C012F057C013F002EF38F0FF0E18
:106FFA005624126EFF0E5720136E5EA007EF38F06C
:10700A0009EF38F012EF38F00EC003F0046A0CC032
:10701A0005F00DC006F04EEC38F013BE17EF38F04D
:10702A0019EF38F01BEF38F01EEF38F0136A000E34
:10703A00126E116A000E106E2EEF38F0046A200EDE
:10704A00036E0CC005F00DC006F04EEC38F0104A85
:10705A00112A1250105C1150800A0F6E1350800AC8
:10706A000F58D8A03BEF38F03DEF38F023EF38F057
:10707A005EB042EF38F044EF38F04DEF38F00EC012
:10708A0003F0046A0CC005F00DC006F04EEC38F0AF
:10709A00120005500610D8B455EF38F057EF38F003
:1070AA0060EF38F005500610D8A45EEF38F060EFB4
:1070BA0038F065EF38F00350A9EC34F0B2EF38F04D
:1070CA0020EE09F00550D9260650DA22DE50DE10ED
:1070DA00D8B472EF38F074EF38F08FEF38F020EE52
:1070EA0009F00550D9260650DA2210EE02F00550B2
:1070FA00E1260650E222DE50E65CE650800A0B6E7C
:10710A00DE50800A0B58D8B08DEF38F08FEF38F088
:10711A00B2EF38F020EE02F00550D9260650DA22F6
:10712A00DECF07F0DDCF08F005C0D9FF06C0DAFFD1
:10713A00DECF09F0DDCF0AF007500924D96E0850D6
:10714A000A20DA6E03C0DFFF20EE02F00550D926CE
:10715A000650DA22DE2A000EDD221200010E216E0E
:10716A0056C022F057C023F0266A1F0E256E000172
:10717A008F6BEEEF38F02506D8A026061C500F0BB1
:10718A00246E0A0E2460CCEF38F0CEEF38F0D2EF3E
:10719A0038F0300E2426D4EF38F0570E2426255026
:1071AA00700FD96EDA6A24C0DFFF216A2206D8A0DE
:1071BA0023061CC01EF01DC01FF0040E206ED890BE
:1071CA001F321E32202EE4EF38F01EC01CF01FC002
:1071DA001DF026BEFAEF38F0265009E1020E255CB2
:1071EA00D8A0FAEF38F0FCEF38F021EF39F01C5054
:1071FA001D10D8A403EF39F005EF39F0C0EF38F0CD
:10720A002150D8A40BEF39F00DEF39F0C0EF38F068
:10721A0023BE18EF39F0235008E12204D8A018EF52
:10722A0039F01AEF39F021EF39F05EB21FEF39F079
:10723A0021EF39F0C0EF38F01AC012F01BC013F07A
:10724A002550700F146E22C015F023C016F099EC69
:10725A0036F01200010E206E1DBE36EF39F039EFFE
:10726A0039F0010E3AEF39F0000E236E56C021F0C4
:10727A0057C022F02350D8B445EF39F047EF39F020
:10728A005CEF39F02106D8A022062350D8A450EF8B
:10729A0039F052EF39F057EF39F01F6A2B0E1E6E94
:1072AA005AEF39F01F6A2D0E1E6E1EC023F0256A92
:1072BA001F0E246E00018F6B8DEF39F02406D8A0C3
:1072CA0025062450700FD96EDA6A1CC001F01DC061
:1072DA0002F0046A0A0E036E36EC37F001C007F0BA
:1072EA0002C008F027EC35F00750300FDF6E206A35
:1072FA002106D8A022061CC001F01DC002F0046AB3
:10730A000A0E036E8DEC37F001C01CF002C01DF0AE
:10731A0025BE98EF39F0255008E12404D8A098EF4B
:10732A0039F09AEF39F0BFEF39F01C501D10D8A48C
:10733A00A1EF39F0A3EF39F063EF39F02050D8A468
:10734A00A9EF39F0ABEF39F063EF39F022BEB6EFAF
:10735A0039F0225008E12104D8A0B6EF39F0B8EF8D
:10736A0039F0BFEF39F05EB2BDEF39F0BFEF39F057
:10737A0063EF39F02350D8B4C5EF39F0C7EF39F0CD
:10738A00D0EF39F02406D8A025062450700FD96E04
:10739A00DA6A23C0DFFF1AC012F01BC013F02450B0
:1073AA00700F146E21C015F022C016F099EC36F059
:1073BA0012002950D96EDA6ADECFF6FFDDCFF7FF69
:1073CA000800F550250AD8A4EDEF39F0EFEF39F0AF
:1073DA00F6EF3AF02950D96EDA6ADE2A000EDD227B
:1073EA00576A000E566E56C05EF000016069616908
:1073FA002E6A1CEF3AF05E822950D96EDA6ADE2ACA
:10740A00000EDD221CEF3AF0010E2E6E1CEF3AF050
:10741A002950D96EDA6ADECFF6FFDDCFF7FF080012
:10742A00F550300AD8B400EF3AF009EF3AF02E508E
:10743A00D8B422EF3AF024EF3AF00DEF3AF029C02F
:10744A0001F02AC002F0E1EC36F001C056F002C0A9
:10745A0057F057BE35EF3AF033EF3AF03AEF3AF0D9
:10746A005E80566C571ED8B0572A2950D96EDA6AF0
:10747A00DECFF6FFDDCFF7FF0800F550630AD8A488
:10748A0049EF3AF04BEF3AF065EF3AF02950D96EEE
:10749A00DA6ADE2A000EDD222A50D96EDA6ADF5055
:1074AA00DF2ADF2AD96EDA6ADF502D6E27C00CF088
:1074BA0028C00DF02DC00EF0EDEC37F009EF3BF0CF
:1074CA002950D96EDA6ADECF33F0DDCF34F033C01B
:1074DA00F6FF34C0F7FF0800F550640AD8B478EF15
:1074EA003AF07AEF3AF088EF3AF033C0F6FF34C058
:1074FA00F7FF0800F550690AD8A486EF3AF088EF3A
:10750A003AF0ADEF3AF02A50D96EDA6A020EDF2667
:10751A00DF5CD96EDA6ADECF2FF0DECF30F0010EF3
:10752A0033242B6E000E34202C6E2950D96EDA6A61
:10753A002BC0DEFF2CC0DDFF27C01AF028C01BF0CD
:10754A002FC01CF030C01DF02FEC39F009EF3BF0D2
:10755A0033C0F6FF34C0F7FF0800F550780AD8A404
:10756A00B9EF3AF0BBEF3AF0EEEF3AF02A50D96EA3
:10757A00DA6A020EDF26DF5CD96EDA6ADECF2FF016
:10758A00DECF30F0010E33242B6E000E34202C6E29
:10759A002950D96EDA6A2BC0DEFF2CC0DDFFE2EF7C
:1075AA003AF027C01AF028C01BF02FC01CF030C0D8
:1075BA001DF0B3EC38F009EF3BF033C0F6FF34C0EE
:1075CA00F7FF0800F550780AD8B4D6EF3AF0EEEF94
:1075DA003AF02950D96EDA6ADE2A000EDD2209EF66
:1075EA003BF02950D96EDA6ADECFF6FFDDCFF7FF1E
:1075FA000800F550036E046A27C005F028C006F09B
:10760A004EEC38F0EEEF3AF01200010E556E350EE0
:10761A00536E20EE90F010EE45F00B0EDBCFE3FF39
:10762A00E806FCE2B9EC34F0026A000E016E77EC6F
:10763A0035F0026A000E016ED3EC35F09E9040ECF4
:10764A0034F00009D8B42CEF3BF02EEF3BF024EFD6
:10765A003BF036EC34F00009D8B436EF3BF038EFA3
:10766A003BF03AEF3BF058EC36F036EC34F00009D8
:10767A00D8B442EF3BF044EF3BF046EF3BF058EC16
:10768A0036F0DD0E3C6E7F0E3D6E9AEC34F00E0E37
:10769A003C6E7E0E3D6E9AEC34F0A60E3C6E7E0E6B
:1076AA003D6E9AEC34F0CA0E3C6E7C0E3D6E9AEC3E
:1076BA0034F09D0E3C6E7D0E3D6E9AEC34F0F60E63
:1076CA003C6E7F0E3D6E9AEC34F02CEC34F00009DF
:1076DA00D8B472EF3BF074EF3BF06AEF3BF017EC73
:1076EA0036F0516EDEEF3DF0100E3C6E7D0E3D6EB3
:1076FA009AEC34F0B9EF3BF0D20E3C6E7F0E3D6E41
:10770A009AEC34F0D4EF3BF0A20E3C6E7F0E3D6E45
:10771A009AEC34F0D4EF3BF0AE0E3C6E7F0E3D6E29
:10772A009AEC34F0D4EF3BF0C60E3C6E7F0E3D6E01
:10773A009AEC34F0D4EF3BF0BA0E3C6E7F0E3D6EFD
:10774A009AEC34F0D4EF3BF0880E3C6E7F0E3D6E1F
:10775A009AEC34F0D4EF3BF0A20E3C6E7F0E3D6EF5
:10776A009AEC34F0D4EF3BF05550000AD8B481EFCC
:10777A003BF0010AD8B489EF3BF0030AD8B491EF81
:10778A003BF0010AD8B499EF3BF0070AD8B4A1EF4D
:10779A003BF0010AD8B4A9EF3BF0B1EF3BF0100E71
:1077AA003C6E7D0E3D6E9AEC34F06B0E3C6E7F0E95
:1077BA003D6E9AEC34F0EF0E3C6E7F0E3D6E9AEC05
:1077CA0034F0D10E3C6E7E0E3D6E9AEC34F08E0E85
:1077DA003C6E7E0E3D6E9AEC34F0440E3C6E7D0E8D
:1077EA003D6E9AEC34F06F0E3C6E7C0E3D6E555039
:1077FA00020DF350450FD96EDA6ADECF3EF0DDCFC7
:10780A003FF09AEC34F0EC0E3C6E7D0E3D6E53C0A8
:10781A003EF03F6A9AEC34F0C70E3C6E7D0E3D6E28
:10782A009AEC34F0FB0E3C6E7E0E3D6E9AEC34F010
:10783A00100E3C6E7D0E3D6E9AEC34F06AEF3BF012
:10784A00E70E3C6E7F0E3D6E9AEC34F06AEF3BF029
:10785A00546A420E3C6E7D0E3D6E9AEC34F0542A08
:10786A00270E54643BEF3CF03DEF3CF02EEF3CF02A
:10787A00FF006AEF3BF0546A420E3C6E7D0E3D6E8D
:10788A009AEC34F0542A270E54644EEF3CF050EF31
:10789A003CF041EF3CF06AEF3BF0720E3C6E7D0E1D
:1078AA003D6E9AEC34F07A0E3C6E7F0E3D6E9AEC89
:1078BA0034F02F0E3C6E7F0E3D6E9AEC34F03E0E85
:1078CA003C6E7F0E3D6E9AEC34F05C0E3C6E7F0E81
:1078DA003D6E9AEC34F04D0E3C6E7F0E3D6E9AEC86
:1078EA0034F01F0E3C6E7F0E3D6E9AEC34F02CEC99
:1078FA0034F00009D8A484EF3CF086EF3CF07CEF2A
:10790A003CF02CEC34F00009D8B48EEF3CF090EF48
:10791A003CF086EF3CF017EC36F0D00F556EBAEF1C
:10792A003CF0D00E766E540E756ED5EF3CF0340EE8
:10793A00766E140E756ED5EF3CF01A0E766E0A0E40
:10794A00756ED5EF3CF00D0E766E050E756ED5EFA1
:10795A003CF0060E766E820E756ED5EF3CF0030E85
:10796A00766E400E756ED5EF3CF05550000AD8B4CD
:10797A0096EF3CF0010AD8B49CEF3CF0030AD8B465
:10798A00A2EF3CF0010AD8B4A8EF3CF0070AD8B439
:10799A00AEEF3CF0010AD8B4B4EF3CF09CEF3CF0F7
:1079AA006F0E3C6E7E0E3D6E76CF3EF03F6A75CF0F
:1079BA0040F0416A9AEC34F06AEF3BF0026A190E21
:1079CA00016E77EC35F05550020DF350450FD96E24
:1079DA00DA6ADECF43F0DDCF44F043500008016E8F
:1079EA004450D8A0E82A0008026ED3EC35F09E90E5
:1079FA0040EC34F00009D8B405EF3DF007EF3DF054
:107A0A00FDEF3CF0026A000E016E77EC35F0950E40
:107A1A003C6E7F0E3D6E9AEC34F06AEF3BF0026AE0
:107A2A00190E016E77EC35F05550020DF350450FE3
:107A3A00D96EDA6ADECF43F0DDCF44F04350000856
:107A4A00016E4450D8A0E82A0008026ED3EC35F043
:107A5A009E9040EC34F00009D8B436EF3DF038EF90
:107A6A003DF02EEF3DF0010E526E74EF3DF0535093
:107A7A0052140009D8B444EF3DF046EF3DF04DEF03
:107A8A003DF0026A000E016E77EC35F052EF3DF0E0
:107A9A00026A190E016E77EC35F052505224526E7A
:107AAA005550020DF350450FD96EDA6ADECF43F016
:107ABA00DDCF44F043500008016E4450D8A0E82AB4
:107ACA000008026ED3EC35F09E9040EC34F00009C9
:107ADA00D8B472EF3DF074EF3DF06AEF3DF05250CA
:107AEA00D8A47AEF3DF07CEF3DF03CEF3DF0026A1E
:107AFA00000E016E77EC35F05550020DF350450F2C
:107B0A00D96EDA6ADECF43F0DDCF44F04350000885
:107B1A00016E4450D8A0E82A0008026ED3EC35F072
:107B2A009E9040EC34F00009D8B49EEF3DF0A0EFEF
:107B3A003DF096EF3DF0E60E3C6E7E0E3D6E53C074
:107B4A003EF03F6A53C040F0416A9AEC34F0532A3F
:107B5A006AEF3BF0A4AAB4EF3DF0B6EF3DF0C1EFF7
:107B6A003DF0500E3C6E7E0E3D6E74CF3EF03F6A85
:107B7A009AEC34F06AEF3BF0300E3C6E7E0E3D6EAE
:107B8A009AEC34F06AEF3BF071987188BC0E3C6E47
:107B9A007E0E3D6E9AEC34F06AEF3BF00E0E3C6EB0
:107BAA007F0E3D6E51C03EF03F6A9AEC34F06AEFA8
:107BBA003BF051503F0AD8B479EF3BF06D0AD8B484
:107BCA00AFEF3DF0010AD8B414EF3DF0090AD8B47A
:107BDA002DEF3CF0380AD8B452EF3CF00D0AD8B475
:107BEA0025EF3CF01F0AD8B4E3EF3CF0020AD8B400
:107BFA00C9EF3DF0080AD8B440EF3CF0D3EF3DF0AE
:107C0A00FEEF3FF000826A00002E6C1A68586894F2
:107C1A0069000000000000000000000000000000F1
:107C2A0000000000000000000000000000C468E03E
:107C3A006800000000B86A0000B06C00006C6800C0
:107C4A00000000000000000000000000000000002A
:107C5A0000000000000000000000000000FC68189E
:107C6A006900000000703A2073656E64203120704C
:107C7A00756C7365206F662033386B487A204952D9
:107C8A0020696C6C756D696E6174696F6E207769B5
:107C9A0074682061206475726174696F6E206F6602
:107CAA0020256420313A31207072657363616C65F6
:107CBA006420544D523120636F756E74730D0A003F
:107CCA00496E7374616C6C2061206A756D7065729F
:107CDA0020776972652066726F6D20524330207476
:107CEA006F20524237204F4E4C592041465445523C
:107CFA0020756E706C756767696E67205049434BD3
:107D0A006974330D0A002D2D2D2D2D2D2D2D2D2D80
:107D1A002D2D2D2D2D2D2D2D2D2D2D2D2D2D2D2D89
:107D2A002D2D2D2D2D2D2D2D2D2D2D2D2D2D2D2D79
:107D3A002D2D2D2D2D2D2D0D0A00623A20736574DF
:107D4A002074686520426175642072617465206FD1
:107D5A0066207468652073656E7420636861726159
:107D6A0063746572730D0A0043686F6F73652074DC
:107D7A00686520696E646578206F6620746865207E
:107D8A0074617267657420626175642072617465DA
:107D9A000D0A00496E7374616C6C2061206A756DFE
:107DAA00706572206F7665722049525F5458206858
:107DBA0065616465722070696E730D0A00523A201B
:107DCA00757365204555534152543220746F2064AF
:107DDA0065636F6465206368617261637465720DBF
:107DEA000A00533A2053656E64202563207573692F
:107DFA006E67204952207472616E736D697474657E
:107E0A00720D0A005265636569766520616E6420A9
:107E1A006465636F646520616E20495220706163F6
:107E2A006B65740D0A004E6F7468696E672072651F
:107E3A006365697665642066726F6D2045555341A6
:107E4A005254320D0A004A757374207265616420B7
:107E5A00696E2025632066726F6D20455553415225
:107E6A0054320D0A004261756420726174652061A2
:107E7A00737369676E656420253032783A2530322B
:107E8A00780D0A007A3A20436C656172207468653D
:107E9A00207465726D696E616C0D0A0044657627FF
:107EAA00323120426F61726420776972696E670DA0
:107EBA000A004A75737420726573657420455553B8
:107ECA00415254320D0A005A3A20526573657420A1
:107EDA0070726F636573736F720D0A006A757374DB
:107EEA002073656E742025632020202025780D0AD2
:107EFA0000723A2072657365742045555341525495
:107F0A00320D0A00556E6B6E6F776E206B657920A5
:107F1A0025630D0A00353A2031393230302062614A
:107F2A0075640D0A00313A203132303020626175B1
:107F3A00640D0A00323A20323430302062617564AE
:107F4A000D0A00343A203936303020626175640DEA
:107F5A000A00333A203438303020626175640D0AE1
:107F6A00003F3A2068656C70206D656E750D0A00D9
:107F7A00303A2033303020626175640D0A0031399D
:107F8A0032303020426175640D0A0050756C736599
:107F9A002073656E740D0A003132303020426175EB
:107FAA00640D0A003234303020426175640D0A00D3
:107FBA003936303020426175640D0A003438303069
:107FCA0020426175640D0A003330302042617564C5
:107FDA000D0A00696E4C616220360D0A006F3A097B
:107FEA006F6B0D0A006F3A206B0D0A000D0A3E20D6
:067FFA000000B2EF35F0BB
:020000040030CA
:0E000000FF281F3CFFBF85FF0FC00FE00F4021
:00000001FF
