:040000002EEF00F0EF
:100008000182FACF0EF0FBCF0FF0D9CF10F0DACF84
:1000180011F0F2AC12EF00F014EF00F024EF00F052
:10002800F2AA19EF00F01BEF00F024EF00F0F2A4A1
:1000380020EF00F022EF00F024EF00F0C3EC0EF008
:1000480011C0DAFF10C0D9FF0FC0FBFF0EC0FAFFC6
:100058000192110098EF0DF0000E00018A6F000E5A
:100068008B6F000E8C6F000E8D6F1FEC0FF08A885F
:10007800136A000E126E7DEC0FF0F294F2A447EFB3
:1000880000F049EF00F042EF00F04E0E126E190E2C
:10009800136E82EC0FF0F28EF28CC00E00016D6FC1
:1000A800FF0E6E6FFFEC0EF0500E00016D6FFF0E2D
:1000B8006E6FFFEC0EF0CB0E00016D6FFF0E6E6FD2
:1000C800FFEC0EF0A1EC0FF0010E126E10EC0CF02C
:1000D80065EC0FF00009D8B474EF00F076EF00F08B
:1000E8006CEF00F0ECEC0CF00001876F9AEF04F075
:1000F8006F0E6D6FFB0E6E6FFFEC0EF02B0E000196
:100108006D6FFF0E6E6FFFEC0EF0EE0E00016D6F5F
:10011800FF0E6E6F8CC06FF08DC070F0716B726BDC
:10012800FFEC0EF0FC0E00016D6FFF0E6E6FFFEC22
:100138000EF0EE0E00016D6FFF0E6E6FFF0E8A154A
:100148006F6FFF0E8B15706F000E8C15716F000EA0
:100158008D15726FFFEC0EF0390E00016D6FFC0EFD
:100168006E6FFFEC0EF0710E00016D6FFB0E6E6F7F
:10017800FFEC0EF0A30E00016D6FFF0E6E6FFFEC2B
:100188000EF0DC0E00016D6FFF0E6E6FFFEC0EF0CF
:10019800EE0E00016D6FFE0E6E6FFFEC0EF0BF0EDF
:1001A80000016D6FFE0E6E6FFFEC0EF0710E000118
:1001B8006D6FFB0E6E6FFFEC0EF0A70E00016D6FFA
:1001C800FE0E6E6FFFEC0EF0710E00016D6FFB0EF0
:1001D8006E6FFFEC0EF0610E00016D6FFD0E6E6F1D
:1001E800FFEC0EF0C10E00016D6FFC0E6E6F020E7B
:1001F800706F000E6F6FFFEC0EF0A50E00016D6FB3
:10020800FB0E6E6FFFEC0EF0710E00016D6FFB0EB2
:100218006E6FFFEC0EF0D90E00016D6FFB0E6E6F66
:10022800FFEC0EF06A0E00016D6FFC0E6E6FFFECB6
:100238000EF0860E00016D6FFD0E6E6FFFEC0EF076
:10024800710E00016D6FFB0E6E6FFFEC0EF06CEF20
:1002580000F0D40E6D6FFF0E6E6FFFEC0EF06CEFBA
:1002680000F0896B000E886FF50E6D6FFF0E6E6FD4
:10027800FFEC0EF00001884B892B895109E1280E0B
:10028800885DD8A04AEF01F04CEF01F038EF01F09B
:10029800FF006CEF00F0896B000E886FF50E6D6F34
:1002A800FF0E6E6FFFEC0EF00001884B892B895111
:1002B80009E1280E885DD8A064EF01F066EF01F02F
:1002C80052EF01F06CEF00F0A1EC0FF0010E126E8E
:1002D80010EC0CF0010E22EC07F06CEF00F0610E50
:1002E8008719D8A47AEF01F07CEF01F0A6EF01F0AE
:1002F800000E8A5F020E8B5B000E8C5B000E8D5B1E
:10030800040E8D5DD8A08BEF01F08DEF01F09EEF0C
:1003180001F0E60E6D6FFD0E6E6FFFEC0EF0000E35
:1003280000018A6FFE0E8B6FFF0E8C6F030E8D6FB0
:10033800CEEF01F0030E6D6FFF0E6E6FFFEC0EF047
:10034800CEEF01F0000E8A27020E8B23000E8C23BD
:10035800000E8D23040E8D5DD8A0B5EF01F0B7EF28
:1003680001F0C8EF01F03D0E6D6FFE0E6E6FFFECF1
:100378000EF0000E00018A6F000E8B6F000E8C6F5E
:10038800000E8D6FCEEF01F0170E6D6FFF0E6E6FC2
:10039800FFEC0EF02B0E00016D6FFF0E6E6FFFEC81
:1003A8000EF0EE0E00016D6FFF0E6E6F8CC06FF0D9
:1003B8008DC070F0716B726BFFEC0EF0FC0E0001DB
:1003C8006D6FFF0E6E6FFFEC0EF0EE0E00016D6F9D
:1003D800FF0E6E6FFF0E8A156F6FFF0E8B15706F15
:1003E800000E8C15716F000E8D15726FFFEC0EF0FC
:1003F800390E00016D6FFC0E6E6FFFEC0EF06CEFA6
:1004080000F0150E6D6FFD0E6E6FFFEC0EF0000123
:10041800896B000E886FC10E8825D96E040E89215C
:10042800DA6E8851FF0ADF6E884B892B020E895DD0
:10043800D8A021EF02F023EF02F00FEF02F08B8833
:100448008AC013F08BC014F08CC015F08DC016F064
:10045800C10E176E040E186EBDEC0BF005EC0EF015
:100468000001816F8129D8B43CEF02F03EEF02F021
:1004780032EF02F08B98960E6D6FFC0E6E6FFFECEC
:100488000EF0730E00016D6FFF0E6E6FFFEC0EF035
:10049800EE0E00016D6FFF0E6E6F8CC06FF08DC099
:1004A80070F0716B726BFFEC0EF0FC0E00016D6F5B
:1004B800FF0E6E6FFFEC0EF0EE0E00016D6FFF0E7B
:1004C8006E6FFF0E8A156F6FFF0E8B15706F000E23
:1004D8008C15716F000E8D15726FFFEC0EF0390ED2
:1004E80000016D6FFC0E6E6FFFEC0EF0D70E000171
:1004F8006D6FFE0E6E6F81C06FF0706BFFEC0EF0CB
:100508006CEF00F03B0E6D6FFD0E6E6FFFEC0EF0A2
:100518008B8A8AC013F08BC014F08CC015F08DC084
:1005280016F0C10E176E040E186EB7EC0AF08B9A0F
:10053800940E00016D6FFF0E6E6FFFEC0EF0730EE0
:1005480000016D6FFF0E6E6FFFEC0EF0EE0E0001F6
:100558006D6FFF0E6E6F8CC06FF08DC070F0716B99
:10056800726BFFEC0EF0FC0E00016D6FFF0E6E6FEC
:10057800FFEC0EF0EE0E00016D6FFF0E6E6FFF0EBA
:100588008A156F6FFF0E8B15706F000E8C15716FCB
:10059800000E8D15726FFFEC0EF0390E00016D6FB5
:1005A800FC0E6E6FFFEC0EF0C10E0001736F040EAF
:1005B800746F2DEC06F06CEF00F0846B866B866B25
:1005C8007F0E8665EAEF02F0ECEF02F0EEEF02F044
:1005D80012EF03F0826BF70E8425F66EF76AF90EB8
:1005E800F722F86A000EF822C10E8225D96EDA6A5F
:1005F800020EDA220800F5CFDFFF010E8425126E05
:10060800136A000E1322156A1A0E146E66EC0BF0AC
:1006180012500001846F822BEFEF02F0C60E6D6F4F
:10062800FD0E6E6F86C06FF0706BFFEC0EF06CEF16
:1006380000F02B0E8719D8A424EF03F026EF03F05F
:100648002CEF03F0A00EBF27000EC0236CEF00F0C4
:10065800600EBF257D6FFF0EC0217E6F400E7D5D51
:10066800010E7E59D8A03BEF03F03DEF03F043EFB6
:1006780003F0A00EBF5F000EC05B6CEF00F0EC0E45
:100688006D6FFC0E6E6FFFEC0EF06CEF00F0200E3D
:100698006D6FFA0E6E6FFFEC0EF065EC0FF000094F
:1006A800D8B459EF03F05BEF03F051EF03F000010A
:1006B800936B000E926F916B000E906F010E986F06
:1006C80000019805D8B46BEF03F06DEF03F064EF09
:1006D80003F08AC013F08BC014F08CC015F08DC0E5
:1006E80016F0C10E176E020E186EBDEC0BF0000E60
:1006F80000018A27020E8B23000E8C23000E8D2307
:10070800040E8D5DD8A08BEF03F08DEF03F095EF0D
:1007180003F0000E8A6F000E8B6F000E8C6F000EB8
:100728008D6F020E9819D8B49CEF03F09EEF03F07A
:1007380095EF03F08AC013F08BC014F08CC015F04D
:100748008DC016F0C10E176E000E186EBDEC0BF0C2
:10075800000E00018A27020E8B23000E8C23000E48
:100768008D23040E8D5DD8A0BCEF03F0BEEF03F01F
:10077800C6EF03F0000E8A6F000E8B6F000E8C6FB1
:10078800000E8D6F65EC0FF00009D8B4CEEF03F0C2
:10079800D0EF03F064EF03F0ECEC0CF000017F6F96
:1007A800986B6CEF00F0FB0E6D6FFA0E6E6FFFEC3E
:1007B8000EF0B70E00016D6FFA0E6E6FFFEC0EF0C3
:1007C800350E00016D6FFB0E6E6FFFEC0EF0040E20
:1007D80000016D6FFE0E6E6FFFEC0EF03E0E000115
:1007E8006D6FFF0E6E6FFFEC0EF03C0E00016D6F2B
:1007F800FC0E6E6FFFEC0EF06E0E00016D6FFA0EC0
:100808006E6FFFEC0EF0B20E00016D6FFF0E6E6F93
:10081800FFEC0EF08E0E00016D6FFE0E6E6FFFEC9A
:100828000EF065EC0FF00009D8B41DEF04F01FEFCF
:1008380004F015EF04F0ECEC0CF00001806F856B10
:100848007F0E85652AEF04F02CEF04F02EEF04F0FC
:1008580064EF04F08AC013F08BC014F08CC015F05C
:100868008DC016F0C10E176E040E186EB7EC0AF0A4
:10087800000E00018A27020E8B23000E8C23000E27
:100888008D23040E8D5DD8A04CEF04F04EEF04F0DC
:100898004EEF04F0836BE90E6D6FFF0E6E6FC10EA5
:1008A8008325D96EDA6A040EDA22DF507D6F7D5116
:1008B8006F6F706BFFEC0EF00001832B4FEF04F0AD
:1008C8000B0E6D6FFC0E6E6FFFEC0EF0350E000117
:1008D8006D6FFB0E6E6FFFEC0EF0040E00016D6F76
:1008E800FE0E6E6FFFEC0EF03E0E00016D6FFF0EF8
:1008F8006E6FFFEC0EF0A60E00016D6FFD0E6E6FB1
:10090800FFEC0EF0840E00016D6FFF0E6E6FFFECB2
:100918000EF06CEF00F0620E6D6FFF0E6E6F87C009
:100928006FF0706BFFEC0EF06CEF00F087512B0A44
:10093800D8B41DEF03F0060AD8B41DEF03F01C0A63
:10094800D8B4E1EF02F00E0AD8B47CEF00F07E0ACA
:10095800D8B473EF01F0160AD8B44BEF03F00D0AC0
:10096800D8B435EF01F03B0AD8B473EF01F0080AA8
:10097800D8B468EF01F0060AD8B42DEF01F01D0ACB
:10098800D8B486EF02F0010AD8B4D7EF03F0040A0E
:10099800D8B405EF02F00D0AD8B44FEF01F08FEF8D
:1009A80004F02EEF00F03A50D96EDA6ADECFF6FF87
:1009B800DDCFF7FFF86A0800F550250AD8A4E7EF5D
:1009C80004F0E9EF04F018EF06F03A50D96EDA6A4D
:1009D800DE2A000EDD22426A000E416E41C04FF051
:1009E80000018E698F69616B17EF05F04F823A50ED
:1009F800D96EDA6ADE2A000EDD2217EF05F0010E45
:100A0800616F17EF05F03A50D96EDA6ADECFF6FF5C
:100A1800DDCFF7FFF86A0800F550300AD8B4FAEFCE
:100A280004F003EF05F06151D8B41DEF05F01FEF96
:100A380005F007EF05F03AC012F03BC013F00FECD9
:100A48000BF012C041F013C042F042BE30EF05F087
:100A58002EEF05F035EF05F04F80416C421ED8B0FF
:100A6800422A3A50D96EDA6ADECFF6FFDDCFF7FFB9
:100A7800F86A0800F550630AD8A445EF05F047EF77
:100A880005F062EF05F03A50D96EDA6ADE2A000EF8
:100A9800DD223B50D96EDA6ADF50DF2ADF2AD96EB1
:100AA800DA6ADF500001606F38C01DF039C01EF0EF
:100AB80060C01FF0F6EC09F02CEF06F03A50D96E42
:100AC800DA6ADECF66F0DDCF67F066C0F6FF67C092
:100AD800F7FFF86A0800F550640AD8B476EF05F015
:100AE80078EF05F087EF05F066C0F6FF67C0F7FFFF
:100AF800F86A0800F550690AD8A485EF05F087EF71
:100B080005F0ADEF05F03B50D96EDA6A020EDF262C
:100B1800DF5CD96EDA6ADECF62F0DECF63F0010EF9
:100B2800000166253C6E000E67213D6E3A50D96E75
:100B3800DA6A3CC0DEFF3DC0DDFF38C02BF039C0AB
:100B48002CF062C02DF063C02EF0F9EC07F02CEF0A
:100B580006F066C0F6FF67C0F7FFF86A0800F550B0
:100B6800780AD8B4BAEF05F0BCEF05F0CBEF05F082
:100B780066C0F6FF67C0F7FFF86A0800F550750A07
:100B8800D8A4C9EF05F0CBEF05F010EF06F03B5005
:100B9800D96EDA6A020EDF26DF5CD96EDA6ADECF3A
:100BA80062F0DECF63F0010E000166253C6E000E98
:100BB80067213D6E3A50D96EDA6A3CC0DEFF3DC00F
:100BC800DDFFFFEF05F038C02BF039C02CF062C014
:100BD8002DF063C02EF024EC09F02CEF06F038C09D
:100BE8002BF039C02CF062C02DF063C02EF0A8ECB9
:100BF80008F02CEF06F066C0F6FF67C0F7FFF86A4A
:100C08000800F550750AD8B4E7EF05F00D0AD8B416
:100C1800F3EF05F010EF06F03A50D96EDA6ADE2AE3
:100C2800000EDD222CEF06F03A50D96EDA6ADECFDC
:100C3800F6FFDDCFF7FFF86A0800F550146E156A65
:100C480038C016F039C017F091EC09F010EF06F033
:100C58001200F30E00016D6FFF0E6E6FFFEC0EF0C9
:100C680000017C6B000E7B6F7B517C11D8B43FEF89
:100C780006F041EF06F056EF06F0070E7B15756F8C
:100C8800000E7C15766F75517611D8A44EEF06F0DC
:100C980050EF06F056EF06F0820E6D6FFF0E6E6F86
:100CA800FFEC0EF000017B517C11D8B45EEF06F02A
:100CB80060EF06F0B9EF06F00F0E7B15756F000EAA
:100CC8007C15766F75517611D8A46DEF06F06FEF2D
:100CD80006F0B9EF06F0810E6D6FFF0E6E6FFFEC38
:100CE8000EF0F00E00017B25776FFF0E7C21786FE8
:100CF800A8EF06F077517325D96E78517421DA6E12
:100D0800200EDF608AEF06F08CEF06F094EF06F015
:100D1800FA0E6D6FFF0E6E6FFFEC0EF0A5EF06F08A
:100D2800F70E6D6FFF0E6E6F77517325D96E785180
:100D38007421DA6EDF50756F75516F6F706BFFEC51
:100D48000EF00001774B782B7B51775D7C517859F9
:100D5800D8A0B1EF06F0B3EF06F07EEF06F0390E3B
:100D68006D6FFC0E6E6FFFEC0EF0E30E00016D6F01
:100D7800FF0E6E6F7B517325D96E7C517421DA6E2C
:100D8800DF50756F75516F6F706BFFEC0EF00001DF
:100D98007B4B7C2B020E7C5DD8A0D5EF06F0D7EFFD
:100DA80006F038EF06F0800E6D6FFF0E6E6FFFECE9
:100DB8000EF0F00E00017B25796FFF0E7C217A6F13
:100DC80010EF07F079517325D96E7A517421DA6ED4
:100DD800200EDF60F2EF06F0F4EF06F0FCEF06F00D
:100DE800FA0E6D6FFF0E6E6FFFEC0EF00DEF07F051
:100DF800F70E6D6FFF0E6E6F79517325D96E7A51AC
:100E08007421DA6EDF50756F75516F6F706BFFEC80
:100E18000EF00001794B7A2B7B51795D7C517A5920
:100E2800D8A019EF07F01BEF07F0E6EF06F0390E30
:100E38006D6FFC0E6E6FFFEC0EF012000001756F07
:100E48000001746B000E736FFF0E126E59EC0FF0F9
:100E58000001734B742B74BF3BEF07F0745109E129
:100E68000A0E735DD8A03BEF07F03DEF07F028EFBF
:100E780007F08A98FF0E126E59EC0FF0400E126EB2
:100E880059EC0FF0000E126E59EC0FF0000E126EB6
:100E980059EC0FF0000E126E59EC0FF0000E126EA6
:100EA80059EC0FF0950E126E59EC0FF0FF0E126E02
:100EB80059EC0FF0FF0E126E59EC0FF00001766F2F
:100EC8008A887505D8A46BEF07F06DEF07F076EF09
:100ED80007F0590E6D6FFE0E6E6F76C06FF0706B77
:100EE800FFEC0EF08A98FF0E126E59EC0FF0410ECF
:100EF800126E59EC0FF0000E126E59EC0FF0000E46
:100F0800126E59EC0FF0000E126E59EC0FF0000E35
:100F1800126E59EC0FF0FF0E126E59EC0FF0FF0E27
:100F2800126E59EC0FF0FF0E126E59EC0FF0000123
:100F3800766F8A887651D8A4A4EF07F0A6EF07F059
:100F480076EF07F07505D8A4ACEF07F0AEEF07F021
:100F5800B7EF07F0740E6D6FFE0E6E6F76C06FF010
:100F6800706BFFEC0EF08A98FF0E126E59EC0FF0C2
:100F7800500E126E59EC0FF0000E126E59EC0FF075
:100F8800000E126E59EC0FF0020E126E59EC0FF0B3
:100F9800000E126E59EC0FF0FF0E126E59EC0FF0A6
:100FA800FF0E126E59EC0FF0FF0E126E59EC0FF097
:100FB8000001766F8A887629D8B4E5EF07F0E7EF65
:100FC80007F0B7EF07F07505D8A4EDEF07F0EFEFDE
:100FD80007F0F8EF07F0210E6D6FFE0E6E6F76C00A
:100FE8006FF0706BFFEC0EF01200010E316E2EBE2A
:100FF80000EF08F003EF08F0010E04EF08F0000E10
:10100800346E41C032F042C033F03450D8B40FEFE0
:1010180008F011EF08F026EF08F03206D8A03306E2
:101028003450D8A41AEF08F01CEF08F021EF08F0AC
:10103800306A2B0E2F6E24EF08F0306A2D0E2F6EBB
:101048002FC034F0366A1F0E356E0001B86B57EFAB
:1010580008F03506D8A036063550990FD96EDA6AE9
:101068002DC012F02EC013F0156A0A0E146E66EC2D
:101078000BF012C018F013C019F079EC0EF01850EC
:10108800300FDF6E316A3206D8A033062DC012F059
:101098002EC013F0156A0A0E146E57EC0AF012C02F
:1010A8002DF013C02EF036BE62EF08F0365008E17E
:1010B8003504D8A062EF08F064EF08F089EF08F073
:1010C8002D502E10D8A46BEF08F06DEF08F02DEF1F
:1010D80008F03150D8A473EF08F075EF08F02DEF41
:1010E80008F033BE80EF08F0335008E13204D8A08E
:1010F80080EF08F082EF08F089EF08F04FB287EF31
:1011080008F089EF08F02DEF08F03450D8B48FEFCD
:1011180008F091EF08F09AEF08F03506D8A03606E7
:101128003550990FD96EDA6A34C0DFFF2BC023F02F
:101138002CC024F03550990F256E32C026F033C0EC
:1011480027F05FEC0CF01200010E326E41C033F054
:1011580042C034F0376A1F0E366E0001B86BE3EFF9
:1011680008F03606D8A037062D500F0B356E0A0E3C
:101178003560C1EF08F0C3EF08F0C7EF08F0300E94
:101188003526C9EF08F0570E35263650990FD96E17
:10119800DA6A35C0DFFF326A3306D8A034062DC0BC
:1011A8002FF02EC030F0040E316ED89030322F322E
:1011B800312ED9EF08F02FC02DF030C02EF037BEF9
:1011C800EFEF08F0375009E1020E365CD8A0EFEFD8
:1011D80008F0F1EF08F016EF09F02D502E10D8A402
:1011E800F8EF08F0FAEF08F0B5EF08F03250D8A49D
:1011F80000EF09F002EF09F0B5EF08F034BE0DEF8B
:1012080009F0345008E13304D8A00DEF09F00FEFCE
:1012180009F016EF09F04FB214EF09F016EF09F0D4
:10122800B5EF08F02BC023F02CC024F03650990FEE
:10123800256E33C026F034C027F05FEC0CF01200A6
:10124800010E2F6E41C030F042C031F0336A1F0EDC
:10125800326E0001B86B55EF09F03206D8A033069C
:101268003250990FD96EDA6A2DC012F02EC013F0E1
:10127800156A0A0E146E66EC0DF01250300FDF6E10
:101288002F6A3006D8A031062DC012F02EC013F0F8
:10129800156A0A0E146E2DEC0DF012C02DF013C055
:1012A8002EF032503310D8B45CEF09F05EEF09F03D
:1012B80083EF09F02D502E10D8A465EF09F067EFE1
:1012C80009F031EF09F02F50D8A46DEF09F06FEF56
:1012D80009F031EF09F031BE7AEF09F0315008E139
:1012E8003004D8A07AEF09F07CEF09F083EF09F019
:1012F8004FB281EF09F083EF09F031EF09F02BC00D
:1013080023F02CC024F03250990F256E30C026F0FF
:1013180031C027F05FEC0CF0120016501710D8B44B
:1013280098EF09F09AEF09F0A3EF09F0165017109B
:10133800D8A4A1EF09F0A3EF09F0A8EF09F0145021
:101348000FEC0FF0F5EF09F020EE09F01650D92652
:101358001750DA22DE50DE10D8B4B5EF09F0B7EF37
:1013680009F0D2EF09F020EE09F01650D9261750EF
:10137800DA2210EE02F01650E1261750E222DE5073
:10138800E65CE650800A1C6EDE50800A1C58D8B015
:10139800D0EF09F0D2EF09F0F5EF09F020EE02F0F6
:1013A8001650D9261750DA22DECF18F0DDCF19F003
:1013B80016C0D9FF17C0DAFFDECF1AF0DDCF1BF059
:1013C80018501A24D96E19501B20DA6E14C0DFFF8A
:1013D80020EE02F01650D9261750DA22DE2A000E27
:1013E800DD22120041504210D8A4FDEF09F0FFEFB2
:1013F80009F005EF0AF041C023F042C024F00BEFDA
:101408000AF0FF0E4124236EFF0E4220246E4FA0E7
:1014180010EF0AF012EF0AF01BEF0AF01FC014F0E9
:10142800156A1DC016F01EC017F091EC09F024BE15
:1014380020EF0AF022EF0AF024EF0AF027EF0AF073
:10144800246A000E236E226A000E216E37EF0AF01E
:10145800156A200E146E1DC016F01EC017F091EC10
:1014680009F0214A222A2350215C2250800A206E4A
:101478002450800A2058D8A044EF0AF046EF0AF01A
:101488002CEF0AF04FB04BEF0AF04DEF0AF056EF91
:101498000AF01FC014F0156A1DC016F01EC017F020
:1014A80091EC09F01200176A15BE5FEF0AF05DEFC4
:1014B8000AF065EF0AF0146C151ED8B0152A010E53
:1014C800176E13BE6CEF0AF06AEF0AF072EF0AF0BB
:1014D800126C131ED8B0132A010E171A196A000EBF
:1014E800186E14501510D8B47CEF0AF07EEF0AF08D
:1014F800A6EF0AF0010E166E86EF0AF0D8901436A1
:101508001536162A15AE8BEF0AF08DEF0AF082EF2A
:101518000AF0D890183619361450125C1550135822
:10152800D8A099EF0AF09BEF0AF0A0EF0AF0145048
:10153800125E1550135A1880D89015321432162E90
:101548008DEF0AF01750D8B4ACEF0AF0AEEF0AF0FE
:10155800B2EF0AF0186C191ED8B0192A18C012F088
:1015680019C013F012008A98FF0E126E59EC0FF092
:10157800510E126E59EC0FF016C012F059EC0FF024
:1015880015C012F059EC0FF014C012F059EC0FF01E
:1015980013C012F059EC0FF0FF0E126E59EC0FF059
:1015A800FF0E126E59EC0FF0FF0AD8B4DEEF0AF006
:1015B800E0EF0AF0D4EF0AF0FF0E126E59EC0FF0CC
:1015C800FF0AD8B4EAEF0AF0ECEF0AF0E0EF0AF00D
:1015D8001A6A000E196E19501724D96E1A5018205D
:1015E800DA6EFF0E126E59EC0FF0DF6E194A1A2AE6
:1015F800020E1A5CD8A003EF0BF005EF0BF0EFEF2B
:101608000AF0FF0E126E59EC0FF0FF0E126E59EC35
:101618000FF08A881200186A000E176E1250D96EE1
:10162800DA6ADECFF6FFDDCFF7FFF86A0800F5507B
:101638002A0AD8A422EF0BF024EF0BF04DEF0BF0A1
:101648001250D96EDA6ADE2A000EDD221350D96EE6
:10165800DA6A020EDF26DF5CD96EDA6ADECF17F0AF
:10166800DECF18F061EF0BF00A0E1702F3CF14F07B
:10167800F4CF15F01802F350152616501424176EDF
:10168800000E1520186E1250D96EDA6ADE2A000E86
:10169800DD221250D96EDA6ADECFF6FFDDCFF7FF12
:1016A800F86A0800F550D00F166E090E16645FEF41
:1016B8000BF061EF0BF038EF0BF017C012F018C009
:1016C80013F01200176A13BE6EEF0BF06CEF0BF0FD
:1016D80074EF0BF0126C131ED8B0132A010E176E9C
:1016E80015BE7BEF0BF079EF0BF07FEF0BF0146C6E
:1016F800151ED8B0152A14501510D8B486EF0BF063
:1017080088EF0BF0ACEF0BF0010E166E90EF0BF0BC
:10171800D89014361536162A15AE95EF0BF097EFBC
:101728000BF08CEF0BF01450125C15501358D8A026
:10173800A0EF0BF0A2EF0BF0A6EF0BF01450125E27
:101748001550135AD89015321432162E97EF0BF005
:101758001750D8B4B2EF0BF0B4EF0BF0B8EF0BF0B2
:10176800126C131ED8B0132A12C012F013C013F053
:1017780012008A98FF0E126E59EC0FF0580E126E76
:1017880059EC0FF016C012F059EC0FF015C012F01A
:1017980059EC0FF014C012F059EC0FF013C012F00E
:1017A80059EC0FF0FF0E126E59EC0FF0FF0E126E8F
:1017B80059EC0FF0FF0AD8B4E4EF0BF0E6EF0BF0AA
:1017C800DAEF0BF0FF0E126E59EC0FF0FF0E126EEF
:1017D80059EC0FF0FF0E126E59EC0FF0FE0E126E60
:1017E80059EC0FF01A6A000E196E19501724D96EA9
:1017F8001A501820DA6EDF50126E59EC0FF0194AA1
:101808001A2A020E1A5CD8A00CEF0CF00EEF0CF09E
:10181800F9EF0BF08A8812006CBA15EF0CF017EF8D
:101828000CF05EEF0CF01250050D110EF324F66E5D
:10183800FA0EF420F76EF86A000EF8220800F5CFC9
:101848006DFF1250050D010EF326000EF422110E45
:10185800F324F66EFA0EF420F76EF86A000EF822FA
:101868000800F5CF6CFF1250050D020EF326000E8E
:10187800F422110EF324F66EFA0EF420F76EF86ACD
:10188800000EF8220800F5CF69FF1250050D030E6F
:10189800F326000EF422110EF324F66EFA0EF4204D
:1018A800F76EF86A000EF8220800F5CF6EFF6C8A12
:1018B8005EEF0CF012004FA064EF0CF066EF0CF036
:1018C8006EEF0CF025C01DF023C01EF024C01FF0E1
:1018D80025EC0EF027BE75EF0CF073EF0CF078EFE7
:1018E8000CF0276A000E266E2A6A000E296E88EF11
:1018F8000CF0156A200E146E23C016F024C017F0E1
:1019080091EC09F0294A2A2A2650295C2A50800A93
:10191800286E2750800A2858D8A095EF0CF097EF2A
:101928000CF07DEF0CF04FB09CEF0CF09EEF0CF03C
:10193800A6EF0CF025C01DF023C01EF024C01FF038
:1019480025EC0EF01200C5EF0CF0C282C10E9225F4
:10195800D96E020E9321DA6EC4CFDFFF924B932B20
:10196800020E93199211D8A4BCEF0CF0BEEF0CF044
:10197800DFEF0CF0936B000E926F020E986FDFEFA3
:101988000CF0000198510C6E0D6A0D50000AD8B485
:10199800D0EF0CF0DFEF0CF00C50000AD8B4DFEFFA
:1019A8000CF0010AD8B4A9EF0CF0030AD8B4A9EFD7
:1019B8000CF0DFEF0CF02EEC0FF00001BF51025CD1
:1019C8000A6EC05103580B6E96EC0FF0F294120099
:1019D8000001976B000E966FABA2F5EF0CF0F7EFD6
:1019E8000CF00DEF0DF0968594519511D8B4FFEFDA
:1019F8000CF001EF0DF00DEF0DF002D80DEF0DF02A
:101A08000500FA6E9451FD6E9551FE6EFF6AFA500C
:101A18001200ABA412EF0DF014EF0DF02BEF0DF048
:101A28000001968343504410D8B41DEF0DF01FEF0A
:101A38000DF02BEF0DF002D82BEF0DF00500FA6E2C
:101A48004350FD6E4450FE6EFF6AFA501200AE50CD
:101A58001200186A000E176E14501510D8B437EF1C
:101A68000DF039EF0DF061EF0DF0010E166E41EF3C
:101A78000DF0D89014361536162A15AE46EF0DF02F
:101A880048EF0DF03DEF0DF0D8901736183614508A
:101A9800125C15501358D8A054EF0DF056EF0DF006
:101AA8005BEF0DF01450125E1550135A1780D89042
:101AB80015321432162E48EF0DF017C012F018C068
:101AC80013F0120014501510D8B46DEF0DF06FEF2D
:101AD8000DF093EF0DF0010E166E77EF0DF0D89024
:101AE80014361536162A15AE7CEF0DF07EEF0DF084
:101AF80073EF0DF01450125C15501358D8A087EFEF
:101B08000DF089EF0DF08DEF0DF01450125E1550A9
:101B1800135AD89015321432162E7EEF0DF012C0DB
:101B280012F013C013F01200460EF66E1F0EF76E79
:101B3800000EF86E0900F5CFBFF00900F5CFC0F030
:101B480000EEC1F016EE00F0EE6AE550E150FCE15F
:101B5800E250FAE100EE8EF02B0EEE6AE806FDE1A7
:101B680000EE41F00F0EEE6AE806FDE101900192E9
:101B7800000130EF00F06AC03EF06BC03FF0CFEFDD
:101B88000DF068C038F069C039F03E0E3A6E6CC08E
:101B98003BF0D7EC04F03EC0F6FF3FC0F7FFF86A11
:101BA8000800F5500009D8A4DCEF0DF0DEEF0DF0C9
:101BB800C5EF0DF00001696B000E686F1200CDA42F
:101BC800E8EF0DF0EAEF0DF000EF0EF0CDB0EFEF1B
:101BD8000DF0F2EF0DF0010EF3EF0DF0000E146EA4
:101BE800CD901350CF6E12C0CEFF14B002D0CD905E
:101BF80001D0CD8004EF0EF01350CF6E12C0CEFF8F
:101C080012008A980D0E126E59EC0FF0136E8A8826
:101C18001328D8A412EF0EF014EF0EF017EF0EF001
:101C2800FF0E24EF0EF0FF0E126E59EC0FF0FF0EB0
:101C3800126E59EC0FF0FF0E126E59EC0FF01350A4
:101C48001200226A000E216E35EF0EF020C014F04B
:101C5800156A1EC016F01FC017F091EC09F0214A52
:101C6800222A1D502124D96EDA6ADF50206E2050B6
:101C7800D8A441EF0EF043EF0EF02AEF0EF0120059
:101C8800480EB86E900EAB6E260EAC6E820EAF6E1E
:101C9800060EB06E480E126E1F0E136E4BEC0FF050
:101CA8003C0E126E1F0E136E3DEC0FF00001976B89
:101CB800000E966F1200D09EF292F18C000E126EFA
:101CC800000E136E91EC0FF0F090F18A000E126E78
:101CD800000E136E8CEC0FF0F092F188000E126E6D
:101CE800000E136E87EC0FF0120019BE7EEF0EF097
:101CF80080EF0EF086EF0EF018C018F019C019F03A
:101D080092EF0EF018C01AF019C01BF01A1E1B1E15
:101D18001A4A1B2A1AC018F01BC019F01200CD90DD
:101D2800CF6ACE6ACF50126ECE50456E12C046F0C2
:101D3800CC6A000E0001BB6F000EBC6F000EB96FBD
:101D4800000EBA6F9E90A490350ECD6E1200896A6F
:101D58008A6A400E8B6EBF0E926EE50E936E8F0EE2
:101D6800946E800E966E2F0E0F01386F210E396F0C
:101D78000C0E3A6F6168F00E626EF2861200000176
:101D8800BD51BE11D8B4CBEF0EF0CDEF0EF0D9EFA8
:101D98000EF002D8D9EF0EF00500FA6EBD51FD6EB7
:101DA800BE51FE6EFF6AFA501200F2941200126AD7
:101DB8009EA8E1EF0EF0E3EF0EF0ECEF0EF0ACAA08
:101DC800E8EF0EF0EAEF0EF0ECEF0EF0010E126EF7
:101DD80012501200D59CD76AD66A486A000E476E20
:101DE8004A0E126E1F0E136E82EC0FF0F294F28AF6
:101DF8009F0ED56E12006F0E406E000E0001686FC8
:101E0800000E696F6DC06AF06EC06BF0400E6C6FAB
:101E1800BFEC0DF01200136EDBEC0EF00009D8B425
:101E280018EF0FF01AEF0FF010EF0FF013C012F0C9
:101E38009BEC0FF0120076EC0FF0ABEC0EF0EEEC32
:101E48000EF093EC0EF044EC0EF06FEC0FF05FEC3C
:101E58000EF01200D6CF08F0D7CF09F00950046E63
:101E68000850066E04C007F006C002F007C003F071
:101E7800120012501310D8B444EF0FF046EF0FF0D1
:101E88004AEF0FF012C094F013C095F012001250F0
:101E98001310D8B452EF0FF054EF0FF058EF0FF0C3
:101EA80012C043F013C044F0120012C06FFFA4AE7A
:101EB80060EF0FF062EF0FF05BEF0FF0A49E6F5032
:101EC80012009EBA6AEF0FF06DEF0FF0010E6EEF81
:101ED8000FF0000E1200A39EA49E6D6A6C6A696AD8
:101EE8006E6A1200700ED36E040ED26E400E9B6E98
:101EF80012001350D76E12C0D6FF120012C0BDF0E8
:101F080013C0BEF0120012C049F013C04AF012000C
:101F180012C04BF013C04CF0120012C04DF013C0A9
:101F28004EF012000B50D76E0AC0D6FF120012C036
:101F3800ADFF1200AB98AB8812006C9A12004006F5
:041F48001200120071
:10F9AA0000881C0000D819361FCA1EB61D000000A8
:10F9BA00000000000000000000000000000000003D
:10F9CA00000000000000000000961E7A1E000000E1
:10F9DA0000DE1E00002018421F000000000000B2D6
:10F9EA001E000000000000000000000000809FBB15
:10F9FA00D5E9F8FFFFF8E9D5BB9F8061452B1708C9
:10FA0A00010108172B4561000A107F00400110030D
:10FA1A00006400100100505265737320616E7920F2
:10FA2A006B657920746F20737461727420726563D8
:10FA3A006F7264696E6720617564696F20616E64B4
:10FA4A0020707265737320616E79206B65792074FA
:10FA5A006F2073746F70207265636F7264696E676A
:10FA6A002E0D0A004C6F672066696C65206E616D09
:10FA7A00653A20202042726F77736520616E642098
:10FA8A0070726F766964652061202E6373762065D3
:10FA9A007874656E73696F6E20746F20796F7572F2
:10FAAA002066696C65206E616D650D0A00546F20D1
:10FABA0073706F6F6C207465726D696E616C206310
:10FACA006F6E74656E747320696E746F2061206640
:10FADA00696C6520666F6C6C6F77207468657365F6
:10FAEA0020696E737472756374696F6E733A0D0A66
:10FAFA0000596F75206D6179207465726D696E6148
:10FB0A0074652073706F6F6C696E67206174206111
:10FB1A006E792074696D6520776974682061206B3D
:10FB2A00657970726573732E0D0A0052696768747D
:10FB3A00206D6F75736520636C69636B206F6E202F
:10FB4A00746865207570706572206C656674206FC4
:10FB5A0066207468652050755454592077696E641C
:10FB6A006F770D0A000D0A2D2D2D2D2D2D2D2D2DE2
:10FB7A002D2D2D2D2D2D2D2D2D2D2D2D2D2D2D2DAB
:10FB8A002D2D2D2D2D2D2D2D2D2D2D2D2D2D2D2D9B
:10FB9A002D2D2D2D2D2D2D2D0D0A00313A20777268
:10FBAA0069746520706572666563742032362076E2
:10FBBA00616C75652073696E65207761766520745E
:10FBCA006F2031323820626C6F636B730D0A002B21
:10FBDA002F2D3A20496E6372656173652F44656300
:10FBEA007265617365207468652073616D706C65F8
:10FBFA0020726174652062792031302075730D0A94
:10FC0A0000546F20636C6F736520746865206669A1
:10FC1A006C6520666F6C6C6F7720746865736520FD
:10FC2A00696E737472756374696F6E733A0D0A0D37
:10FC3A000A0053656C6563743A0953657373696F97
:10FC4A006E206C6F6767696E673A20416C6C20732F
:10FC5A00657373696F6E206F75747075740D0A0021
:10FC6A00573A205772697465206D6963726F7068BC
:10FC7A006F6E65203D3E20534420636172642061AB
:10FC8A007420313630302075730D0A00577269744A
:10FC9A006520626C6F636B206F66206465637265B2
:10FCAA006D656E74656420382D6269742076616CA6
:10FCBA007565733A0D0A00723A20726561642061B3
:10FCCA0020626C6F636B206F6620256420627974F2
:10FCDA0065732066726F6D20534420636172640DF0
:10FCEA000A0043616E277420676F206C6F77657214
:10FCFA00207468616E20323075732073616D706C88
:10FD0A00696E6720726174650D0A0050726F6265D0
:10FD1A002052433420746F2064657465726D696E75
:10FD2A006520777269746520706572696F640D0A5F
:10FD3A000050726F62652052433520746F206465EB
:10FD4A007465726D696E6520777269746520706575
:10FD5A0072696F640D0A00612F41206465637265E0
:10FD6A006173652F696E637265617365207265617F
:10FD7A006420616464726573730D0A00733A2073B8
:10FD8A00706F6F6C206D656D6F727920746F206172
:10FD9A00206373762066696C650D0A0053656C658D
:10FDAA0063743A0953657373696F6E206C6F676782
:10FDBA00696E673A204E6F6E650D0A0053746F7252
:10FDCA00656420257520626C6F636B73206F6620F3
:10FDDA0073696E6520776176650D0A00556E6465F4
:10FDEA0072666C6F77656420746F20686967682033
:10FDFA00616464726573730D0A0053656C6563749C
:10FE0A003A094368616E67652073657474696E6741
:10FE1A00732E2E2E0D0A00426C6F636B204C656E9A
:10FE2A0067746820526573706F6E73653A2025781F
:10FE3A000D0A004F766572666C6F77656420746F81
:10FE4A00206C6F7720616464726573730D0A0043D6
:10FE5A004D44302C20526573657420526573706F5F
:10FE6A006E73653A2025780D0A00434D44312C20E3
:10FE7A00496E697420526573706F6E73653A2025F6
:10FE8A00780D0A00507265737320616E79206B6574
:10FE9A007920746F2073746172740D0A00693A20B4
:10FEAA00496E697469616C697A652053442063619B
:10FEBA0072640D0A007A3A20436C65617220746894
:10FECA0065207465726D696E616C0D0A00202020D0
:10FEDA00205374617475733A202020202025303213
:10FEEA00780D0A005A3A2052657365742070726F51
:10FEFA00636573736F720D0A00446563726561739B
:10FF0A00656420616464726573730D0A00496E63E7
:10FF1A0072656173656420616464726573730D0A46
:10FF2A000053442063617264206164647265737370
:10FF3A003A20200053656C6563743A094C6F676711
:10FF4A00696E670D0A005344206361726420746508
:10FF5A007374696E670D0A00556E6B6E6F776E204B
:10FF6A006B65792025630D0A0020202020416464F6
:10FF7A00726573733A202020200053656C656374A0
:10FF8A003A094170706C790D0A0052656164206209
:10FF9A006C6F636B3A200D0A003F3A2068656C70FB
:10FFAA00206D656E750D0A0053656C6563743A09B8
:10FFBA004170706C7900696E4C61622030390D0AAB
:10FFCA00004465762732310D0A006F3A096F6B0DCE
:10FFDA000A006F3A206B0D0A00253032782000257E
:10FFEA00750D0A0025303478000D0A0A00256300D1
:05FFFA002E003A00009A
:020000040030CA
:0E000000FF281F3CFFBF85FF0FC00FE00F4021
:00000001FF
