:04000000FEEF3FF0E0
:10060000000020EE01F011EEA8F02F0EDBCFE3FF8B
:10061000E806FCE220EE60F011EE00F0530EDBCFB6
:10062000E3FFE806FCE222EE00F011EE54F0530E78
:10063000DBCFE3FFE806FCE2D8EC04F080B423EF64
:1006400003F025EF03F01EEF03F080A42AEF03F080
:100650002CEF03F025EF03F0000E0101D96F000E1F
:10066000D86F20EC05F0D8900101D835D96ED93576
:10067000DA6E540ED926010EDA22DECF40F0DDCF3D
:1006800041F0401C3D6E411C3E6E00EC05F088EFD1
:1006900003F01EEC05F0D8900101D835D96ED9359C
:1006A000DA6E000ED926010EDA22DECF40F0DDCF61
:1006B00041F0D89040364136A80E4024D96E010E44
:1006C0004120DA6EDECF42F0DDCF43F0421C3D6EBA
:1006D000431C3E6E47EC04F0E5EC04F00009D8B48E
:1006E00074EF03F076EF03F06CEF03F08ABA7BEF60
:1006F00003F07EEF03F0010E7FEF03F0000EFF0A20
:10070000406E403A40468A504018DF0B40188A6ECF
:10071000EFEC04F00009D8B490EF03F092EF03F08F
:1007200049EF03F08A9A20EC05F0F80E3E6E5E0E5B
:100730003D6E00EC05F0EFEC04F00009D8B4A3EF37
:1007400003F0A5EF03F09BEF03F00101D84BD92B89
:10075000D9BFB4EF03F0D95109E12A0ED85DD8A072
:10076000B4EF03F0B6EF03F031EF03F01EEF03F048
:10077000FEEF3FF03A0EF66E080EF76E000EF86EC2
:1007800002EE00F010EE54F00900F5CFEEFFE55058
:10079000E150FAE1E60EF66E070EF76E000EF86E07
:1007A00000EE60F010EE54F00900F5CFEEFFE550DA
:1007B000E150FAE1060EF66E090EF76E000EF86EC5
:1007C00000EE01F010EE30F00900F5CFEEFFE5503D
:1007D000E150FAE1476A466A456A446A000EF86EDB
:1007E000000101EF03F0100010000B000B000D00E2
:1007F0000D000B00090009000800080006000600B3
:1008000010000B000B00090009000800080006009A
:100810000B000B000900090008000800060010008A
:1008200010000B000B000D000D000B00090009006B
:1008300008000800060006001000093D093D093DBA
:10084000093D093D093D127A093D093D093D093D32
:10085000093D093D127A093D093D093D093D093D22
:10086000093D127A093D093D093D093D093D093D12
:10087000127A093D093D093D093D093D093D127ABC
:10088000093D093D093D093D093D093D127ACDA4C7
:100890004CEF04F04EEF04F064EF04F0CDB053EFF2
:1008A00004F056EF04F0010E57EF04F0000E3F6E17
:1008B000CD903E50CF6E3DC0CEFF3FB002D0CD9028
:1008C00001D0CD8068EF04F03E50CF6E3DC0CEFF2A
:1008D0001200D09EF292F18C000E3D6E000E3E6E24
:1008E00019EC05F0F090F18A000E3D6E000E3E6EA0
:1008F00014EC05F0F092F188000E3D6E000E3E6E95
:100900000FEC05F012004032702FD02C402AE02767
:10091000A02580239021B01FE01D401CA01A2019A3
:10092000C01760162015F013D012D011C010D00FD0
:10093000F00E200E500DCD90CF6ACE6ACF503D6E96
:10094000CE50466E3DC047F0CC6A000E356E000EAC
:10095000366E000E336E000E346E9E90A490050E1F
:10096000CD6E1200896A8A6A8B6A9268DF0E936E76
:100970009468800E966E230E0F01386F1F0E396F2C
:10098000FC0E3A6F6168F00E626EF2861200D59C22
:10099000D76AD66A000E456E000E446E000E3D6E9C
:1009A000000E3E6E05EC05F0F294970ED56E120027
:1009B000F9EC04F0B2EC04F0C7EC04F09BEC04F0AA
:1009C0000AEC05F069EC04F012009EB0EAEF04F0C6
:1009D000EDEF04F0010EEEEF04F0000E1200F2B4A1
:1009E000F4EF04F0F7EF04F0010EF8EF04F0000E5E
:1009F0001200700ED36E040ED26E400E9B6E12006B
:100A00003E50D76E3DC0D6FF12003DC031F03EC013
:100A100032F012000F013F6B3E6B3D6B12003DC088
:100A200037F03EC038F012003DC039F03EC03AF019
:100A300012003DC03BF03EC03CF012009E90120000
:040A4000F29412001A
:047FFC00BAEF03F0E5
:020000040030CA
:0E000000FF281F3CFFBF85FF0FC00FE00F4021
:00000001FF
