:0400000026EF00F0F7
:100008000182FACF0EF0FBCF0FF0F2AC0EEF00F04A
:1000180010EF00F020EF00F0F2AA15EF00F017EF54
:1000280000F020EF00F0F2A41CEF00F01EEF00F04B
:1000380020EF00F0CFEC0BF00FC0FBFF0EC0FAFF73
:10004800019211004BEF0BF0000E0001A36F000EA0
:10005800A46F000EA56F000EA66F300E9F6F56ECB2
:100068000CF08A88116A000E106E87EC0CF0F2947E
:10007800F2A441EF00F043EF00F03CEF00F05A0E1D
:10008800106E160E116E8CEC0CF0F28EF28CC60E01
:1000980000018D6F7F0E8E6F0BEC0CF0740E00015B
:1000A8008D6F7F0E8E6F0BEC0CF0D10E00018D6FF3
:1000B8007F0E8E6F0BEC0CF0ABEC0CF0010E106E9B
:1000C80047EC0AF06FEC0CF00009D8B46EEF00F0C2
:1000D80070EF00F066EF00F08AEC0AF00001A06F04
:1000E80032EF03F01E0E8D6F7C0E8E6F0BEC0CF052
:1000F800610E00018D6F7F0E8E6F0BEC0CF0EF0E12
:1001080000018D6F7F0E8E6FA5C08FF0A6C090F096
:10011800916B926B0BEC0CF0FD0E00018D6F7F0E56
:100128008E6F0BEC0CF0EF0E00018D6F7F0E8E6F53
:10013800FF0EA3158F6FFF0EA415906F000EA51567
:10014800916F000EA615926F0BEC0CF0B40E000127
:100158008D6F7F0E8E6F0BEC0CF0200E00018D6FF3
:100168007C0E8E6F0BEC0CF0B70E00018D6F7F0EBE
:100178008E6F0BEC0CF0E20E00018D6F7F0E8E6F10
:100188000BEC0CF0240E00018D6F7F0E8E6F0BECC4
:100198000CF0F50E00018D6F7E0E8E6F0BEC0CF0DF
:1001A800540E00018D6F7C0E8E6F0BEC0CF0D90E87
:1001B80000018D6F7D0E8E6F0BEC0CF0880E000128
:1001C8008D6F7C0E8E6F0BEC0CF0DD0E00018D6FC9
:1001D8007E0E8E6F0BEC0CF0B40E00018D6F7D0E51
:1001E8008E6F0BEC0CF0130E00018D6F7D0E8E6F71
:1001F800020E906F000E8F6F0BEC0CF03E0E00019C
:100208008D6F7D0E8E6F020E906F000E8F6F0BEC50
:100218000CF0E20E00018D6F7B0E8E6F0BEC0CF074
:10022800A00E00018D6F7B0E8E6F0BEC0CF0200E74
:1002380000018D6F7C0E8E6F0BEC0CF066EF00F0FA
:10024800DA0E8D6F7F0E8E6F0BEC0CF066EF00F000
:10025800A26B000EA16FF60E8D6F7F0E8E6F0BECEA
:100268000CF00001A14BA22BA25109E1280EA15DBF
:10027800D8A041EF01F043EF01F02FEF01F0FF00AC
:1002880066EF00F0A26B000EA16FF60E8D6F7F0E69
:100298008E6F0BEC0CF00001A14BA22BA25109E1CF
:1002A800280EA15DD8A05BEF01F05DEF01F049EFEA
:1002B80001F066EF00F0FA0E8D6F7A0E8E6F0BEC80
:1002C8000CF04D0E00018D6F7B0E8E6F0BEC0CF059
:1002D800A80E00018D6F7E0E8E6F0BEC0CF0BC0E1D
:1002E80000018D6F7C0E8E6F0BEC0CF0380E000148
:1002F8008D6F7E0E8E6F0BEC0CF06FEC0CF000091E
:10030800D8A489EF01F08BEF01F081EF01F06FECD9
:100318000CF00009D8B493EF01F095EF01F08BEFE2
:1003280001F08AEC0AF01B0E00018D6F7E0E8E6FB5
:100338009FC08FF0906B9FC010F063EC0CF0000131
:100348009D6F9D51916F926B0BEC0CF000019F2BF0
:1003580066EF00F0ABEC0CF0010E106E47EC0AF003
:10036800010E80EC05F066EF00F0610EA019D8A42C
:10037800C0EF01F0C2EF01F0ECEF01F0000EA35F57
:10038800020EA45B000EA55B000EA65B040EA65D24
:10039800D8A0D1EF01F0D3EF01F0E4EF01F0FD0EAA
:1003A8008D6F7D0E8E6F0BEC0CF0000E0001A36FAD
:1003B800FE0EA46FFF0EA56F030EA66F14EF02F0DA
:1003C800390E8D6F7F0E8E6F0BEC0CF014EF02F070
:1003D800000EA327020EA423000EA523000EA623B9
:1003E800040EA65DD8A0FBEF01F0FDEF01F00EEFC3
:1003F80002F0710E8D6F7E0E8E6F0BEC0CF0000EFE
:100408000001A36F000EA46F000EA56F000EA66F6B
:1004180014EF02F04D0E8D6F7F0E8E6F0BEC0CF00B
:10042800610E00018D6F7F0E8E6F0BEC0CF0EF0EDE
:1004380000018D6F7F0E8E6FA5C08FF0A6C090F063
:10044800916B926B0BEC0CF0FD0E00018D6F7F0E23
:100458008E6F0BEC0CF0EF0E00018D6F7F0E8E6F20
:10046800FF0EA3158F6FFF0EA415906F000EA51534
:10047800916F000EA615926F0BEC0CF0B40E0001F4
:100488008D6F7F0E8E6F0BEC0CF066EF00F0680E30
:100498008D6F7D0E8E6F0BEC0CF00001A26B000EC1
:1004A800A16FA90EA125D96E000EA221DA6EA15165
:1004B800FF0ADF6EA14BA22B020EA25DD8A067EF48
:1004C80002F069EF02F055EF02F08B88A3C011F03B
:1004D800A4C012F0A5C013F0A6C014F0A90E156EA2
:1004E800000E166EACEC09F0EEEC0AF000019E6FFF
:1004F8009E29D8B482EF02F084EF02F078EF02F080
:100508008B98E80E8D6F7C0E8E6F0BEC0CF0970EAF
:1005180000018D6F7F0E8E6F0BEC0CF0EF0E00015B
:100528008D6F7F0E8E6FA5C08FF0A6C090F0916B77
:10053800926B0BEC0CF0FD0E00018D6F7F0E8E6F31
:100548000BEC0CF0EF0E00018D6F7F0E8E6FFF0E1F
:10055800A3158F6FFF0EA415906F000EA515916F50
:10056800000EA615926F0BEC0CF0B40E00018D6F07
:100578007F0E8E6F0BEC0CF00D0E00018D6F7F0E51
:100588008E6F9EC08FF0906B0BEC0CF066EF00F056
:100598008E0E8D6F7D0E8E6F0BEC0CF08B8AA3C0C8
:1005A80011F0A4C012F0A5C013F0A6C014F0A90E53
:1005B800156E000E166EA8EC08F08B9AA80E0001B6
:1005C8008D6F7F0E8E6F0BEC0CF0970E00018D6F08
:1005D8007F0E8E6F0BEC0CF0EF0E00018D6F7F0E0F
:1005E8008E6FA5C08FF0A6C090F0916B926B0BEC4C
:1005F8000CF0FD0E00018D6F7F0E8E6F0BEC0CF072
:10060800EF0E00018D6F7F0E8E6FFF0EA3158F6F9B
:10061800FF0EA415906F000EA515916F000EA6157C
:10062800926F0BEC0CF0B40E00018D6F7F0E8E6F85
:100638000BEC0CF0A90E0001936F000E946F8BEC7D
:1006480004F066EF00F0860E8D6F7F0E8E6FA0C0EF
:100658008FF0906B0BEC0CF066EF00F0A0513F0AA6
:10066800D8B476EF00F07E0AD8B4B9EF01F01B0ACF
:10067800D8B42CEF01F03B0AD8B4B9EF01F0080A5E
:10068800D8B4AEEF01F0060AD8B424EF01F01D0A81
:10069800D8B4CCEF02F0060AD8B45FEF01F0030A31
:1006A800D8B44BEF02F00D0AD8B446EF01F027EFAB
:1006B80003F026EF00F03850D96EDA6ADECFF6FF85
:1006C800DDCFF7FF0800F550250AD8A46EEF03F038
:1006D80070EF03F077EF04F03850D96EDA6ADE2A4B
:1006E800000EDD22466A000E456E45C051F000013D
:1006F800606961693D6A9DEF03F051823850D96E97
:10070800DA6ADE2A000EDD229DEF03F0010E3D6E4F
:100718009DEF03F03850D96EDA6ADECFF6FFDDCFF1
:10072800F7FF0800F550300AD8B481EF03F08AEFDC
:1007380003F03D50D8B4A3EF03F0A5EF03F08EEF1C
:1007480003F038C010F039C011F057EC09F010C0B0
:1007580045F011C046F046BEB6EF03F0B4EF03F023
:10076800BBEF03F05180456C461ED8B0462A38507E
:10077800D96EDA6ADECFF6FFDDCFF7FF0800F55055
:10078800630AD8A4CAEF03F0CCEF03F0E6EF03F056
:100798003850D96EDA6ADE2A000EDD223950D96E59
:1007A800DA6ADF50DF2ADF2AD96EDA6ADF503C6E58
:1007B80036C01BF037C01CF03CC01DF0E7EC07F05A
:1007C8008AEF04F03850D96EDA6ADECF42F0DDCF16
:1007D80043F042C0F6FF43C0F7FF0800F550640A33
:1007E800D8B4F9EF03F0FBEF03F009EF04F042C0CF
:1007F800F6FF43C0F7FF0800F550690AD8A407EFD1
:1008080004F009EF04F02EEF04F03950D96EDA6ADB
:10081800020EDF26DF5CD96EDA6ADECF3EF0DECF6D
:100828003FF0010E42243A6E000E43203B6E3850D2
:10083800D96EDA6A3AC0DEFF3BC0DDFF36C029F068
:1008480037C02AF03EC02BF03FC02CF057EC06F022
:100858008AEF04F042C0F6FF43C0F7FF0800F550E6
:10086800780AD8A43AEF04F03CEF04F06FEF04F0F4
:100878003950D96EDA6A020EDF26DF5CD96EDA6A81
:10088800DECF3EF0DECF3FF0010E42243A6E000E7E
:1008980043203B6E3850D96EDA6A3AC0DEFF3BC05F
:1008A800DDFF63EF04F036C029F037C02AF03EC000
:1008B8002BF03FC02CF006EC07F08AEF04F042C0A2
:1008C800F6FF43C0F7FF0800F550780AD8B457EF91
:1008D80004F06FEF04F03850D96EDA6ADE2A000EA1
:1008E800DD228AEF04F03850D96EDA6ADECFF6FFDF
:1008F800DDCFF7FF0800F550126E136A36C014F00A
:1009080037C015F082EC07F06FEF04F01200F40E18
:1009180000018D6F7F0E8E6F0BEC0CF000019C6B4D
:10092800000E9B6F9B519C11D8B49DEF04F09FEF74
:1009380004F0B4EF04F0070E9B15956F000E9C159C
:10094800966F95519611D8A4ACEF04F0AEEF04F071
:10095800B4EF04F0A60E8D6F7F0E8E6F0BEC0CF0CB
:1009680000019B519C11D8B4BCEF04F0BEEF04F019
:1009780017EF05F00F0E9B15956F000E9C15966FDF
:1009880095519611D8A4CBEF04F0CDEF04F017EFF2
:1009980005F0A50E8D6F7F0E8E6F0BEC0CF0F00E30
:1009A80000019B25976FFF0E9C21986F06EF05F0BD
:1009B80097519325D96E98519421DA6E200EDF60F5
:1009C800E8EF04F0EAEF04F0F2EF04F0FB0E8D6FAD
:1009D8007F0E8E6F0BEC0CF003EF05F0F80E8D6FA9
:1009E8007F0E8E6F97519325D96E98519421DA6EA8
:1009F800DF50956F95518F6F906B0BEC0CF00001E9
:100A0800974B982B9B51975D9C519859D8A00FEF05
:100A180005F011EF05F0DCEF04F0B40E8D6F7F0EDA
:100A28008E6F0BEC0CF0E90E00018D6F7F0E8E6F50
:100A38009B519325D96E9C519421DA6EDF50956FA6
:100A480095518F6F906B0BEC0CF000019B4B9C2B1E
:100A5800020E9C5DD8A033EF05F035EF05F096EF58
:100A680004F0A40E8D6F7F0E8E6F0BEC0CF0F00E61
:100A780000019B25996FFF0E9C219A6F6EEF05F080
:100A880099519325D96E9A519421DA6E200EDF6020
:100A980050EF05F052EF05F05AEF05F0FB0E8D6FA1
:100AA8007F0E8E6F0BEC0CF06BEF05F0F80E8D6F70
:100AB8007F0E8E6F99519325D96E9A519421DA6ED3
:100AC800DF50956F95518F6F906B0BEC0CF0000118
:100AD800994B9A2B9B51995D9C519A59D8A077EFC5
:100AE80005F079EF05F044EF05F0B40E8D6F7F0E39
:100AF8008E6F0BEC0CF012000001956F0001946BE7
:100B0800000E936FFF0E106E63EC0CF00001934B18
:100B1800942B94BF99EF05F0945109E10A0E935D67
:100B2800D8A099EF05F09BEF05F086EF05F08A98BD
:100B3800FF0E106E63EC0CF0400E106E63EC0CF0C0
:100B4800000E106E63EC0CF0000E106E63EC0CF0EF
:100B5800000E106E63EC0CF0000E106E63EC0CF0DF
:100B6800950E106E63EC0CF0FF0E106E63EC0CF03B
:100B7800FF0E106E63EC0CF00001966F8A889505E5
:100B8800D8A4C9EF05F0CBEF05F0D4EF05F08D0E32
:100B98008D6F7E0E8E6F96C08FF0906B0BEC0CF005
:100BA8008A98FF0E106E63EC0CF0410E106E63EC29
:100BB8000CF0000E106E63EC0CF0000E106E63EC7F
:100BC8000CF0000E106E63EC0CF0000E106E63EC6F
:100BD8000CF0FF0E106E63EC0CF0FF0E106E63EC61
:100BE8000CF0FF0E106E63EC0CF00001966F8A8813
:100BF8009651D8A402EF06F004EF06F0D4EF05F002
:100C08009505D8A40AEF06F00CEF06F015EF06F0EC
:100C1800C30E8D6F7E0E8E6F96C08FF0906B0BECAF
:100C28000CF08A98FF0E106E63EC0CF0500E106EEC
:100C380063EC0CF0000E106E63EC0CF0000E106EFE
:100C480063EC0CF0020E106E63EC0CF0000E106EEC
:100C580063EC0CF0FF0E106E63EC0CF0FF0E106EE0
:100C680063EC0CF0FF0E106E63EC0CF00001966F55
:100C78008A889629D8B443EF06F045EF06F015EFB9
:100C880006F09505D8A44BEF06F04DEF06F056EFA9
:100C980006F0550E8D6F7E0E8E6F96C08FF0906B9E
:100CA8000BEC0CF01200010E2F6E2CBE5EEF06F05E
:100CB80061EF06F0010E62EF06F0000E326E45C0DD
:100CC80030F046C031F03250D8B46DEF06F06FEF17
:100CD80006F084EF06F03006D8A031063250D8A4CA
:100CE80078EF06F07AEF06F07FEF06F02E6A2B0E0B
:100CF8002D6E82EF06F02E6A2D0E2D6E2DC032F06D
:100D0800346A1F0E336E0001856BB5EF06F03306AB
:100D1800D8A034063350660FD96EDA6A2BC010F0AB
:100D28002CC011F0136A0A0E126E00EC09F010C004
:100D380016F011C017F09DEC0BF01650300FDF6E57
:100D48002F6A3006D8A031062BC010F02CC011F045
:100D5800136A0A0E126E48EC08F010C02BF011C08E
:100D68002CF034BEC0EF06F0345008E13304D8A0AC
:100D7800C0EF06F0C2EF06F0E7EF06F02B502C109C
:100D8800D8A4C9EF06F0CBEF06F08BEF06F02F5092
:100D9800D8A4D1EF06F0D3EF06F08BEF06F031BE02
:100DA800DEEF06F0315008E13004D8A0DEEF06F09F
:100DB800E0EF06F0E7EF06F051B2E5EF06F0E7EFF7
:100DC80006F08BEF06F03250D8B4EDEF06F0EFEFF7
:100DD80006F0F8EF06F03306D8A034063350660F55
:100DE800D96EDA6A32C0DFFF29C021F02AC022F0AA
:100DF8003350660F236E30C024F031C025F0FFEC6D
:100E080009F01200010E306E45C031F046C032F0D4
:100E1800356A1F0E346E0001856B41EF07F034060A
:100E2800D8A035062B500F0B336E0A0E33601FEF18
:100E380007F021EF07F025EF07F0300E332627EFF4
:100E480007F0570E33263450660FD96EDA6A33C06E
:100E5800DFFF306A3106D8A032062BC02DF02CC037
:100E68002EF0040E2F6ED8902E322D322F2E37EF03
:100E780007F02DC02BF02EC02CF035BE4DEF07F03B
:100E8800355009E1020E345CD8A04DEF07F04FEF62
:100E980007F074EF07F02B502C10D8A456EF07F08A
:100EA80058EF07F013EF07F03050D8A45EEF07F0C3
:100EB80060EF07F013EF07F032BE6BEF07F0325028
:100EC80008E13104D8A06BEF07F06DEF07F074EF7D
:100ED80007F051B272EF07F074EF07F013EF07F065
:100EE80029C021F02AC022F03450660F236E31C089
:100EF80024F032C025F0FFEC09F012001450151050
:100F0800D8B489EF07F08BEF07F094EF07F014508F
:100F18001510D8A492EF07F094EF07F099EF07F0B7
:100F280012501BEC0CF0E6EF07F020EE09F014501D
:100F3800D9261550DA22DE50DE10D8B4A6EF07F015
:100F4800A8EF07F0C3EF07F020EE09F01450D926F8
:100F58001550DA2210EE02F01450E1261550E22264
:100F6800DE50E65CE650800A1A6EDE50800A1A5897
:100F7800D8B0C1EF07F0C3EF07F0E6EF07F020EEB7
:100F880002F01450D9261550DA22DECF16F0DDCF44
:100F980017F014C0D9FF15C0DAFFDECF18F0DDCF87
:100FA80019F016501824D96E17501920DA6E12C08D
:100FB800DFFF20EE02F01450D9261550DA22DE2A7F
:100FC800000EDD22120045504610D8A4EEEF07F0BF
:100FD800F0EF07F0F6EF07F045C021F046C022F029
:100FE800FCEF07F0FF0E4524216EFF0E4620226E0F
:100FF80051A001EF08F003EF08F00CEF08F01DC056
:1010080012F0136A1BC014F01CC015F082EC07F034
:1010180022BE11EF08F013EF08F015EF08F018EFF3
:1010280008F0226A000E216E206A000E1F6E28EF5B
:1010380008F0136A200E126E1BC014F01CC015F0C5
:1010480082EC07F01F4A202A21501F5C2050800A9A
:101058001E6E2250800A1E58D8A035EF08F037EFD0
:1010680008F01DEF08F051B03CEF08F03EEF08F033
:1010780047EF08F01DC012F0136A1BC014F01CC023
:1010880015F082EC07F01200156A13BE50EF08F055
:101098004EEF08F056EF08F0126C131ED8B0132A62
:1010A800010E156E11BE5DEF08F05BEF08F063EFFF
:1010B80008F0106C111ED8B0112A010E151A176A03
:1010C800000E166E12501310D8B46DEF08F06FEFC3
:1010D80008F097EF08F0010E146E77EF08F0D8903B
:1010E80012361336142A13AE7CEF08F07EEF08F0A0
:1010F80073EF08F0D890163617361250105C13505C
:101108001158D8A08AEF08F08CEF08F091EF08F09A
:101118001250105E1350115A1680D89013321232A2
:10112800142E7EEF08F01550D8B49DEF08F09FEF0D
:1011380008F0A3EF08F0166C171ED8B0172A16C0CF
:1011480010F017C011F012008A98FF0E106E63ECB1
:101158000CF0510E106E63EC0CF014C010F063EC40
:101168000CF013C010F063EC0CF012C010F063EC3C
:101178000CF011C010F063EC0CF0FF0E106E63EC75
:101188000CF0FF0E106E63EC0CF0FF0AD8B4CFEF32
:1011980008F0D1EF08F0C5EF08F0FF0E106E63EC11
:1011A8000CF0FF0AD8B4DBEF08F0DDEF08F0D1EF60
:1011B80008F0186A000E176E17501524D96E1850CB
:1011C8001620DA6EFF0E106E63EC0CF0DF6E174A15
:1011D800182A020E185CD8A0F4EF08F0F6EF08F011
:1011E800E0EF08F0FF0E106E63EC0CF0FF0E106ECF
:1011F80063EC0CF08A881200156A11BE08EF09F03A
:1012080006EF09F00EEF09F0106C111ED8B0112A84
:10121800010E156E13BE15EF09F013EF09F019EF63
:1012280009F0126C131ED8B0132A12501310D8B438
:1012380020EF09F022EF09F046EF09F0010E146ED5
:101248002AEF09F0D89012361336142A13AE2FEF6E
:1012580009F031EF09F026EF09F01250105C135035
:101268001158D8A03AEF09F03CEF09F040EF09F027
:101278001250105E1350115AD89013321232142E95
:1012880031EF09F01550D8B44CEF09F04EEF09F0E2
:1012980052EF09F0106C111ED8B0112A10C010F0CE
:1012A80011C011F01200166A000E156E1050D96E9A
:1012B800DA6ADECFF6FFDDCFF7FF0800F5502A0A1D
:1012C800D8A469EF09F06BEF09F094EF09F010501A
:1012D800D96EDA6ADE2A000EDD221150D96EDA6A7A
:1012E800020EDF26DF5CD96EDA6ADECF15F0DECFBC
:1012F80016F0A7EF09F00A0E1502F3CF12F0F4CF9B
:1013080013F01602F350132614501224156E000E13
:101318001320166E1050D96EDA6ADE2A000EDD220E
:101328001050D96EDA6ADECFF6FFDDCFF7FF08007E
:10133800F550D00F146E090E1464A5EF09F0A7EF4D
:1013480009F07FEF09F015C010F016C011F0120077
:101358008A98FF0E106E63EC0CF0580E106E63EC5A
:101368000CF014C010F063EC0CF013C010F063EC38
:101378000CF012C010F063EC0CF011C010F063EC2C
:101388000CF0FF0E106E63EC0CF0FF0E106E63ECA9
:101398000CF0FF0AD8B4D3EF09F0D5EF09F0C9EF84
:1013A80009F0FF0E106E63EC0CF0FF0E106E63EC8C
:1013B8000CF0FF0E106E63EC0CF0FE0E106E63EC7A
:1013C8000CF0186A000E176E17501524D96E1850B5
:1013D8001620DA6EDF50106E63EC0CF0174A182AEC
:1013E800020E185CD8A0FBEF09F0FDEF09F0E8EF5A
:1013F80009F08A88120051A004EF0AF006EF0AF0FB
:101408000EEF0AF023C01BF021C01CF022C01DF013
:101418000EEC0BF025BE15EF0AF013EF0AF018EFEB
:101428000AF0256A000E246E286A000E276E28EF3F
:101438000AF0136A200E126E21C014F022C015F0B3
:1014480082EC07F0274A282A2450275C2850800A73
:10145800266E2550800A2658D8A035EF0AF037EFB7
:101468000AF01DEF0AF051B03CEF0AF03EEF0AF027
:1014780046EF0AF023C01BF021C01CF022C01DF06B
:101488000EEC0BF012006CBA4CEF0AF04EEF0AF0BB
:1014980089EF0AF01050050DEB0EF324F66E7A0E64
:1014A800F420F76E0800F5CF6DFF1050050D010E02
:1014B800F326000EF422EB0EF324F66E7A0EF420D7
:1014C800F76E0800F5CF6CFF1050050D020EF326DD
:1014D800000EF422EB0EF324F66E7A0EF420F76E6B
:1014E8000800F5CF69FF1050050D030EF326000E16
:1014F800F422EB0EF324F66E7A0EF420F76E080051
:10150800F5CF6EFF6C8A89EF0AF012000001656B57
:10151800000E646FABA293EF0AF095EF0AF0ABEF01
:101528000AF0648562516311D8B49DEF0AF09FEF09
:101538000AF0ABEF0AF002D8ABEF0AF00500FA6E3A
:101548006251FD6E6351FE6EFF6AFA501200ABA441
:10155800B0EF0AF0B2EF0AF0C9EF0AF000016483B5
:1015680047504810D8B4BBEF0AF0BDEF0AF0C9EFF6
:101578000AF002D8C9EF0AF00500FA6E4750FD6E6E
:101588004850FE6EFF6AFA501200AE50120088C032
:101598008BF089C08CF0DBEF0AF086C036F087C08C
:1015A80037F08B0E386E8AC039F05FEC03F08BC0D1
:1015B800F6FF8CC0F7FF0800F5500009D8A4E7EF44
:1015C8000AF0E9EF0AF0D1EF0AF00001876B000E8C
:1015D800866F12008A980D0E106E63EC0CF0116E77
:1015E8008A881128D8A4FBEF0AF0FDEF0AF000EF73
:1015F8000BF0FF0E0DEF0BF0FF0E106E63EC0CF00E
:10160800FF0E106E63EC0CF0FF0E106E63EC0CF026
:1016180011501200206A000E1F6E1EEF0BF01EC044
:1016280012F0136A1CC014F01DC015F082EC07F00C
:101638001F4A202A1B501F24D96EDA6ADF501E6EFB
:101648001E50D8A42AEF0BF02CEF0BF013EF0BF081
:101658001200898C0D6A000E0C6E0C4A0D2A0D5072
:1016680009E1280E0C5CD8A03CEF0BF03EEF0BF024
:1016780031EF0BF02BEC0CF0C00E02240A6EF90EC1
:1016880003200B6EA0EC0CF0F294899C120000EE83
:10169800A9F012EE00F0EE6AE550E150FCE1E250EC
:1016A800FAE100EE60F0260EEE6AE806FDE100EED3
:1016B80045F00D0EEE6AE806FDE101900192000E7C
:1016C800F86E000128EF00F0480EB86E900EAB6E71
:1016D800260EAC6E820EAF6E060EB06E5A0E106EEF
:1016E800190E116E48EC0CF0500E106E190E116E9A
:1016F8003AEC0CF00001656B000E646F1200D09E8E
:10170800F292F18C000E106E000E116E9BEC0CF034
:10171800F090F18A000E106E000E116E96EC0CF02F
:10172800F092F188000E106E000E116E91EC0CF024
:10173800120017BEA2EF0BF0A4EF0BF0AAEF0BF00C
:1017480016C016F017C017F0B6EF0BF016C018F059
:1017580017C019F0181E191E184A192A18C016F0B1
:1017680019C017F01200896A8A6A400E8B6EBF0E84
:10177800926EE50E936E8F0E946E800E966E2F0EFF
:101788000F01386F210E396F0C0E3A6F6168F00E39
:10179800626EF28612000001A751A811D8B4D7EFE3
:1017A8000BF0D9EF0BF0E5EF0BF002D8E5EF0BF0FB
:1017B8000500FA6EA751FD6EA851FE6EFF6AFA5039
:1017C8001200F2941200106A9EA8EDEF0BF0EFEFF2
:1017D8000BF0F8EF0BF0ACAAF4EF0BF0F6EF0BF010
:1017E800F8EF0BF0010E106E10501200D59CD76A5E
:1017F800D66A4A6A000E496E5C0E106E190E116E9A
:101808008CEC0CF0F294F28A9F0ED56E12008F0EBB
:10181800446E000E0001866F000E876F8DC088F041
:101828008EC089F0440E8A6FCBEC0AF01200116E5C
:10183800E7EC0BF00009D8B424EF0CF026EF0CF01D
:101848001CEF0CF011C010F0A5EC0CF01200D6CF74
:1018580008F0D7CF09F00950046E0850066E04C08E
:1018680007F006C002F007C003F012001050111074
:10187800D8B441EF0CF043EF0CF047EF0CF010C078
:1018880062F011C063F0120010501110D8B44FEF7D
:101898000CF051EF0CF055EF0CF010C047F011C0F0
:1018A80048F0120080EC0CF0B7EC0BF0FAEC0BF0FF
:1018B80068EC0BF079EC0CF083EC0BF0120010C024
:1018C8006FFFA4AE6AEF0CF06CEF0CF065EF0CF054
:1018D800A49E6F5012009EBA74EF0CF077EF0CF0D4
:1018E800010E78EF0CF0000E1200A39EA49E6D6A04
:1018F8006C6A696A6E6A1200700ED36E040ED26E3C
:10190800400E9B6E12001150D76E10C0D6FF120009
:1019180010C0A7F011C0A8F0120010C04BF011C001
:101928004CF0120010C04DF011C04EF0120010C063
:101938004FF011C050F012000B50D76E0AC0D6FFFE
:10194800120010C0ADFF1200AB98AB8812006C9A61
:0619580012001200120053
:107A9E0000D016000014154A19DE18CE170000008B
:107AAE0000000000000000000000000000000000C8
:107ABE000000000000000000009018741800000084
:107ACE0000F21800008E145619000000000000C6C7
:107ADE0018000000000000000000000000000A1066
:107AEE007F004001100300640010010020202020C0
:107AFE00436F6E6E656374206F7363696C6C6F7326
:107B0E00636F7065206368616E6E656C20312074E2
:107B1E006F20504943206865616465722070696EFC
:107B2E00205242312028766572746963616C20732D
:107B3E0063616C652032762F646976290D0A002008
:107B4E00202020436F6E6E656374206F7363696CC3
:107B5E006C6F73636F7065206368616E6E656C2009
:107B6E003220746F2050494320686561646572202D
:107B7E0070696E2052423320287665727469636193
:107B8E006C207363616C652032762F646976290DE3
:107B9E000A00303A2046696C6C206561636820707B
:107BAE006167652077697468206964656E746963BE
:107BBE00616C2076616C75652C20696E6372656DE3
:107BCE00656E74206F6E206E6578742070616765C7
:107BDE002E0D0A002D2D2D2D2D2D2D2D2D2D2D2D36
:107BEE002D2D2D20575249544520434F4E5345437A
:107BFE0054555449564520424C4F434B53202D2D3E
:107C0E002D2D2D2D2D2D2D2D2D2D2D2D2D0D0A0006
:107C1E000D0A2D2D2D2D2D2D2D2D2D2D2D2D2D2DC9
:107C2E002D2D2D2D2D2D2D2D2D2D2D2D2D2D2D2D76
:107C3E002D2D2D2D2D2D2D2D2D2D2D2D2D2D2D2D66
:107C4E002D2D2D0D0A002D2D2D2D2D2D2D2D2D2DC6
:107C5E002D2D2D2D2D2D53504920544553542D2D62
:107C6E002D2D2D2D2D2D2D2D2D2D2D2D2D2D2D2D36
:107C7E002D2D2D2D2D2D2D0D0A002D2D2D2D2D2D96
:107C8E002D2D2D2D2D2D2D2D53442043415244208D
:107C9E0054455354532D2D2D2D2D2D2D2D2D2D2D54
:107CAE002D2D2D2D2D2D2D2D2D2D2D0D0A00202080
:107CBE0020205365742074686520686F72697A6F2E
:107CCE006E74616C207363616C6520746F20353047
:107CDE00306E732F6469760D0A00577269746520D1
:107CEE00626C6F636B206F662064656372656D6591
:107CFE006E74656420382D6269742076616C7565CA
:107D0E00733A0D0A00723A20726561642061206236
:107D1E006C6F636B206F66202564206279746573C7
:107D2E002066726F6D20534420636172640D0A00E9
:107D3E00773A207772697465206120626C6F636B8D
:107D4E00206F6620256420627974657320746F201D
:107D5E00534420636172640D0A0050726F62652095
:107D6E0052433420746F2064657465726D696E655C
:107D7E0020777269746520706572696F640D0A00F0
:107D8E0050726F62652052433520746F20646574A3
:107D9E0065726D696E6520777269746520706572A3
:107DAE00696F640D0A00612F41206465637265611D
:107DBE0073652F696E6372656173652072656164A8
:107DCE0020616464726573730D0A00743A207365E2
:107DDE006E64206120546573742063686172616300
:107DEE00746572206F766572205350490D0A0055E6
:107DFE006E646572666C6F77656420746F20686957
:107E0E00676820616464726573730D0A0073656E32
:107E1E00743A202530327820207265636569766564
:107E2E00643A20253032780D0A002020202048693F
:107E3E007420616E79206B6579207768656E20728B
:107E4E00656164790D0A00426C6F636B204C656E40
:107E5E0067746820526573706F6E73653A2025786B
:107E6E000D0A004F766572666C6F77656420746FCD
:107E7E00206C6F7720616464726573730D0A004322
:107E8E004D44302C20526573657420526573706FAB
:107E9E006E73653A2025780D0A002020202054723A
:107EAE006967676572206F6E206368616E6E656CC0
:107EBE0020310D0A00434D44312C20496E69742047
:107ECE00526573706F6E73653A2025780D0A0069DE
:107EDE003A20496E697469616C697A652053442051
:107EEE00636172640D0A007A3A20436C65617220F8
:107EFE00746865207465726D696E616C0D0A002080
:107F0E002020205374617475733A20202020202580
:107F1E003032780D0A005A3A20526573657420701B
:107F2E00726F636573736F720D0A004465637265D9
:107F3E006173656420616464726573730D0A004930
:107F4E006E637265617365642061646472657373D8
:107F5E000D0A00534420636172642061646472658B
:107F6E0073733A2020005344206361726420746559
:107F7E007374696E670D0A00556E6B6E6F776E20A7
:107F8E006B65792025630D0A002020202041646452
:107F9E00726573733A20202020005265616420625E
:107FAE006C6F636B3A200D0A003F3A2068656C7067
:107FBE00206D656E750D0A00696E4C616220303958
:107FCE000D0A004465762732310D0A006F3A096FAB
:107FDE006B0D0A006F3A206B0D0A002530327820A7
:107FEE000025303478000D0A0A002563002E003A71
:027FFE00000081
:020000040030CA
:0E000000FF281F3CFFBF85FF0FC00FE00F4021
:00000001FF
