:040000002EEF00F0EF
:100008000182FACF0FF0FBCF10F0D9CF11F0DACF81
:1000180012F0F2AC12EF00F014EF00F024EF00F051
:10002800F2AA19EF00F01BEF00F024EF00F0F2A4A1
:1000380020EF00F022EF00F024EF00F00FEC10F0BA
:1000480012C0DAFF11C0D9FF10C0FBFF0FC0FAFFC2
:1000580001921100E3EF0EF0000E0001966F000E02
:10006800976F000E986F000E996F3AEC10F08A881F
:10007800146A000E136EE0EC10F0F294F2A447EF4D
:1000880000F049EF00F042EF00F08A0E136E150EF3
:10009800146EE5EC10F0F28EF28CC30E0001716F55
:1000A8007F0E726F5EEC10F0420E0001716F7F0ED2
:1000B800726F5EEC10F0CE0E0001716F7F0E726FE2
:1000C8005EEC10F008EC11F0010E136EF4EC0DF07C
:1000D800B5EC10F0BFEC10F00009D8B476EF00F0E2
:1000E80078EF00F06EEF00F037EC0EF00001936F40
:1000F800CFEF05F02F0E716F7B0E726F5EEC10F074
:100108000A0E0001716F7F0E726F5EEC10F0F10E37
:100118000001716F7F0E726F98C073F099C074F010
:10012800756B766B5EEC10F0FD0E0001716F7F0E43
:10013800726F5EEC10F0F10E0001716F7F0E726F3E
:10014800FF0E9615736FFF0E9715746F000E9815B6
:10015800756F000E9915766F5EEC10F0F90E0001C0
:10016800716F7B0E726F5EEC10F0310E0001716FD3
:100178007B0E726F5EEC10F0A60E0001716F7F0EA1
:10018800726F5EEC10F0DF0E0001716F7F0E726F00
:100198005EEC10F0CD0E0001716F7E0E726F5EEC9A
:1001A80010F09E0E0001716F7E0E726F5EEC10F003
:1001B800310E0001716F7B0E726F5EEC10F0860ECF
:1001C8000001716F7E0E726F5EEC10F0310E00014F
:1001D800716F7B0E726F5EEC10F0210E0001716F73
:1001E8007D0E726F5EEC10F0810E0001716F7C0E57
:1001F800726F020E746F000E736F5EEC10F0650E76
:100208000001716F7B0E726F5EEC10F0310E000111
:10021800716F7B0E726F5EEC10F0990E0001716FBA
:100228007B0E726F5EEC10F02A0E0001716F7C0E6F
:10023800726F5EEC10F0460E0001716F7D0E726FEA
:100248005EEC10F0310E0001716F7B0E726F5EEC88
:1002580010F06EEF00F0D70E716F7F0E726F5EECCC
:1002680010F06EEF00F0956B000E946F955109E158
:10027800280E945DD8A043EF01F045EF01F047EF59
:1002880001F052EF01F0F80E716F7F0E726F5EECA5
:1002980010F00001944B952B3AEF01F0FF006EEF40
:1002A80000F0956B000E946F955109E1280E945D4E
:1002B800D8A061EF01F063EF01F065EF01F06EEF98
:1002C80000F0F80E716F7F0E726F5EEC10F0000197
:1002D800944B952B58EF01F008EC11F0010E136EBA
:1002E800F4EC0DF0010E56EC08F06EEF00F0610E24
:1002F8009319D8A482EF01F084EF01F0AEEF01F07A
:10030800000E965F020E975B000E985B000E995BDD
:10031800040E995DD8A093EF01F095EF01F0A6EFD8
:1003280001F0C50E716F7D0E726F5EEC10F0000E5D
:100338000001966FFE0E976FFF0E986F030E996F70
:10034800D6EF01F0E20E716F7E0E726F5EEC10F068
:10035800D6EF01F0000E9627020E9723000E982381
:10036800000E9923040E995DD8A0BDEF01F0BFEFF0
:1003780001F0D0EF01F01C0E716F7E0E726F5EEC13
:1003880010F0000E0001966F000E976F000E986F28
:10039800000E996FD6EF01F0F60E716F7E0E726F38
:1003A8005EEC10F00A0E0001716F7F0E726F5EEC4A
:1003B80010F0F10E0001716F7F0E726F98C073F02C
:1003C80099C074F0756B766B5EEC10F0FD0E000151
:1003D800716F7F0E726F5EEC10F0F10E0001716F9D
:1003E8007F0E726FFF0E9615736FFF0E9715746F61
:1003F800000E9815756F000E9915766F5EEC10F06B
:10040800F90E0001716F7B0E726F5EEC10F06EEFEB
:1004180000F0A60E716F7D0E726F5EEC10F0000E8C
:100428000001966F000E976F000E986F000E996F7F
:100438006EEF00F0D50E716F7C0E726F5EEC10F0EF
:100448000001956B000E946F020E955DD8A02FEFFA
:1004580002F031EF02F033EF02F040EF02F0CB0E82
:100468009425D96E020E9521DA6E9451FF0ADF6E3B
:10047800944B952B28EF02F08B8896C014F097C008
:1004880015F098C016F099C017F0CB0E186E020E32
:10049800196E59EC0DF051EC0FF000018A6F8A29A2
:1004A800D8B459EF02F05BEF02F04FEF02F08B98EF
:1004B800560E716F7C0E726F5EEC10F0650E0001C7
:1004C800716F7F0E726F5EEC10F0F10E0001716FAC
:1004D8007F0E726F98C073F099C074F0756B766B6D
:1004E8005EEC10F0FD0E0001716F7F0E726F5EEC16
:1004F80010F0F10E0001716F7F0E726FFF0E9615EE
:10050800736FFF0E9715746F000E9815756F000EB8
:100518009915766F5EEC10F0F90E0001716F7B0E85
:10052800726F5EEC10F0B60E0001716F7E0E726F86
:100538008AC073F0746B5EEC10F06EEF00F0FB0E87
:10054800716F7C0E726F5EEC10F08B8A96C014F09F
:1005580097C015F098C016F099C017F0CB0E186E1A
:10056800020E196E55EC0CF08B9A970E0001716F04
:100578007F0E726F5EEC10F0650E0001716F7F0EDA
:10058800726F5EEC10F0F10E0001716F7F0E726FEA
:1005980098C073F099C074F0756B766B5EEC10F0D0
:1005A800FD0E0001716F7F0E726F5EEC10F0F10EA0
:1005B8000001716F7F0E726FFF0E9615736FFF0E3D
:1005C8009715746F000E9815756F000E9915766F54
:1005D8005EEC10F0F90E0001716F7B0E726F5EEC2D
:1005E80010F0CB0E0001776F020E786F61EC07F008
:1005F8006EEF00F0876B000E866F926B000E916FA6
:10060800926B000E916F925109E1050E915DD8A091
:1006180010EF03F012EF03F014EF03F08AEF03F08A
:100628008C6B000E8B6F020E8C5DD8A01EEF03F052
:1006380020EF03F022EF03F045EF03F0B70E862515
:10064800F66E790E8721F76ECB0E8B25D96E020ECA
:100658008C21DA6E0800F5CFDFFF010E8625136EB8
:10066800000E8721146E166A1A0E156EB1EC0EF084
:1006780013C086F014C087F000018B4B8C2B17EF4A
:1006880003F096C014F097C015F098C016F099C002
:1006980017F0CB0E186E020E196E59EC0DF051ECD6
:1006A8000FF000018A6F8A29D8B45DEF03F05FEF7D
:1006B80003F053EF03F0146A000E136E2FEC0FF0E3
:1006C8009E909EA06AEF03F06CEF03F065EF03F0D5
:1006D800000E00019627020E9723000E9823000EA5
:1006E8009923040E995DD8A07CEF03F07EEF03F008
:1006F80086EF03F0000E966F000E976F000E986F4E
:10070800000E996F914B922B07EF03F0860E716FD5
:100718007D0E726F91C073F092C074F05EEC10F0B1
:100728006EEF00F02B0E9319D8A49DEF03F09FEF06
:1007380003F0A5EF03F0A00EC927000ECA236EEF41
:1007480000F0600EC925816FFF0ECA21826F400E2E
:10075800815D010E8259D8A0B4EF03F0B6EF03F023
:10076800BCEF03F0A00EC95F000ECA5B6EEF00F08D
:10077800AC0E716F7C0E726F5EEC10F06EEF00F0D5
:100788008E6B000E8D6F020E8E5DD8A0CEEF03F03B
:10079800D0EF03F0D2EF03F0DDEF03F0CB0E8D25A1
:1007A800D96E020E8E21DA6EDF6A8D4B8E2BC7EF63
:1007B80003F096C014F097C015F098C016F099C0D1
:1007C80017F0CB0E186E020E196E59EC0DF051ECA5
:1007D8000FF000018A6F8A29D8B4F5EF03F0F7EF1C
:1007E80003F0EBEF03F0146A000E136E2FEC0FF01A
:1007F8009E909EA002EF04F004EF04F0FDEF03F0DA
:10080800000E00019627020E9723000E9823000E73
:100818009923DDEF03F0E00E716F790E726F5EECD5
:1008280010F0BFEC10F00009D8B41DEF04F01FEF72
:1008380004F015EF04F037EC0EF00001836F760E2C
:10084800716F7F0E726F5EEC10F000019F6B000EEF
:100858009E6F9D6B000E9C6F010EA26F0001A2059A
:10086800D8B439EF04F03BEF04F032EF04F096C04F
:1008780014F097C015F098C016F099C017F0CB0E79
:10088800186E000E196E59EC0DF051EC0FF00001C6
:100898008A6F8A29D8B453EF04F055EF04F049EF72
:1008A80004F0146A000E136E2FEC0FF09E909EA0B9
:1008B80060EF04F062EF04F05BEF04F0000E00015B
:1008C8009627020E9723000E9823000E9923040EF4
:1008D800995DD8A072EF04F074EF04F07CEF04F097
:1008E800000E966F000E976F000E986F000E996FAE
:1008F800020EA219D8B483EF04F085EF04F07CEF60
:1009080004F096C014F097C015F098C016F099C07E
:1009180017F0CB0E186E020E196E59EC0DF051EC53
:100928000FF000018A6F8A29D8B49DEF04F09FEF79
:1009380004F093EF04F0146A000E136E2FEC0FF01E
:100948009E909EA0AAEF04F0ACEF04F0A5EF04F08F
:10095800000E00019627020E9723000E9823000E22
:100968009923040E995DD8A0BCEF04F0BEEF04F003
:10097800C6EF04F0000E966F000E976F000E986F8A
:10098800000E996FBFEC10F00009D8B4CEEF04F058
:10099800D0EF04F032EF04F037EC0EF00001846F72
:1009A8001D0E716F7F0E726F5EEC10F00001A26B6E
:1009B8006EEF00F0BB0E716F7A0E726F5EEC10F086
:1009C800770E0001716F7A0E726F5EEC10F0F50E03
:1009D8000001716F7A0E726F5EEC10F0E30E000189
:1009E800716F7D0E726F5EEC10F0300E0001716F4A
:1009F8007F0E726F5EEC10F0FC0E0001716F7B0EC3
:100A0800726F5EEC10F02E0E0001716F7A0E726F2D
:100A18005EEC10F0B50E0001716F7F0E726F5EEC28
:100A280010F06D0E0001716F7E0E726F5EEC10F0AB
:100A3800BFEC10F00009D8B424EF05F026EF05F05C
:100A48001CEF05F037EC0EF00001856F896B000E86
:100A5800886F895109E1800E885DD8A036EF05F0CE
:100A680038EF05F03AEF05F099EF05F096C014F06D
:100A780097C015F098C016F099C017F0CB0E186EF5
:100A8800020E196E55EC0CF0000E00019627020EAE
:100A98009723000E9823000E9923040E995DD8A081
:100AA80058EF05F05AEF05F062EF05F0000E966F6B
:100AB800000E976F000E986F000E996F906B000EE6
:100AC8008F6F020E905DD8A06CEF05F06EEF05F009
:100AD80070EF05F094EF05F0EC0E716F7F0E726FFA
:100AE800CB0E8F25D96E020E9021DA6EDF50816F02
:100AF8008151736F746B5EEC10F0BFEC10F000095D
:100B0800D8B489EF05F08BEF05F08FEF05F037ECDF
:100B18000EF094EF05F000018F4B902B65EF05F078
:100B28000001884B892B2DEF05F0CB0E716F7B0EE2
:100B3800726F5EEC10F0F50E0001716F7A0E726F35
:100B48005EEC10F0E30E0001716F7D0E726F5EECCB
:100B580010F0300E0001716F7F0E726F5EEC10F0B6
:100B6800660E0001716F7D0E726F5EEC10F0870EDD
:100B78000001716F7F0E726F5EEC10F06EEF00F087
:100B8800540E716F7F0E726F93C073F0746B5EECCE
:100B980010F06EEF00F093512B0AD8B496EF03F0E3
:100BA800060AD8B496EF03F01D0AD8B40DEF02F088
:100BB800010AD8B4FEEF02F00E0AD8B47EEF00F0B6
:100BC8007E0AD8B47BEF01F0110AD8B4C4EF03F061
:100BD800070AD8B40FEF04F00D0AD8B437EF01F0C4
:100BE8003B0AD8B47BEF01F0080AD8B470EF01F0E3
:100BF800060AD8B42FEF01F01D0AD8B4A3EF02F00B
:100C0800010AD8B4DEEF04F0040AD8B41EEF02F0EB
:100C18000D0AD8B455EF01F0C4EF05F02EEF00F03F
:100C28003B50D96EDA6ADECFF6FFDDCFF7FF08005A
:100C3800F550250AD8A423EF06F025EF06F04DEF6E
:100C480007F03B50D96EDA6ADE2A000EDD223F6AD1
:100C5800000E3E6E3EC04EF000019A699B69636BC0
:100C680052EF06F04E823B50D96EDA6ADE2A000E49
:100C7800DD2252EF06F0010E636F52EF06F03B5093
:100C8800D96EDA6ADECFF6FFDDCFF7FF0800F55040
:100C9800300AD8B436EF06F03FEF06F06351D8B407
:100CA80058EF06F05AEF06F043EF06F03BC013F09A
:100CB8003CC014F004EC0DF013C03EF014C03FF03B
:100CC8003FBE6BEF06F069EF06F070EF06F04E805E
:100CD8003E6C3F1ED8B03F2A3B50D96EDA6ADECF51
:100CE800F6FFDDCFF7FF0800F550630AD8A47FEFC1
:100CF80006F081EF06F09CEF06F03B50D96EDA6AF9
:100D0800DE2A000EDD223C50D96EDA6ADF50DF2A77
:100D1800DF2AD96EDA6ADF500001626F39C01EF02F
:100D28003AC01FF062C020F094EC0BF060EF07F0BF
:100D38003B50D96EDA6ADECF68F0DDCF69F068C063
:100D4800F6FF69C0F7FF0800F550640AD8B4AFEFA2
:100D580006F0B1EF06F0BFEF06F068C0F6FF69C015
:100D6800F7FF0800F550690AD8A4BDEF06F0BFEFF9
:100D780006F0E5EF06F03C50D96EDA6A020EDF267F
:100D8800DF5CD96EDA6ADECF64F0DECF65F0010E83
:100D980000016825606F000E6921616F3B50D96EB4
:100DA800DA6A60C0DEFF61C0DDFF39C02CF03AC0EE
:100DB8002DF064C02EF065C02FF02DEC09F060EF27
:100DC80007F068C0F6FF69C0F7FF0800F550780A19
:100DD800D8B4F1EF06F0F3EF06F001EF07F068C0C2
:100DE800F6FF69C0F7FF0800F550750AD8A4FFEFB1
:100DF80006F001EF07F045EF07F03C50D96EDA6ACC
:100E0800020EDF26DF5CD96EDA6ADECF64F0DECF51
:100E180065F0010E00016825606F000E6921616FA1
:100E28003B50D96EDA6A60C0DEFF61C0DDFF35EF86
:100E380007F039C02CF03AC02DF064C02EF065C020
:100E48002FF058EC0AF060EF07F039C02CF03AC0E8
:100E58002DF064C02EF065C02FF0DCEC09F060EFD7
:100E680007F068C0F6FF69C0F7FF0800F550750A7B
:100E7800D8B41DEF07F00D0AD8B429EF07F045EFF5
:100E880007F03B50D96EDA6ADE2A000EDD2260EFE9
:100E980007F03B50D96EDA6ADECFF6FFDDCFF7FFF9
:100EA8000800F550156E166A39C017F03AC018F0E8
:100EB8002FEC0BF045EF07F01200F60E0001716FF2
:100EC8007F0E726F5EEC10F00001806B000E7F6F7A
:100ED8007F518011D8B473EF07F075EF07F08AEFF0
:100EE80007F0070E7F15796F000E80157A6F79511C
:100EF8007A11D8A482EF07F084EF07F08AEF07F0A1
:100F0800740E716F7F0E726F5EEC10F000017F51EE
:100F18008011D8B492EF07F094EF07F0EDEF07F0E7
:100F28000F0E7F15796F000E80157A6F79517A113F
:100F3800D8A4A1EF07F0A3EF07F0EDEF07F0730EC9
:100F4800716F7F0E726F5EEC10F0F00E00017F255E
:100F58007B6FFF0E80217C6FDCEF07F07B517725DC
:100F6800D96E7C517821DA6E200EDF60BEEF07F073
:100F7800C0EF07F0C8EF07F0850E716F7F0E726F34
:100F88005EEC10F0D9EF07F0FA0E716F7F0E726FFA
:100F98007B517725D96E7C517821DA6EDF50796FD5
:100FA8007951736F746B5EEC10F000017B4B7C2BF6
:100FB8007F517B5D80517C59D8A0E5EF07F0E7EFC2
:100FC80007F0B2EF07F0F90E716F7B0E726F5EECEF
:100FD80010F0E60E0001716F7F0E726F7F5177255A
:100FE800D96E80517821DA6EDF50796F7951736F3D
:100FF800746B5EEC10F000017F4B802B020E805D5D
:10100800D8A009EF08F00BEF08F06CEF07F0720EAC
:10101800716F7F0E726F5EEC10F0F00E00017F258D
:101028007D6FFF0E80217E6F44EF08F07D5177259C
:10103800D96E7E517821DA6E200EDF6026EF08F037
:1010480028EF08F030EF08F0850E716F7F0E726F91
:101058005EEC10F041EF08F0FA0E716F7F0E726FC0
:101068007D517725D96E7E517821DA6EDF50796F00
:101078007951736F746B5EEC10F000017D4B7E2B21
:101088007F517D5D80517E59D8A04DEF08F04FEF1C
:1010980008F01AEF08F0F90E716F7B0E726F5EECB4
:1010A80010F012000001796F0001786B000E776F65
:1010B800FF0E136EA9EC10F00001774B782B78BF68
:1010C8006FEF08F0785109E10A0E775DD8A06FEF4D
:1010D80008F071EF08F05CEF08F08A98FF0E136EC5
:1010E800A9EC10F0400E136EA9EC10F0000E136E70
:1010F800A9EC10F0000E136EA9EC10F0000E136EA0
:10110800A9EC10F0000E136EA9EC10F0950E136EFA
:10111800A9EC10F0FF0E136EA9EC10F0FF0E136E81
:10112800A9EC10F000017A6F8A887905D8A49FEF9E
:1011380008F0A1EF08F0AAEF08F0380E716F7E0EE4
:10114800726F7AC073F0746B5EEC10F08A98FF0EC1
:10115800136EA9EC10F0410E136EA9EC10F0000EFE
:10116800136EA9EC10F0000E136EA9EC10F0000E2F
:10117800136EA9EC10F0000E136EA9EC10F0FF0E20
:10118800136EA9EC10F0FF0E136EA9EC10F0FF0E11
:10119800136EA9EC10F000017A6F8A887A51D8A4EE
:1011A800D8EF08F0DAEF08F0AAEF08F07905D8A42C
:1011B800E0EF08F0E2EF08F0EBEF08F0530E716F84
:1011C8007E0E726F7AC073F0746B5EEC10F08A98C2
:1011D800FF0E136EA9EC10F0500E136EA9EC10F070
:1011E800000E136EA9EC10F0000E136EA9EC10F0AF
:1011F800020E136EA9EC10F0000E136EA9EC10F09D
:10120800FF0E136EA9EC10F0FF0E136EA9EC10F090
:10121800FF0E136EA9EC10F000017A6F8A887A2904
:10122800D8B419EF09F01BEF09F0EBEF08F07905D6
:10123800D8A421EF09F023EF09F02CEF09F0000EF4
:10124800716F7E0E726F7AC073F0746B5EEC10F083
:101258001200010E326E2FBE34EF09F037EF09F09D
:10126800010E38EF09F0000E356E3EC033F03FC076
:1012780034F03550D8B443EF09F045EF09F05AEF90
:1012880009F03306D8A034063550D8A44EEF09F03B
:1012980050EF09F055EF09F0316A2B0E306E58EF18
:1012A80009F0316A2D0E306E30C035F0376A1F0EE6
:1012B800366E0001C26B8BEF09F03606D8A03706F0
:1012C8003650A30FD96EDA6A2EC013F02FC014F06F
:1012D800166A0A0E156EADEC0CF013C019F014C0A6
:1012E8001AF0ABEC0FF01950300FDF6E326A33068C
:1012F800D8A034062EC013F02FC014F0166A0A0EB8
:10130800156EF5EC0BF013C02EF014C02FF037BE9D
:1013180096EF09F0375008E13604D8A096EF09F0A7
:1013280098EF09F0BDEF09F02E502F10D8A49FEFC9
:1013380009F0A1EF09F061EF09F03250D8A4A7EF46
:1013480009F0A9EF09F061EF09F034BEB4EF09F034
:10135800345008E13304D8A0B4EF09F0B6EF09F02F
:10136800BDEF09F04EB2BBEF09F0BDEF09F061EF38
:1013780009F03550D8B4C3EF09F0C5EF09F0CEEF46
:1013880009F03606D8A037063650A30FD96EDA6AA8
:1013980035C0DFFF2CC024F02DC025F03650A30F38
:1013A800266E33C027F034C028F0ACEC0DF01200E4
:1013B800010E336E3EC034F03FC035F0386A1F0E60
:1013C800376E0001C26B17EF0AF03706D8A038064F
:1013D8002E500F0B366E0A0E3660F5EF09F0F7EF58
:1013E80009F0FBEF09F0300E3626FDEF09F0570E35
:1013F80036263750A30FD96EDA6A36C0DFFF336A54
:101408003406D8A035062EC030F02FC031F0040EB7
:10141800326ED89031323032322E0DEF0AF030C0B1
:101428002EF031C02FF038BE23EF0AF0385009E112
:10143800020E375CD8A023EF0AF025EF0AF04AEF36
:101448000AF02E502F10D8A42CEF0AF02EEF0AF035
:10145800E9EF09F03350D8A434EF0AF036EF0AF078
:10146800E9EF09F035BE41EF0AF0355008E13404E0
:10147800D8A041EF0AF043EF0AF04AEF0AF04EB263
:1014880048EF0AF04AEF0AF0E9EF09F02CC024F01F
:101498002DC025F03750A30F266E34C027F035C075
:1014A80028F0ACEC0DF01200010E306E3EC031F0A9
:1014B8003FC032F0346A1F0E336E0001C26B89EFF1
:1014C8000AF03306D8A034063350A30FD96EDA6A6F
:1014D8002EC013F02FC014F0166A0A0E156EB1EC68
:1014E8000EF01350300FDF6E306A3106D8A0320686
:1014F8002EC013F02FC014F0166A0A0E156E78EC81
:101508000EF013C02EF014C02FF033503410D8B49E
:1015180090EF0AF092EF0AF0B7EF0AF02E502F1072
:10152800D8A499EF0AF09BEF0AF065EF0AF0305063
:10153800D8A4A1EF0AF0A3EF0AF065EF0AF032BED3
:10154800AEEF0AF0325008E13104D8A0AEEF0AF04D
:10155800B0EF0AF0B7EF0AF04EB2B5EF0AF0B7EF06
:101568000AF065EF0AF02CC024F02DC025F03350A6
:10157800A30F266E31C027F032C028F0ACEC0DF076
:10158800120008EF0BF0C282C4CF0EF0A205D8A457
:10159800D0EF0AF0D2EF0AF0EDEF0AF0CB0E9E255D
:1015A800D96E000E9F21DA6E0EC0DFFF9E4B9F2B77
:1015B800020E9F199E11D8A4E4EF0AF0E6EF0AF094
:1015C80022EF0BF09F6B000E9E6F020EA26F22EFB0
:1015D8000BF0CB0E9C25D96E020E9D21DA6E0EC043
:1015E800DFFF9C4B9D2B020E9D199C11D8A4FFEF89
:1015F8000AF001EF0BF022EF0BF09D6B000E9C6FD1
:10160800010EA26F22EF0BF00001A2510C6E0D6AC1
:101618000D50000AD8B413EF0BF022EF0BF00C506A
:10162800000AD8B422EF0BF0010AD8B4C7EF0AF0C9
:10163800030AD8B4C7EF0AF022EF0BF07EEC10F0E3
:101648000001C951025C0A6ECA5103580B6EF9ECCD
:1016580010F0F294120017501810D8B436EF0BF0AF
:1016680038EF0BF041EF0BF017501810D8A43FEFEC
:101678000BF041EF0BF046EF0BF015506EEC10F04D
:1016880093EF0BF020EE09F01750D9261850DA2204
:10169800DE50DE10D8B453EF0BF055EF0BF070EFBF
:1016A8000BF020EE09F01750D9261850DA2210EE68
:1016B80002F01750E1261850E222DE50E65CE650B0
:1016C800800A1D6EDE50800A1D58D8B06EEF0BF0F0
:1016D80070EF0BF093EF0BF020EE02F01750D926C5
:1016E8001850DA22DECF19F0DDCF1AF017C0D9FF73
:1016F80018C0DAFFDECF1BF0DDCF1CF019501B2419
:10170800D96E1A501C20DA6E15C0DFFF20EE02F0E9
:101718001750D9261850DA22DE2A000EDD221200D0
:101728003E503F10D8A49BEF0BF09DEF0BF0A3EFBA
:101738000BF03EC024F03FC025F0A9EF0BF0FF0EE0
:101748003E24246EFF0E3F20256E4EA0AEEF0BF018
:10175800B0EF0BF0B9EF0BF020C015F0166A1EC001
:1017680017F01FC018F02FEC0BF025BEBEEF0BF0E2
:10177800C0EF0BF0C2EF0BF0C5EF0BF0256A000EBF
:10178800246E236A000E226ED5EF0BF0166A200E27
:10179800156E1EC017F01FC018F02FEC0BF0224A70
:1017A800232A2450225C2350800A216E2550800A67
:1017B8002158D8A0E2EF0BF0E4EF0BF0CAEF0BF0E2
:1017C8004EB0E9EF0BF0EBEF0BF0F4EF0BF020C0AD
:1017D80015F0166A1EC017F01FC018F02FEC0BF09A
:1017E8001200186A16BEFDEF0BF0FBEF0BF003EFCB
:1017F8000CF0156C161ED8B0162A010E186E14BE01
:101808000AEF0CF008EF0CF010EF0CF0136C141E3C
:10181800D8B0142A010E181A1A6A000E196E15503B
:101828001610D8B41AEF0CF01CEF0CF044EF0CF0C3
:10183800010E176E24EF0CF0D89015361636172ABD
:1018480016AE29EF0CF02BEF0CF020EF0CF0D8902F
:1018580019361A361550135C16501458D8A037EF9D
:101868000CF039EF0CF03EEF0CF01550135E1650EB
:10187800145A1980D89016321532172E2BEF0CF007
:101888001850D8B44AEF0CF04CEF0CF050EF0CF0B5
:10189800196C1A1ED8B01A2A19C013F01AC014F0FD
:1018A80012008A98FF0E136EA9EC10F0510E136EF9
:1018B800A9EC10F017C013F0A9EC10F016C013F043
:1018C800A9EC10F015C013F0A9EC10F014C013F037
:1018D800A9EC10F0FF0E136EA9EC10F0FF0E136EBA
:1018E800A9EC10F0FF0AD8B47CEF0CF07EEF0CF0F6
:1018F80072EF0CF0FF0E136EA9EC10F0FF0AD8B4CB
:1019080088EF0CF08AEF0CF07EEF0CF01B6A000EEB
:101918001A6E1A501824D96E1B501920DA6EFF0E51
:10192800136EA9EC10F0DF6E1A4A1B2A020E1B5C1C
:10193800D8A0A1EF0CF0A3EF0CF08DEF0CF0FF0E88
:10194800136EA9EC10F0FF0E136EA9EC10F08A8844
:101958001200186A14BEB5EF0CF0B3EF0CF0BBEF31
:101968000CF0136C141ED8B0142A010E186E16BE93
:10197800C2EF0CF0C0EF0CF0C6EF0CF0156C161EA1
:10198800D8B0162A15501610D8B4CDEF0CF0CFEFFA
:101998000CF0F3EF0CF0010E176ED7EF0CF0D890A7
:1019A80015361636172A16AEDCEF0CF0DEEF0CF003
:1019B800D3EF0CF01550135C16501458D8A0E7EF6D
:1019C8000CF0E9EF0CF0EDEF0CF01550135E16502B
:1019D800145AD89016321532172EDEEF0CF0185024
:1019E800D8B4F9EF0CF0FBEF0CF0FFEF0CF0136C30
:1019F800141ED8B0142A13C013F014C014F0120027
:101A0800196A000E186E1350D96EDA6ADECFF6FF27
:101A1800DDCFF7FF0800F5502A0AD8A416EF0DF01D
:101A280018EF0DF041EF0DF01350D96EDA6ADE2A87
:101A3800000EDD221450D96EDA6A020EDF26DF5C52
:101A4800D96EDA6ADECF18F0DECF19F054EF0DF058
:101A58000A0E1802F3CF15F0F4CF16F01902F3505E
:101A6800162617501524186E000E1620196E1350DE
:101A7800D96EDA6ADE2A000EDD221350D96EDA6AD0
:101A8800DECFF6FFDDCFF7FF0800F550D00F176E59
:101A9800090E176452EF0DF054EF0DF02CEF0DF016
:101AA80018C013F019C014F012008A98FF0E136EB4
:101AB800A9EC10F0580E136EA9EC10F017C013F033
:101AC800A9EC10F016C013F0A9EC10F015C013F033
:101AD800A9EC10F014C013F0A9EC10F0FF0E136E6F
:101AE800A9EC10F0FF0E136EA9EC10F0FF0AD8B4A1
:101AF80080EF0DF082EF0DF076EF0DF0FF0E136E14
:101B0800A9EC10F0FF0E136EA9EC10F0FF0E136E87
:101B1800A9EC10F0FE0E136EA9EC10F01B6A000E73
:101B28001A6E1A501824D96E1B501920DA6EDF501D
:101B3800136EA9EC10F01A4A1B2A020E1B5CD8A0DF
:101B4800A8EF0DF0AAEF0DF095EF0DF08A881200BE
:101B58004EA0B1EF0DF0B3EF0DF0BBEF0DF026C0C6
:101B68001EF024C01FF025C020F071EC0FF028BE35
:101B7800C2EF0DF0C0EF0DF0C5EF0DF0286A000EB2
:101B8800276E2B6A000E2A6ED5EF0DF0166A200E0E
:101B9800156E24C017F025C018F02FEC0BF02A4A58
:101BA8002B2A27502A5C2B50800A296E2850800A3D
:101BB8002958D8A0E2EF0DF0E4EF0DF0CAEF0DF0D0
:101BC8004EB0E9EF0DF0EBEF0DF0F3EF0DF026C09E
:101BD8001EF024C01FF025C020F071EC0FF0120099
:101BE8006CBAF9EF0DF0FBEF0DF036EF0EF0135075
:101BF800050DD10EF324F66E790EF420F76E080069
:101C0800F5CF6DFF1350050D010EF326000EF422DB
:101C1800D10EF324F66E790EF420F76E0800F5CF96
:101C28006CFF1350050D020EF326000EF422D10EA0
:101C3800F324F66E790EF420F76E0800F5CF69FFED
:101C48001350050D030EF326000EF422D10EF324D3
:101C5800F66E790EF420F76E0800F5CF6EFF6C8AE9
:101C680036EF0EF012000001A16B000EA06FABA2C0
:101C780040EF0EF042EF0EF058EF0EF0A085405006
:101C88004110D8B44AEF0EF04CEF0EF058EF0EF0BA
:101C980002D858EF0EF00500FA6E4050FD6E415024
:101CA800FE6EFF6AFA501200ABA45DEF0EF05FEF14
:101CB8000EF076EF0EF00001A08342504310D8B426
:101CC80068EF0EF06AEF0EF076EF0EF002D876EFBE
:101CD8000EF00500FA6E4250FD6E4350FE6EFF6A2C
:101CE800FA501200AE501200196A000E186E155004
:101CF8001610D8B482EF0EF084EF0EF0ACEF0EF0B1
:101D0800010E176E8CEF0EF0D89015361636172A7E
:101D180016AE91EF0EF093EF0EF088EF0EF0D8901C
:101D2800183619361550135C16501458D8A09FEF62
:101D38000EF0A1EF0EF0A6EF0EF01550135E165040
:101D4800145A1880D89016321532172E93EF0EF0C9
:101D580018C013F019C014F0120015501610D8B49A
:101D6800B8EF0EF0BAEF0EF0DEEF0EF0010E176EC0
:101D7800C2EF0EF0D89015361636172A16AEC7EFF2
:101D88000EF0C9EF0EF0BEEF0EF01550135C1650B2
:101D98001458D8A0D2EF0EF0D4EF0EF0D8EF0EF012
:101DA8001550135E1650145AD89016321532172E45
:101DB800C9EF0EF013C013F014C014F01200140E83
:101DC800F66E220EF76E000EF86E0900F5CFC9F018
:101DD8000900F5CFCAF000EECBF014EE00F0EE6A81
:101DE800E550E150FCE1E250FAE100EE9AF0290EEC
:101DF800EE6AE806FDE100EE3EF0110EEE6AE80636
:101E0800FDE101900192000EF86E000130EF00F044
:101E18006CC06FF06DC070F01CEF0FF06AC039F045
:101E28006BC03AF06F0E3B6E6EC03CF014EC06F0DF
:101E38006FC0F6FF70C0F7FF0800F5500009D8A47E
:101E480028EF0FF02AEF0FF012EF0FF000016B6B85
:101E5800000E6A6F1200CDA434EF0FF036EF0FF0CA
:101E68004CEF0FF0CDB03BEF0FF03EEF0FF0010E4F
:101E78003FEF0FF0000E156ECD901450CF6E13C0CB
:101E8800CEFF15B002D0CD9001D0CD8050EF0FF02D
:101E98001450CF6E13C0CEFF12008A980D0E136E29
:101EA800A9EC10F0146E8A881428D8A45EEF0FF0FD
:101EB80060EF0FF063EF0FF0FF0E70EF0FF0FF0E03
:101EC800136EA9EC10F0FF0E136EA9EC10F0FF0EC4
:101ED800136EA9EC10F014501200236A000E226E43
:101EE80081EF0FF021C015F0166A1FC017F020C04F
:101EF80018F02FEC0BF0224A232A1E502224D96E08
:101F0800DA6ADF50216E2150D8A48DEF0FF08FEFE1
:101F18000FF076EF0FF01200480EB86E900EAB6E11
:101F2800260EAC6E400EAF6E030EB06E160E136E1C
:101F3800220E146E9BEC10F00A0E136E220E146E15
:101F48008DEC10F00001A16B000EA06F12001ABEFC
:101F5800B0EF0FF0B2EF0FF0B8EF0FF019C019F0B3
:101F68001AC01AF0C4EF0FF019C01BF01AC01CF009
:101F78001B1E1C1E1B4A1C2A1BC019F01CC01AF071
:101F88001200D09EF292F18C000E136E000E146EA9
:101F9800F4EC10F0F090F18A000E136E000E146E3F
:101FA800EFEC10F0F092F188000E136E000E146E34
:101FB800EAEC10F01200CD90CF6ACE6ACF50136EC3
:101FC800CE50446E13C045F0CC6A000E0001C56FB8
:101FD800000EC66F000EC36F000EC46F9E90A490D3
:101FE800350ECD6E1200896A8A6A400E8B6EBF0E5E
:101FF800926EE50E936E8F0E946E800E966E2F0E77
:102008000F01386F210E396F0C0E3A6F6168F00EB0
:10201800626EF28612000001C751C811D8B417EFDA
:1020280010F019EF10F025EF10F002D825EF10F09E
:102038000500FA6EC751FD6EC851FE6EFF6AFA5070
:102048001200F2941200136A9EA82DEF10F02FEFE1
:1020580010F038EF10F0ACAA34EF10F036EF10F0B3
:1020680038EF10F0010E136E13501200D9EC10F077
:10207800F7EC0FF0FEEC10F04DEC10F0DFEC0FF089
:10208800C9EC10F090EC0FF0D2EC10F0C5EC0FF0AA
:102098001200D59CD76AD66A476A000E466E180E9B
:1020A800136E220E146EE5EC10F0F294F28A9F0E75
:1020B800D56E1200730E3D6E000E00016A6F000EA1
:1020C8006B6F71C06CF072C06DF03D0E6E6F0CECF2
:1020D8000FF01200146E27EC10F00009D8B477EF57
:1020E80010F079EF10F06FEF10F014C013F002EC5D
:1020F80011F01200D6CF08F0D7CF09F00950046EBE
:102108000850066E04C007F006C002F007C003F0CE
:10211800120013501410D8B494EF10F096EF10F08A
:102128009AEF10F013C040F014C041F012001350A1
:102138001410D8B4A2EF10F0A4EF10F0A8EF10F02C
:1021480013C042F014C043F0120013C06FFFA4AED6
:10215800B0EF10F0B2EF10F0ABEF10F0A49E6F509C
:10216800120008EC11F0010E136EF4EC0DF0010EE4
:1021780056EC08F012009EBAC4EF10F0C7EF10F04A
:10218800010EC8EF10F0000E1200C16A260EC06ED4
:10219800C36AC46A130EC26E9E9C1200A39EA49EBC
:1021A8006D6A6C6A696A6E6A1200700ED36E040EEC
:1021B800D26E400E9B6E12001450D76E13C0D6FF1D
:1021C800120013C0C7F014C0C8F0120013C048F0C2
:1021D80014C049F0120013C04AF014C04BF01200AA
:1021E80013C04CF014C04DF012000B50D76E0AC04B
:1021F800D6FF12000F01546B556B120013C0ADFFD0
:102208001200AB98AB8812006C9A120040061200BC
:022218001200B2
:10796A0000201F00006E1C04227E214E2000000011
:10797A0000000000000000000000000000000000FD
:10798A0000000000000000000036211A210000005B
:10799A0000A4210000E81B10220000000000005291
:1079AA0021000000000000000000000000809FBBD2
:1079BA00D5E9F8FFFFF8E9D5BB9F8061452B170889
:1079CA00010108172B4561000A107F0040011003CE
:1079DA00006400100100507265737320616E792093
:1079EA006B657920746F2073746172742072656399
:1079FA006F7264696E6720617564696F20616E6475
:107A0A0020707265737320616E79206B65792074BA
:107A1A006F2073746F70207265636F7264696E672A
:107A2A002E0D0A004C6F672066696C65206E616DC9
:107A3A00653A20202042726F77736520616E642058
:107A4A0070726F766964652061202E637376206593
:107A5A007874656E73696F6E20746F20796F7572B2
:107A6A002066696C65206E616D650D0A00546F2091
:107A7A0073706F6F6C207465726D696E616C2063D0
:107A8A006F6E74656E747320696E746F2061206600
:107A9A00696C6520666F6C6C6F77207468657365B6
:107AAA0020696E737472756374696F6E733A0D0A26
:107ABA0000596F75206D6179207465726D696E6108
:107ACA0074652073706F6F6C696E672061742061D2
:107ADA006E792074696D6520776974682061206BFE
:107AEA00657970726573732E0D0A0052696768743E
:107AFA00206D6F75736520636C69636B206F6E20F0
:107B0A00746865207570706572206C656674206F84
:107B1A0066207468652050755454592077696E64DC
:107B2A006F770D0A000D0A2D2D2D2D2D2D2D2D2DA2
:107B3A002D2D2D2D2D2D2D2D2D2D2D2D2D2D2D2D6B
:107B4A002D2D2D2D2D2D2D2D2D2D2D2D2D2D2D2D5B
:107B5A002D2D2D2D2D2D2D2D0D0A00313A20777228
:107B6A0069746520706572666563742032362076A2
:107B7A00616C75652073696E65207761766520741E
:107B8A006F2031323820626C6F636B730D0A002BE1
:107B9A002F2D3A20496E6372656173652F446563C0
:107BAA007265617365207468652073616D706C65B8
:107BBA0020726174652062792031302075730D0A54
:107BCA0000546F20636C6F73652074686520666962
:107BDA006C6520666F6C6C6F7720746865736520BE
:107BEA00696E737472756374696F6E733A0D0A0DF8
:107BFA000A0053656C6563743A0953657373696F58
:107C0A006E206C6F6767696E673A20416C6C2073EF
:107C1A00657373696F6E206F75747075740D0A00E1
:107C2A00573A205772697465206D6963726F70687C
:107C3A006F6E65203D3E205344206361726420616B
:107C4A007420313630302075730D0A00577269740A
:107C5A006520626C6F636B206F6620646563726572
:107C6A006D656E74656420382D6269742076616C66
:107C7A007565733A0D0A00723A2072656164206173
:107C8A0020626C6F636B206F6620256420627974B2
:107C9A0065732066726F6D20534420636172640DB0
:107CAA000A0043616E277420676F206C6F776572D4
:107CBA00207468616E20323075732073616D706C48
:107CCA00696E6720726174650D0A0050726F626591
:107CDA002052433420746F2064657465726D696E36
:107CEA006520777269746520706572696F640D0A20
:107CFA000050726F62652052433520746F206465AC
:107D0A007465726D696E6520777269746520706535
:107D1A0072696F640D0A00612F41206465637265A0
:107D2A006173652F696E637265617365207265613F
:107D3A006420616464726573730D0A00733A207378
:107D4A00706F6F6C206D656D6F727920746F206132
:107D5A00206373762066696C650D0A0053656C654D
:107D6A0063743A0953657373696F6E206C6F676742
:107D7A00696E673A204E6F6E650D0A0053746F7212
:107D8A00656420257520626C6F636B73206F6620B3
:107D9A0073696E6520776176650D0A005344204346
:107DAA006172642061646472657373206861732010
:107DBA006265656E20726573657400556E646572DE
:107DCA00666C6F77656420746F20686967682061E4
:107DDA006464726573730D0A0053656C6563743A63
:107DEA00094368616E67652073657474696E6773A9
:107DFA002E2E2E0D0A00426C6F636B204C656E6747
:107E0A00746820526573706F6E73653A2025780D19
:107E1A000A004F766572666C6F77656420746F200E
:107E2A006C6F7720616464726573730D0A00434D49
:107E3A0044302C20526573657420526573706F6EDE
:107E4A0073653A2025780D0A00434D44312C2049A8
:107E5A006E697420526573706F6E73653A20257867
:107E6A000D0A00507265737320616E79206B657913
:107E7A0020746F2073746172740D0A00693A204984
:107E8A006E697469616C697A652053442063617212
:107E9A00640D0A007A3A20436C6561722074686541
:107EAA00207465726D696E616C0D0A0020202020B5
:107EBA005374617475733A2020202020253032785B
:107ECA000D0A005A3A2052657365742070726F6306
:107EDA006573736F720D0A00446563726561736539
:107EEA006420616464726573730D0A00496E63727B
:107EFA00656173656420616464726573730D0A0059
:107F0A005344206361726420616464726573733AD6
:107F1A002020005265636F7264696E6720636F6D1B
:107F2A00706C6574650053656C6563743A094C6FCF
:107F3A006767696E670D0A005344206361726420A3
:107F4A0074657374696E670D0A00556E6B6E6F7790
:107F5A006E206B65792025630D0A002020202041C0
:107F6A006464726573733A20202020004E6F772074
:107F7A00736176696E6720646174612E0053656C63
:107F8A006563743A094170706C790D0A0052656133
:107F9A006420626C6F636B3A200D0A003F3A2068D6
:107FAA00656C70206D656E750D0A0053656C6563AE
:107FBA00743A094170706C7900696E4C61622030C4
:107FCA00390D0A004465762732310D0A006F3A09E5
:107FDA006F6B0D0A006F3A206B0D0A00253032785C
:107FEA00200025750D0A0025303478000D0A0A0094
:067FFA002563003A0000BF
:020000040030CA
:0E000000FF281F3CFFBF85FF0FC00FE00F4021
:00000001FF
